{
  "abi": [
    {
      "inputs": [
        {
          "internalType": "uint256",
          "name": "minimum",
          "type": "uint256"
        }
      ],
      "name": "createCampaign",
      "outputs": [],
      "stateMutability": "nonpayable",
      "type": "function"
    },
    {
      "inputs": [
        {
          "internalType": "uint256",
          "name": "",
          "type": "uint256"
        }
      ],
      "name": "deployedCampaigns",
      "outputs": [
        {
          "internalType": "address",
          "name": "",
          "type": "address"
        }
      ],
      "stateMutability": "view",
      "type": "function"
    },
    {
      "inputs": [],
      "name": "getDeployedCampaings",
      "outputs": [
        {
          "internalType": "address[]",
          "name": "",
          "type": "address[]"
        }
      ],
      "stateMutability": "view",
      "type": "function"
    }
  ],
  "devdoc": {
    "kind": "dev",
    "methods": {},
    "version": 1
  },
  "evm": {
    "assembly": "    /* \"Campaign.sol\":58:524  contract CampaignFactory{... */\n  mstore(0x40, 0x80)\n  callvalue\n  dup1\n  iszero\n  tag_1\n  jumpi\n  0x00\n  dup1\n  revert\ntag_1:\n  pop\n  dataSize(sub_0)\n  dup1\n  dataOffset(sub_0)\n  0x00\n  codecopy\n  0x00\n  return\nstop\n\nsub_0: assembly {\n        /* \"Campaign.sol\":58:524  contract CampaignFactory{... */\n      mstore(0x40, 0x80)\n      callvalue\n      dup1\n      iszero\n      tag_1\n      jumpi\n      0x00\n      dup1\n      revert\n    tag_1:\n      pop\n      jumpi(tag_2, lt(calldatasize, 0x04))\n      shr(0xe0, calldataload(0x00))\n      dup1\n      0x339d50a5\n      eq\n      tag_3\n      jumpi\n      dup1\n      0xa3303a75\n      eq\n      tag_4\n      jumpi\n      dup1\n      0xb2b31828\n      eq\n      tag_5\n      jumpi\n    tag_2:\n      0x00\n      dup1\n      revert\n        /* \"Campaign.sol\":88:122  address[] public deployedCampaigns */\n    tag_3:\n      tag_6\n      tag_7\n      calldatasize\n      0x04\n      tag_8\n      jump\t// in\n    tag_7:\n      tag_9\n      jump\t// in\n    tag_6:\n      mload(0x40)\n      sub(shl(0xa0, 0x01), 0x01)\n        /* \"#utility.yul\":363:395   */\n      swap1\n      swap2\n      and\n        /* \"#utility.yul\":345:396   */\n      dup2\n      mstore\n        /* \"#utility.yul\":333:335   */\n      0x20\n        /* \"#utility.yul\":318:336   */\n      add\n        /* \"Campaign.sol\":88:122  address[] public deployedCampaigns */\n    tag_10:\n      mload(0x40)\n      dup1\n      swap2\n      sub\n      swap1\n      return\n        /* \"Campaign.sol\":129:403  function createCampaign(uint minimum) public{... */\n    tag_4:\n      tag_12\n      tag_13\n      calldatasize\n      0x04\n      tag_8\n      jump\t// in\n    tag_13:\n      tag_14\n      jump\t// in\n    tag_12:\n      stop\n        /* \"Campaign.sol\":409:522  function getDeployedCampaings() public view returns (address[] memory ) {... */\n    tag_5:\n      tag_15\n      tag_16\n      jump\t// in\n    tag_15:\n      mload(0x40)\n      tag_10\n      swap2\n      swap1\n      tag_18\n      jump\t// in\n        /* \"Campaign.sol\":88:122  address[] public deployedCampaigns */\n    tag_9:\n      0x00\n      dup2\n      dup2\n      sload\n      dup2\n      lt\n      tag_19\n      jumpi\n      0x00\n      dup1\n      revert\n    tag_19:\n      0x00\n      swap2\n      dup3\n      mstore\n      0x20\n      swap1\n      swap2\n      keccak256\n      add\n      sload\n      sub(shl(0xa0, 0x01), 0x01)\n      and\n      swap1\n      pop\n      dup2\n      jump\t// out\n        /* \"Campaign.sol\":129:403  function createCampaign(uint minimum) public{... */\n    tag_14:\n        /* \"Campaign.sol\":183:202  address newCampaign */\n      0x00\n        /* \"Campaign.sol\":226:233  minimum */\n      dup2\n        /* \"Campaign.sol\":235:245  msg.sender */\n      caller\n        /* \"Campaign.sol\":213:246  new Campaign(minimum, msg.sender) */\n      mload(0x40)\n      tag_22\n      swap1\n      tag_23\n      jump\t// in\n    tag_22:\n        /* \"#utility.yul\":1244:1269   */\n      swap2\n      dup3\n      mstore\n      sub(shl(0xa0, 0x01), 0x01)\n        /* \"#utility.yul\":1305:1337   */\n      and\n        /* \"#utility.yul\":1300:1302   */\n      0x20\n        /* \"#utility.yul\":1285:1303   */\n      dup3\n      add\n        /* \"#utility.yul\":1278:1338   */\n      mstore\n        /* \"#utility.yul\":1232:1234   */\n      0x40\n        /* \"#utility.yul\":1217:1235   */\n      add\n        /* \"Campaign.sol\":213:246  new Campaign(minimum, msg.sender) */\n      mload(0x40)\n      dup1\n      swap2\n      sub\n      swap1\n      0x00\n      create\n      dup1\n      iszero\n      dup1\n      iszero\n      tag_26\n      jumpi\n      returndatasize\n      0x00\n      dup1\n      returndatacopy\n      revert(0x00, returndatasize)\n    tag_26:\n      pop\n        /* \"Campaign.sol\":361:378  deployedCampaigns */\n      0x00\n        /* \"Campaign.sol\":361:396  deployedCampaigns.push(newCampaign) */\n      dup1\n      sload\n      0x01\n      dup2\n      add\n      dup3\n      sstore\n      swap1\n      dup1\n      mstore\n      0x290decd9548b62a8d60345a988386fc84ba6bc95484008f6362f93160ef3e563\n      add\n      dup1\n      sload\n      not(sub(shl(0xa0, 0x01), 0x01))\n      and\n      sub(shl(0xa0, 0x01), 0x01)\n      swap3\n      swap1\n      swap3\n      and\n      swap2\n      swap1\n      swap2\n      or\n      swap1\n      sstore\n      pop\n      pop\n        /* \"Campaign.sol\":129:403  function createCampaign(uint minimum) public{... */\n      jump\t// out\n        /* \"Campaign.sol\":409:522  function getDeployedCampaings() public view returns (address[] memory ) {... */\n    tag_16:\n        /* \"Campaign.sol\":462:478  address[] memory */\n      0x60\n        /* \"Campaign.sol\":498:515  deployedCampaigns */\n      0x00\n        /* \"Campaign.sol\":491:515  return deployedCampaigns */\n      dup1\n      sload\n      dup1\n      0x20\n      mul\n      0x20\n      add\n      mload(0x40)\n      swap1\n      dup2\n      add\n      0x40\n      mstore\n      dup1\n      swap3\n      swap2\n      swap1\n      dup2\n      dup2\n      mstore\n      0x20\n      add\n      dup3\n      dup1\n      sload\n      dup1\n      iszero\n      tag_29\n      jumpi\n      0x20\n      mul\n      dup3\n      add\n      swap2\n      swap1\n      0x00\n      mstore\n      keccak256(0x00, 0x20)\n      swap1\n    tag_30:\n      dup2\n      sload\n      sub(shl(0xa0, 0x01), 0x01)\n      and\n      dup2\n      mstore\n      0x01\n      swap1\n      swap2\n      add\n      swap1\n      0x20\n      add\n      dup1\n      dup4\n      gt\n      tag_30\n      jumpi\n    tag_29:\n      pop\n      pop\n      pop\n      pop\n      pop\n      swap1\n      pop\n        /* \"Campaign.sol\":409:522  function getDeployedCampaings() public view returns (address[] memory ) {... */\n      swap1\n      jump\t// out\n    tag_23:\n      dataSize(sub_0)\n      dup1\n      dataOffset(sub_0)\n      dup4\n      codecopy\n      add\n      swap1\n      jump\t// out\n        /* \"#utility.yul\":14:194   */\n    tag_8:\n        /* \"#utility.yul\":73:79   */\n      0x00\n        /* \"#utility.yul\":126:128   */\n      0x20\n        /* \"#utility.yul\":114:123   */\n      dup3\n        /* \"#utility.yul\":105:112   */\n      dup5\n        /* \"#utility.yul\":101:124   */\n      sub\n        /* \"#utility.yul\":97:129   */\n      slt\n        /* \"#utility.yul\":94:146   */\n      iszero\n      tag_33\n      jumpi\n        /* \"#utility.yul\":142:143   */\n      0x00\n        /* \"#utility.yul\":139:140   */\n      dup1\n        /* \"#utility.yul\":132:144   */\n      revert\n        /* \"#utility.yul\":94:146   */\n    tag_33:\n      pop\n        /* \"#utility.yul\":165:188   */\n      calldataload\n      swap2\n        /* \"#utility.yul\":14:194   */\n      swap1\n      pop\n      jump\t// out\n        /* \"#utility.yul\":407:1065   */\n    tag_18:\n        /* \"#utility.yul\":578:580   */\n      0x20\n        /* \"#utility.yul\":630:651   */\n      dup1\n      dup3\n      mstore\n        /* \"#utility.yul\":700:713   */\n      dup3\n      mload\n        /* \"#utility.yul\":603:621   */\n      dup3\n      dup3\n      add\n        /* \"#utility.yul\":722:744   */\n      dup2\n      swap1\n      mstore\n        /* \"#utility.yul\":549:553   */\n      0x00\n      swap2\n        /* \"#utility.yul\":578:580   */\n      swap1\n        /* \"#utility.yul\":801:816   */\n      dup5\n      dup3\n      add\n      swap1\n        /* \"#utility.yul\":775:777   */\n      0x40\n        /* \"#utility.yul\":760:778   */\n      dup6\n      add\n      swap1\n        /* \"#utility.yul\":549:553   */\n      dup5\n        /* \"#utility.yul\":844:1039   */\n    tag_36:\n        /* \"#utility.yul\":858:864   */\n      dup2\n        /* \"#utility.yul\":855:856   */\n      dup2\n        /* \"#utility.yul\":852:865   */\n      lt\n        /* \"#utility.yul\":844:1039   */\n      iszero\n      tag_38\n      jumpi\n        /* \"#utility.yul\":923:936   */\n      dup4\n      mload\n      sub(shl(0xa0, 0x01), 0x01)\n        /* \"#utility.yul\":919:958   */\n      and\n        /* \"#utility.yul\":907:959   */\n      dup4\n      mstore\n        /* \"#utility.yul\":1014:1029   */\n      swap3\n      dup5\n      add\n      swap3\n        /* \"#utility.yul\":979:991   */\n      swap2\n      dup5\n      add\n      swap2\n        /* \"#utility.yul\":955:956   */\n      0x01\n        /* \"#utility.yul\":873:882   */\n      add\n        /* \"#utility.yul\":844:1039   */\n      jump(tag_36)\n    tag_38:\n      pop\n        /* \"#utility.yul\":1056:1059   */\n      swap1\n      swap7\n        /* \"#utility.yul\":407:1065   */\n      swap6\n      pop\n      pop\n      pop\n      pop\n      pop\n      pop\n      jump\t// out\n    stop\n\n    sub_0: assembly {\n            /* \"Campaign.sol\":526:2651  contract Campaign{... */\n          mstore(0x40, 0x80)\n            /* \"Campaign.sol\":975:1091  constructor (uint minimum, address creator){... */\n          callvalue\n          dup1\n          iszero\n          tag_1\n          jumpi\n          0x00\n          dup1\n          revert\n        tag_1:\n          pop\n          mload(0x40)\n          sub(codesize, bytecodeSize)\n          dup1\n          bytecodeSize\n          dup4\n          codecopy\n          dup2\n          add\n          0x40\n          dup2\n          swap1\n          mstore\n          tag_2\n          swap2\n          tag_3\n          jump\t// in\n        tag_2:\n            /* \"Campaign.sol\":1028:1035  manager */\n          0x02\n            /* \"Campaign.sol\":1028:1045  manager = creator */\n          dup1\n          sload\n          not(sub(shl(0xa0, 0x01), 0x01))\n          and\n          sub(shl(0xa0, 0x01), 0x01)\n          swap3\n          swap1\n          swap3\n          and\n          swap2\n          swap1\n          swap2\n          or\n          swap1\n          sstore\n            /* \"Campaign.sol\":1055:1074  minimumContribution */\n          0x03\n            /* \"Campaign.sol\":1055:1084  minimumContribution = minimum */\n          sstore\n            /* \"Campaign.sol\":526:2651  contract Campaign{... */\n          jump(tag_7)\n            /* \"#utility.yul\":14:365   */\n        tag_3:\n            /* \"#utility.yul\":93:99   */\n          0x00\n            /* \"#utility.yul\":101:107   */\n          dup1\n            /* \"#utility.yul\":154:156   */\n          0x40\n            /* \"#utility.yul\":142:151   */\n          dup4\n            /* \"#utility.yul\":133:140   */\n          dup6\n            /* \"#utility.yul\":129:152   */\n          sub\n            /* \"#utility.yul\":125:157   */\n          slt\n            /* \"#utility.yul\":122:174   */\n          iszero\n          tag_9\n          jumpi\n            /* \"#utility.yul\":170:171   */\n          0x00\n            /* \"#utility.yul\":167:168   */\n          dup1\n            /* \"#utility.yul\":160:172   */\n          revert\n            /* \"#utility.yul\":122:174   */\n        tag_9:\n            /* \"#utility.yul\":193:209   */\n          dup3\n          mload\n            /* \"#utility.yul\":252:254   */\n          0x20\n            /* \"#utility.yul\":237:255   */\n          dup5\n          add\n            /* \"#utility.yul\":231:256   */\n          mload\n            /* \"#utility.yul\":193:209   */\n          swap1\n          swap3\n          pop\n          sub(shl(0xa0, 0x01), 0x01)\n            /* \"#utility.yul\":285:316   */\n          dup2\n          and\n            /* \"#utility.yul\":275:317   */\n          dup2\n          eq\n            /* \"#utility.yul\":265:335   */\n          tag_10\n          jumpi\n            /* \"#utility.yul\":331:332   */\n          0x00\n            /* \"#utility.yul\":328:329   */\n          dup1\n            /* \"#utility.yul\":321:333   */\n          revert\n            /* \"#utility.yul\":265:335   */\n        tag_10:\n            /* \"#utility.yul\":354:359   */\n          dup1\n            /* \"#utility.yul\":344:359   */\n          swap2\n          pop\n          pop\n            /* \"#utility.yul\":14:365   */\n          swap3\n          pop\n          swap3\n          swap1\n          pop\n          jump\t// out\n        tag_7:\n            /* \"Campaign.sol\":526:2651  contract Campaign{... */\n          dataSize(sub_0)\n          dup1\n          dataOffset(sub_0)\n          0x00\n          codecopy\n          0x00\n          return\n        stop\n\n        sub_0: assembly {\n                /* \"Campaign.sol\":526:2651  contract Campaign{... */\n              mstore(0x40, 0x80)\n              jumpi(tag_1, lt(calldatasize, 0x04))\n              shr(0xe0, calldataload(0x00))\n              dup1\n              0x82fde093\n              gt\n              tag_11\n              jumpi\n              dup1\n              0x82fde093\n              eq\n              tag_6\n              jumpi\n              dup1\n              0x8a9cfd55\n              eq\n              tag_7\n              jumpi\n              dup1\n              0x937e09b1\n              eq\n              tag_8\n              jumpi\n              dup1\n              0xd7bb99ba\n              eq\n              tag_9\n              jumpi\n              dup1\n              0xd7d1bbdb\n              eq\n              tag_10\n              jumpi\n              0x00\n              dup1\n              revert\n            tag_11:\n              dup1\n              0x03441006\n              eq\n              tag_2\n              jumpi\n              dup1\n              0x0a144391\n              eq\n              tag_3\n              jumpi\n              dup1\n              0x481c6a75\n              eq\n              tag_4\n              jumpi\n              dup1\n              0x81d12c58\n              eq\n              tag_5\n              jumpi\n            tag_1:\n              0x00\n              dup1\n              revert\n                /* \"Campaign.sol\":2317:2649  function finalizeRequest(uint index) public restricted{... */\n            tag_2:\n              callvalue\n              dup1\n              iszero\n              tag_12\n              jumpi\n              0x00\n              dup1\n              revert\n            tag_12:\n              pop\n              tag_13\n              tag_14\n              calldatasize\n              0x04\n              tag_15\n              jump\t// in\n            tag_14:\n              tag_16\n              jump\t// in\n            tag_13:\n              stop\n                /* \"Campaign.sol\":891:932  mapping(address => bool) public approvers */\n            tag_3:\n              callvalue\n              dup1\n              iszero\n              tag_17\n              jumpi\n              0x00\n              dup1\n              revert\n            tag_17:\n              pop\n              tag_18\n              tag_19\n              calldatasize\n              0x04\n              tag_20\n              jump\t// in\n            tag_19:\n              mstore(0x20, 0x04)\n              0x00\n              swap1\n              dup2\n              mstore\n              0x40\n              swap1\n              keccak256\n              sload\n              0xff\n              and\n              dup2\n              jump\n            tag_18:\n              mload(0x40)\n                /* \"#utility.yul\":829:843   */\n              swap1\n              iszero\n                /* \"#utility.yul\":822:844   */\n              iszero\n                /* \"#utility.yul\":804:845   */\n              dup2\n              mstore\n                /* \"#utility.yul\":792:794   */\n              0x20\n                /* \"#utility.yul\":777:795   */\n              add\n                /* \"Campaign.sol\":891:932  mapping(address => bool) public approvers */\n            tag_22:\n              mload(0x40)\n              dup1\n              swap2\n              sub\n              swap1\n              return\n                /* \"Campaign.sol\":826:848  address public manager */\n            tag_4:\n              callvalue\n              dup1\n              iszero\n              tag_24\n              jumpi\n              0x00\n              dup1\n              revert\n            tag_24:\n              pop\n              sload(0x02)\n              tag_25\n              swap1\n              sub(shl(0xa0, 0x01), 0x01)\n              and\n              dup2\n              jump\n            tag_25:\n              mload(0x40)\n              sub(shl(0xa0, 0x01), 0x01)\n                /* \"#utility.yul\":1129:1161   */\n              swap1\n              swap2\n              and\n                /* \"#utility.yul\":1111:1162   */\n              dup2\n              mstore\n                /* \"#utility.yul\":1099:1101   */\n              0x20\n                /* \"#utility.yul\":1084:1102   */\n              add\n                /* \"Campaign.sol\":826:848  address public manager */\n              tag_22\n                /* \"#utility.yul\":965:1168   */\n              jump\n                /* \"Campaign.sol\":780:820  mapping(uint => Request) public requests */\n            tag_5:\n              callvalue\n              dup1\n              iszero\n              tag_29\n              jumpi\n              0x00\n              dup1\n              revert\n            tag_29:\n              pop\n              tag_30\n              tag_31\n              calldatasize\n              0x04\n              tag_15\n              jump\t// in\n            tag_31:\n              tag_32\n              jump\t// in\n            tag_30:\n              mload(0x40)\n              tag_22\n              swap6\n              swap5\n              swap4\n              swap3\n              swap2\n              swap1\n              tag_34\n              jump\t// in\n                /* \"Campaign.sol\":938:964  uint public approversCount */\n            tag_6:\n              callvalue\n              dup1\n              iszero\n              tag_35\n              jumpi\n              0x00\n              dup1\n              revert\n            tag_35:\n              pop\n              tag_36\n              sload(0x05)\n              dup2\n              jump\n            tag_36:\n              mload(0x40)\n                /* \"#utility.yul\":2227:2252   */\n              swap1\n              dup2\n              mstore\n                /* \"#utility.yul\":2215:2217   */\n              0x20\n                /* \"#utility.yul\":2200:2218   */\n              add\n                /* \"Campaign.sol\":938:964  uint public approversCount */\n              tag_22\n                /* \"#utility.yul\":2081:2258   */\n              jump\n                /* \"Campaign.sol\":1352:1875  function createRequest (string memory description, uint value,... */\n            tag_7:\n              callvalue\n              dup1\n              iszero\n              tag_40\n              jumpi\n              0x00\n              dup1\n              revert\n            tag_40:\n              pop\n              tag_13\n              tag_42\n              calldatasize\n              0x04\n              tag_43\n              jump\t// in\n            tag_42:\n              tag_44\n              jump\t// in\n                /* \"Campaign.sol\":854:885  uint public minimumContribution */\n            tag_8:\n              callvalue\n              dup1\n              iszero\n              tag_45\n              jumpi\n              0x00\n              dup1\n              revert\n            tag_45:\n              pop\n              tag_36\n              sload(0x03)\n              dup2\n              jump\n                /* \"Campaign.sol\":1183:1341  function contribute() public payable {... */\n            tag_9:\n              tag_13\n              tag_50\n              jump\t// in\n                /* \"Campaign.sol\":1880:2311  function approveRequest(uint256 index) public {... */\n            tag_10:\n              callvalue\n              dup1\n              iszero\n              tag_51\n              jumpi\n              0x00\n              dup1\n              revert\n            tag_51:\n              pop\n              tag_13\n              tag_53\n              calldatasize\n              0x04\n              tag_15\n              jump\t// in\n            tag_53:\n              tag_54\n              jump\t// in\n                /* \"Campaign.sol\":2317:2649  function finalizeRequest(uint index) public restricted{... */\n            tag_16:\n                /* \"Campaign.sol\":1151:1158  manager */\n              and(sub(shl(0xa0, 0x01), 0x01), sload(0x02))\n                /* \"Campaign.sol\":1137:1147  msg.sender */\n              caller\n                /* \"Campaign.sol\":1137:1158  msg.sender == manager */\n              eq\n                /* \"Campaign.sol\":1129:1159  require(msg.sender == manager) */\n              tag_56\n              jumpi\n              0x00\n              dup1\n              revert\n            tag_56:\n                /* \"Campaign.sol\":2381:2404  Request storage request */\n              0x00\n                /* \"Campaign.sol\":2407:2422  requests[index] */\n              dup2\n              dup2\n              mstore\n                /* \"Campaign.sol\":2407:2415  requests */\n              0x01\n                /* \"Campaign.sol\":2407:2422  requests[index] */\n              0x20\n              mstore\n              0x40\n              swap1\n              keccak256\n                /* \"Campaign.sol\":2478:2494  request.complete */\n              0x02\n              dup2\n              add\n              sload\n              shl(0xa0, 0x01)\n              swap1\n              div\n              0xff\n              and\n                /* \"Campaign.sol\":2477:2494  !request.complete */\n              iszero\n                /* \"Campaign.sol\":2469:2495  require(!request.complete) */\n              tag_58\n              jumpi\n              0x00\n              dup1\n              revert\n            tag_58:\n                /* \"Campaign.sol\":2554:2555  2 */\n              0x02\n                /* \"Campaign.sol\":2538:2552  approversCount */\n              sload(0x05)\n                /* \"Campaign.sol\":2538:2555  approversCount /2 */\n              tag_59\n              swap2\n              swap1\n              tag_60\n              jump\t// in\n            tag_59:\n                /* \"Campaign.sol\":2513:2520  request */\n              dup2\n                /* \"Campaign.sol\":2513:2534  request.approvalCount */\n              0x03\n              add\n              sload\n                /* \"Campaign.sol\":2513:2556  request.approvalCount > (approversCount /2) */\n              gt\n                /* \"Campaign.sol\":2505:2557  require(request.approvalCount > (approversCount /2)) */\n              tag_61\n              jumpi\n              0x00\n              dup1\n              revert\n            tag_61:\n                /* \"Campaign.sol\":2568:2585  request.recipient */\n              0x02\n              dup2\n              add\n              sload\n              0x01\n                /* \"Campaign.sol\":2595:2608  request.value */\n              dup3\n              add\n              sload\n                /* \"Campaign.sol\":2568:2609  request.recipient.transfer(request.value) */\n              mload(0x40)\n              sub(shl(0xa0, 0x01), 0x01)\n                /* \"Campaign.sol\":2568:2585  request.recipient */\n              swap1\n              swap3\n              and\n              swap2\n                /* \"Campaign.sol\":2568:2609  request.recipient.transfer(request.value) */\n              dup2\n              iszero\n              0x08fc\n              mul\n              swap2\n                /* \"Campaign.sol\":2595:2608  request.value */\n              swap1\n                /* \"Campaign.sol\":2568:2585  request.recipient */\n              0x00\n                /* \"Campaign.sol\":2568:2609  request.recipient.transfer(request.value) */\n              dup2\n                /* \"Campaign.sol\":2568:2585  request.recipient */\n              dup2\n                /* \"Campaign.sol\":2568:2609  request.recipient.transfer(request.value) */\n              dup2\n                /* \"Campaign.sol\":2595:2608  request.value */\n              dup6\n                /* \"Campaign.sol\":2568:2585  request.recipient */\n              dup9\n                /* \"Campaign.sol\":2568:2609  request.recipient.transfer(request.value) */\n              dup9\n              call\n              swap4\n              pop\n              pop\n              pop\n              pop\n              iszero\n              dup1\n              iszero\n              tag_63\n              jumpi\n              returndatasize\n              0x00\n              dup1\n              returndatacopy\n              revert(0x00, returndatasize)\n            tag_63:\n              pop\n                /* \"Campaign.sol\":2619:2635  request.complete */\n              0x02\n              add\n                /* \"Campaign.sol\":2619:2642  request.complete = true */\n              dup1\n              sload\n              not(shl(0xa0, 0xff))\n              and\n              shl(0xa0, 0x01)\n              or\n              swap1\n              sstore\n              pop\n                /* \"Campaign.sol\":2317:2649  function finalizeRequest(uint index) public restricted{... */\n              jump\t// out\n                /* \"Campaign.sol\":780:820  mapping(uint => Request) public requests */\n            tag_32:\n              mstore(0x20, 0x01)\n              0x00\n              swap1\n              dup2\n              mstore\n              0x40\n              swap1\n              keccak256\n              dup1\n              sload\n              dup2\n              swap1\n              tag_64\n              swap1\n              tag_65\n              jump\t// in\n            tag_64:\n              dup1\n              0x1f\n              add\n              0x20\n              dup1\n              swap2\n              div\n              mul\n              0x20\n              add\n              mload(0x40)\n              swap1\n              dup2\n              add\n              0x40\n              mstore\n              dup1\n              swap3\n              swap2\n              swap1\n              dup2\n              dup2\n              mstore\n              0x20\n              add\n              dup3\n              dup1\n              sload\n              tag_66\n              swap1\n              tag_65\n              jump\t// in\n            tag_66:\n              dup1\n              iszero\n              tag_67\n              jumpi\n              dup1\n              0x1f\n              lt\n              tag_68\n              jumpi\n              0x0100\n              dup1\n              dup4\n              sload\n              div\n              mul\n              dup4\n              mstore\n              swap2\n              0x20\n              add\n              swap2\n              jump(tag_67)\n            tag_68:\n              dup3\n              add\n              swap2\n              swap1\n              0x00\n              mstore\n              keccak256(0x00, 0x20)\n              swap1\n            tag_69:\n              dup2\n              sload\n              dup2\n              mstore\n              swap1\n              0x01\n              add\n              swap1\n              0x20\n              add\n              dup1\n              dup4\n              gt\n              tag_69\n              jumpi\n              dup3\n              swap1\n              sub\n              0x1f\n              and\n              dup3\n              add\n              swap2\n            tag_67:\n              pop\n              pop\n              pop\n              pop\n              0x01\n              dup4\n              add\n              sload\n              0x02\n              dup5\n              add\n              sload\n              0x03\n              swap1\n              swap5\n              add\n              sload\n              swap3\n              swap4\n              swap1\n              swap3\n              sub(shl(0xa0, 0x01), 0x01)\n              dup3\n              and\n              swap3\n              pop\n              shl(0xa0, 0x01)\n              swap1\n              swap2\n              div\n              0xff\n              and\n              swap1\n              dup6\n              jump\t// out\n                /* \"Campaign.sol\":1352:1875  function createRequest (string memory description, uint value,... */\n            tag_44:\n                /* \"Campaign.sol\":1470:1493  Request storage request */\n              0x00\n                /* \"Campaign.sol\":1505:1518  numRequests++ */\n              dup1\n              sload\n                /* \"Campaign.sol\":1496:1504  requests */\n              0x01\n              swap1\n                /* \"Campaign.sol\":1470:1493  Request storage request */\n              dup3\n              swap1\n              dup2\n              dup1\n                /* \"Campaign.sol\":1505:1518  numRequests++ */\n              tag_71\n              dup4\n              tag_72\n              jump\t// in\n            tag_71:\n              swap1\n              swap2\n              sstore\n              pop\n                /* \"Campaign.sol\":1496:1519  requests[numRequests++] */\n              dup2\n              mstore\n              0x20\n              dup1\n              dup3\n              add\n              swap3\n              swap1\n              swap3\n              mstore\n              0x40\n              add\n              0x00\n              keccak256\n                /* \"Campaign.sol\":1538:1571  request.description = description */\n              dup6\n              mload\n                /* \"Campaign.sol\":1496:1519  requests[numRequests++] */\n              swap1\n              swap3\n              pop\n                /* \"Campaign.sol\":1538:1571  request.description = description */\n              tag_73\n              swap2\n                /* \"Campaign.sol\":1496:1519  requests[numRequests++] */\n              dup4\n              swap2\n                /* \"Campaign.sol\":1538:1571  request.description = description */\n              swap1\n              dup8\n              add\n              swap1\n              tag_74\n              jump\t// in\n            tag_73:\n              pop\n                /* \"Campaign.sol\":1589:1602  request.value */\n              0x01\n              dup2\n              add\n                /* \"Campaign.sol\":1589:1610  request.value = value */\n              swap3\n              swap1\n              swap3\n              sstore\n                /* \"Campaign.sol\":1628:1645  request.recipient */\n              0x02\n              dup3\n              add\n                /* \"Campaign.sol\":1628:1666  request.recipient = payable(recipient) */\n              dup1\n              sload\n              not(sub(shl(0xa8, 0x01), 0x01))\n                /* \"Campaign.sol\":1784:1808  request.complete = false */\n              and\n              sub(shl(0xa0, 0x01), 0x01)\n                /* \"Campaign.sol\":1628:1666  request.recipient = payable(recipient) */\n              swap1\n              swap3\n              and\n                /* \"Campaign.sol\":1784:1808  request.complete = false */\n              swap2\n              swap1\n              swap2\n              or\n              swap1\n              sstore\n                /* \"Campaign.sol\":1628:1645  request.recipient */\n              0x00\n                /* \"Campaign.sol\":1826:1847  request.approvalCount */\n              0x03\n              swap1\n              swap2\n              add\n                /* \"Campaign.sol\":1826:1851  request.approvalCount = 0 */\n              sstore\n              pop\n                /* \"Campaign.sol\":1352:1875  function createRequest (string memory description, uint value,... */\n              jump\t// out\n                /* \"Campaign.sol\":1183:1341  function contribute() public payable {... */\n            tag_50:\n                /* \"Campaign.sol\":1250:1269  minimumContribution */\n              sload(0x03)\n                /* \"Campaign.sol\":1238:1247  msg.value */\n              callvalue\n                /* \"Campaign.sol\":1238:1269  msg.value > minimumContribution */\n              gt\n                /* \"Campaign.sol\":1230:1270  require(msg.value > minimumContribution) */\n              tag_76\n              jumpi\n              0x00\n              dup1\n              revert\n            tag_76:\n                /* \"Campaign.sol\":1290:1300  msg.sender */\n              caller\n                /* \"Campaign.sol\":1280:1301  approvers[msg.sender] */\n              0x00\n              swap1\n              dup2\n              mstore\n                /* \"Campaign.sol\":1280:1289  approvers */\n              0x04\n                /* \"Campaign.sol\":1280:1301  approvers[msg.sender] */\n              0x20\n              mstore\n              0x40\n              dup2\n              keccak256\n                /* \"Campaign.sol\":1280:1308  approvers[msg.sender] = true */\n              dup1\n              sload\n              not(0xff)\n              and\n                /* \"Campaign.sol\":1304:1308  true */\n              0x01\n                /* \"Campaign.sol\":1280:1308  approvers[msg.sender] = true */\n              or\n              swap1\n              sstore\n                /* \"Campaign.sol\":1318:1332  approversCount */\n              0x05\n                /* \"Campaign.sol\":1318:1334  approversCount++ */\n              dup1\n              sload\n              swap2\n              tag_77\n              dup4\n              tag_72\n              jump\t// in\n            tag_77:\n              swap2\n              swap1\n              pop\n              sstore\n              pop\n                /* \"Campaign.sol\":1183:1341  function contribute() public payable {... */\n              jump\t// out\n                /* \"Campaign.sol\":1880:2311  function approveRequest(uint256 index) public {... */\n            tag_54:\n                /* \"Campaign.sol\":1936:1959  Request storage request */\n              0x00\n                /* \"Campaign.sol\":1962:1977  requests[index] */\n              dup2\n              dup2\n              mstore\n                /* \"Campaign.sol\":1962:1970  requests */\n              0x01\n                /* \"Campaign.sol\":1962:1977  requests[index] */\n              0x20\n              swap1\n              dup2\n              mstore\n              0x40\n              dup1\n              dup4\n              keccak256\n                /* \"Campaign.sol\":2042:2052  msg.sender */\n              caller\n                /* \"Campaign.sol\":2032:2053  approvers[msg.sender] */\n              dup5\n              mstore\n                /* \"Campaign.sol\":2032:2041  approvers */\n              0x04\n                /* \"Campaign.sol\":2032:2053  approvers[msg.sender] */\n              swap1\n              swap3\n              mstore\n              swap1\n              swap2\n              keccak256\n              sload\n              0xff\n              and\n                /* \"Campaign.sol\":2024:2054  require(approvers[msg.sender]) */\n              tag_79\n              jumpi\n              0x00\n              dup1\n              revert\n            tag_79:\n                /* \"Campaign.sol\":2122:2132  msg.sender */\n              caller\n                /* \"Campaign.sol\":2104:2133  request.approvals[msg.sender] */\n              0x00\n              swap1\n              dup2\n              mstore\n                /* \"Campaign.sol\":2104:2121  request.approvals */\n              0x04\n              dup3\n              add\n                /* \"Campaign.sol\":2104:2133  request.approvals[msg.sender] */\n              0x20\n              mstore\n              0x40\n              swap1\n              keccak256\n              sload\n              0xff\n              and\n                /* \"Campaign.sol\":2103:2133  !request.approvals[msg.sender] */\n              iszero\n                /* \"Campaign.sol\":2095:2134  require(!request.approvals[msg.sender]) */\n              tag_80\n              jumpi\n              0x00\n              dup1\n              revert\n            tag_80:\n                /* \"Campaign.sol\":2199:2209  msg.sender */\n              caller\n                /* \"Campaign.sol\":2181:2210  request.approvals[msg.sender] */\n              0x00\n              swap1\n              dup2\n              mstore\n                /* \"Campaign.sol\":2181:2198  request.approvals */\n              0x04\n              dup3\n              add\n                /* \"Campaign.sol\":2181:2210  request.approvals[msg.sender] */\n              0x20\n              mstore\n              0x40\n              dup2\n              keccak256\n                /* \"Campaign.sol\":2181:2217  request.approvals[msg.sender] = true */\n              dup1\n              sload\n              not(0xff)\n              and\n                /* \"Campaign.sol\":2213:2217  true */\n              0x01\n                /* \"Campaign.sol\":2181:2217  request.approvals[msg.sender] = true */\n              or\n              swap1\n              sstore\n                /* \"Campaign.sol\":2259:2280  request.approvalCount */\n              0x03\n              dup3\n              add\n                /* \"Campaign.sol\":2259:2282  request.approvalCount++ */\n              dup1\n              sload\n              swap2\n              tag_81\n              dup4\n              tag_72\n              jump\t// in\n            tag_81:\n              swap2\n              swap1\n              pop\n              sstore\n              pop\n                /* \"Campaign.sol\":1926:2311  {... */\n              pop\n                /* \"Campaign.sol\":1880:2311  function approveRequest(uint256 index) public {... */\n              pop\n              jump\t// out\n            tag_74:\n              dup3\n              dup1\n              sload\n              tag_82\n              swap1\n              tag_65\n              jump\t// in\n            tag_82:\n              swap1\n              0x00\n              mstore\n              keccak256(0x00, 0x20)\n              swap1\n              0x1f\n              add\n              0x20\n              swap1\n              div\n              dup2\n              add\n              swap3\n              dup3\n              tag_84\n              jumpi\n              0x00\n              dup6\n              sstore\n              jump(tag_87)\n            tag_84:\n              dup3\n              0x1f\n              lt\n              tag_85\n              jumpi\n              dup1\n              mload\n              not(0xff)\n              and\n              dup4\n              dup1\n              add\n              or\n              dup6\n              sstore\n              jump(tag_87)\n            tag_85:\n              dup3\n              dup1\n              add\n              0x01\n              add\n              dup6\n              sstore\n              dup3\n              iszero\n              tag_87\n              jumpi\n              swap2\n              dup3\n              add\n            tag_86:\n              dup3\n              dup2\n              gt\n              iszero\n              tag_87\n              jumpi\n              dup3\n              mload\n              dup3\n              sstore\n              swap2\n              0x20\n              add\n              swap2\n              swap1\n              0x01\n              add\n              swap1\n              jump(tag_86)\n            tag_87:\n              pop\n              tag_88\n              swap3\n              swap2\n              pop\n              tag_89\n              jump\t// in\n            tag_88:\n              pop\n              swap1\n              jump\t// out\n            tag_89:\n            tag_90:\n              dup1\n              dup3\n              gt\n              iszero\n              tag_88\n              jumpi\n              0x00\n              dup2\n              sstore\n              0x01\n              add\n              jump(tag_90)\n                /* \"#utility.yul\":14:194   */\n            tag_15:\n                /* \"#utility.yul\":73:79   */\n              0x00\n                /* \"#utility.yul\":126:128   */\n              0x20\n                /* \"#utility.yul\":114:123   */\n              dup3\n                /* \"#utility.yul\":105:112   */\n              dup5\n                /* \"#utility.yul\":101:124   */\n              sub\n                /* \"#utility.yul\":97:129   */\n              slt\n                /* \"#utility.yul\":94:146   */\n              iszero\n              tag_98\n              jumpi\n                /* \"#utility.yul\":142:143   */\n              0x00\n                /* \"#utility.yul\":139:140   */\n              dup1\n                /* \"#utility.yul\":132:144   */\n              revert\n                /* \"#utility.yul\":94:146   */\n            tag_98:\n              pop\n                /* \"#utility.yul\":165:188   */\n              calldataload\n              swap2\n                /* \"#utility.yul\":14:194   */\n              swap1\n              pop\n              jump\t// out\n                /* \"#utility.yul\":199:372   */\n            tag_92:\n                /* \"#utility.yul\":267:287   */\n              dup1\n              calldataload\n              sub(shl(0xa0, 0x01), 0x01)\n                /* \"#utility.yul\":316:347   */\n              dup2\n              and\n                /* \"#utility.yul\":306:348   */\n              dup2\n              eq\n                /* \"#utility.yul\":296:366   */\n              tag_100\n              jumpi\n                /* \"#utility.yul\":362:363   */\n              0x00\n                /* \"#utility.yul\":359:360   */\n              dup1\n                /* \"#utility.yul\":352:364   */\n              revert\n                /* \"#utility.yul\":296:366   */\n            tag_100:\n                /* \"#utility.yul\":199:372   */\n              swap2\n              swap1\n              pop\n              jump\t// out\n                /* \"#utility.yul\":377:563   */\n            tag_20:\n                /* \"#utility.yul\":436:442   */\n              0x00\n                /* \"#utility.yul\":489:491   */\n              0x20\n                /* \"#utility.yul\":477:486   */\n              dup3\n                /* \"#utility.yul\":468:475   */\n              dup5\n                /* \"#utility.yul\":464:487   */\n              sub\n                /* \"#utility.yul\":460:492   */\n              slt\n                /* \"#utility.yul\":457:509   */\n              iszero\n              tag_102\n              jumpi\n                /* \"#utility.yul\":505:506   */\n              0x00\n                /* \"#utility.yul\":502:503   */\n              dup1\n                /* \"#utility.yul\":495:507   */\n              revert\n                /* \"#utility.yul\":457:509   */\n            tag_102:\n                /* \"#utility.yul\":528:557   */\n              tag_103\n                /* \"#utility.yul\":547:556   */\n              dup3\n                /* \"#utility.yul\":528:557   */\n              tag_92\n              jump\t// in\n            tag_103:\n                /* \"#utility.yul\":518:557   */\n              swap4\n                /* \"#utility.yul\":377:563   */\n              swap3\n              pop\n              pop\n              pop\n              jump\t// out\n                /* \"#utility.yul\":1173:2076   */\n            tag_34:\n                /* \"#utility.yul\":1444:1447   */\n              0xa0\n                /* \"#utility.yul\":1433:1442   */\n              dup2\n                /* \"#utility.yul\":1426:1448   */\n              mstore\n                /* \"#utility.yul\":1407:1411   */\n              0x00\n                /* \"#utility.yul\":1477:1483   */\n              dup7\n                /* \"#utility.yul\":1471:1484   */\n              mload\n                /* \"#utility.yul\":1521:1527   */\n              dup1\n                /* \"#utility.yul\":1515:1518   */\n              0xa0\n                /* \"#utility.yul\":1504:1513   */\n              dup5\n                /* \"#utility.yul\":1500:1519   */\n              add\n                /* \"#utility.yul\":1493:1528   */\n              mstore\n                /* \"#utility.yul\":1546:1547   */\n              0x00\n                /* \"#utility.yul\":1556:1701   */\n            tag_109:\n                /* \"#utility.yul\":1570:1576   */\n              dup2\n                /* \"#utility.yul\":1567:1568   */\n              dup2\n                /* \"#utility.yul\":1564:1577   */\n              lt\n                /* \"#utility.yul\":1556:1701   */\n              iszero\n              tag_111\n              jumpi\n                /* \"#utility.yul\":1684:1688   */\n              0x20\n                /* \"#utility.yul\":1668:1682   */\n              dup2\n              dup11\n              add\n                /* \"#utility.yul\":1664:1689   */\n              dup2\n              add\n                /* \"#utility.yul\":1658:1690   */\n              mload\n                /* \"#utility.yul\":1652:1655   */\n              0xc0\n                /* \"#utility.yul\":1633:1650   */\n              dup7\n              dup5\n              add\n                /* \"#utility.yul\":1629:1656   */\n              add\n                /* \"#utility.yul\":1622:1691   */\n              mstore\n                /* \"#utility.yul\":1585:1597   */\n              add\n                /* \"#utility.yul\":1556:1701   */\n              jump(tag_109)\n            tag_111:\n                /* \"#utility.yul\":1719:1725   */\n              dup2\n                /* \"#utility.yul\":1716:1717   */\n              dup2\n                /* \"#utility.yul\":1713:1726   */\n              gt\n                /* \"#utility.yul\":1710:1802   */\n              iszero\n              tag_112\n              jumpi\n                /* \"#utility.yul\":1790:1791   */\n              0x00\n                /* \"#utility.yul\":1784:1787   */\n              0xc0\n                /* \"#utility.yul\":1775:1781   */\n              dup4\n                /* \"#utility.yul\":1764:1773   */\n              dup7\n                /* \"#utility.yul\":1760:1782   */\n              add\n                /* \"#utility.yul\":1756:1788   */\n              add\n                /* \"#utility.yul\":1749:1792   */\n              mstore\n                /* \"#utility.yul\":1710:1802   */\n            tag_112:\n              pop\n                /* \"#utility.yul\":1905:1909   */\n              0x20\n                /* \"#utility.yul\":1890:1910   */\n              dup4\n              add\n                /* \"#utility.yul\":1883:1919   */\n              dup8\n              swap1\n              mstore\n                /* \"#utility.yul\":1863:1865   */\n              0x1f\n                /* \"#utility.yul\":1842:1857   */\n              add\n              not(0x1f)\n                /* \"#utility.yul\":1838:1867   */\n              and\n                /* \"#utility.yul\":1823:1868   */\n              dup3\n              add\n                /* \"#utility.yul\":1870:1873   */\n              0xc0\n                /* \"#utility.yul\":1819:1874   */\n              add\n              swap1\n              pop\n                /* \"#utility.yul\":1928:1974   */\n              tag_113\n                /* \"#utility.yul\":1970:1972   */\n              0x40\n                /* \"#utility.yul\":1955:1973   */\n              dup4\n              add\n                /* \"#utility.yul\":1947:1953   */\n              dup7\n              sub(shl(0xa0, 0x01), 0x01)\n                /* \"#utility.yul\":922:953   */\n              and\n                /* \"#utility.yul\":910:954   */\n              swap1\n              mstore\n                /* \"#utility.yul\":856:960   */\n              jump\n                /* \"#utility.yul\":1928:1974   */\n            tag_113:\n                /* \"#utility.yul\":638:651   */\n              swap3\n              iszero\n                /* \"#utility.yul\":631:652   */\n              iszero\n                /* \"#utility.yul\":2022:2024   */\n              0x60\n                /* \"#utility.yul\":2007:2025   */\n              dup3\n              add\n                /* \"#utility.yul\":619:653   */\n              mstore\n                /* \"#utility.yul\":2057:2060   */\n              0x80\n                /* \"#utility.yul\":2042:2061   */\n              add\n                /* \"#utility.yul\":2035:2070   */\n              mstore\n                /* \"#utility.yul\":1173:2076   */\n              swap4\n              swap3\n              pop\n              pop\n              pop\n              jump\t// out\n                /* \"#utility.yul\":2263:2390   */\n            tag_95:\n                /* \"#utility.yul\":2324:2334   */\n              0x4e487b71\n                /* \"#utility.yul\":2319:2322   */\n              0xe0\n                /* \"#utility.yul\":2315:2335   */\n              shl\n                /* \"#utility.yul\":2312:2313   */\n              0x00\n                /* \"#utility.yul\":2305:2336   */\n              mstore\n                /* \"#utility.yul\":2355:2359   */\n              0x41\n                /* \"#utility.yul\":2352:2353   */\n              0x04\n                /* \"#utility.yul\":2345:2360   */\n              mstore\n                /* \"#utility.yul\":2379:2383   */\n              0x24\n                /* \"#utility.yul\":2376:2377   */\n              0x00\n                /* \"#utility.yul\":2369:2384   */\n              revert\n                /* \"#utility.yul\":2395:3469   */\n            tag_43:\n                /* \"#utility.yul\":2482:2488   */\n              0x00\n                /* \"#utility.yul\":2490:2496   */\n              dup1\n                /* \"#utility.yul\":2498:2504   */\n              0x00\n                /* \"#utility.yul\":2551:2553   */\n              0x60\n                /* \"#utility.yul\":2539:2548   */\n              dup5\n                /* \"#utility.yul\":2530:2537   */\n              dup7\n                /* \"#utility.yul\":2526:2549   */\n              sub\n                /* \"#utility.yul\":2522:2554   */\n              slt\n                /* \"#utility.yul\":2519:2571   */\n              iszero\n              tag_118\n              jumpi\n                /* \"#utility.yul\":2567:2568   */\n              0x00\n                /* \"#utility.yul\":2564:2565   */\n              dup1\n                /* \"#utility.yul\":2557:2569   */\n              revert\n                /* \"#utility.yul\":2519:2571   */\n            tag_118:\n                /* \"#utility.yul\":2607:2616   */\n              dup4\n                /* \"#utility.yul\":2594:2617   */\n              calldataload\n                /* \"#utility.yul\":2636:2654   */\n              0xffffffffffffffff\n                /* \"#utility.yul\":2677:2679   */\n              dup1\n                /* \"#utility.yul\":2669:2675   */\n              dup3\n                /* \"#utility.yul\":2666:2680   */\n              gt\n                /* \"#utility.yul\":2663:2697   */\n              iszero\n              tag_119\n              jumpi\n                /* \"#utility.yul\":2693:2694   */\n              0x00\n                /* \"#utility.yul\":2690:2691   */\n              dup1\n                /* \"#utility.yul\":2683:2695   */\n              revert\n                /* \"#utility.yul\":2663:2697   */\n            tag_119:\n                /* \"#utility.yul\":2731:2737   */\n              dup2\n                /* \"#utility.yul\":2720:2729   */\n              dup7\n                /* \"#utility.yul\":2716:2738   */\n              add\n                /* \"#utility.yul\":2706:2738   */\n              swap2\n              pop\n                /* \"#utility.yul\":2776:2783   */\n              dup7\n                /* \"#utility.yul\":2769:2773   */\n              0x1f\n                /* \"#utility.yul\":2765:2767   */\n              dup4\n                /* \"#utility.yul\":2761:2774   */\n              add\n                /* \"#utility.yul\":2757:2784   */\n              slt\n                /* \"#utility.yul\":2747:2802   */\n              tag_120\n              jumpi\n                /* \"#utility.yul\":2798:2799   */\n              0x00\n                /* \"#utility.yul\":2795:2796   */\n              dup1\n                /* \"#utility.yul\":2788:2800   */\n              revert\n                /* \"#utility.yul\":2747:2802   */\n            tag_120:\n                /* \"#utility.yul\":2834:2836   */\n              dup2\n                /* \"#utility.yul\":2821:2837   */\n              calldataload\n                /* \"#utility.yul\":2856:2858   */\n              dup2\n                /* \"#utility.yul\":2852:2854   */\n              dup2\n                /* \"#utility.yul\":2849:2859   */\n              gt\n                /* \"#utility.yul\":2846:2882   */\n              iszero\n              tag_122\n              jumpi\n                /* \"#utility.yul\":2862:2880   */\n              tag_122\n              tag_95\n              jump\t// in\n            tag_122:\n                /* \"#utility.yul\":2937:2939   */\n              0x40\n                /* \"#utility.yul\":2931:2940   */\n              mload\n                /* \"#utility.yul\":2905:2907   */\n              0x1f\n                /* \"#utility.yul\":2991:3004   */\n              dup3\n              add\n              not(0x1f)\n                /* \"#utility.yul\":2987:3009   */\n              swap1\n              dup2\n              and\n                /* \"#utility.yul\":3011:3013   */\n              0x3f\n                /* \"#utility.yul\":2983:3014   */\n              add\n                /* \"#utility.yul\":2979:3019   */\n              and\n                /* \"#utility.yul\":2967:3020   */\n              dup2\n              add\n              swap1\n                /* \"#utility.yul\":3035:3053   */\n              dup4\n              dup3\n              gt\n                /* \"#utility.yul\":3055:3077   */\n              dup2\n              dup4\n              lt\n                /* \"#utility.yul\":3032:3078   */\n              or\n                /* \"#utility.yul\":3029:3101   */\n              iszero\n              tag_124\n              jumpi\n                /* \"#utility.yul\":3081:3099   */\n              tag_124\n              tag_95\n              jump\t// in\n            tag_124:\n                /* \"#utility.yul\":3121:3131   */\n              dup2\n                /* \"#utility.yul\":3117:3119   */\n              0x40\n                /* \"#utility.yul\":3110:3132   */\n              mstore\n                /* \"#utility.yul\":3156:3158   */\n              dup3\n                /* \"#utility.yul\":3148:3154   */\n              dup2\n                /* \"#utility.yul\":3141:3159   */\n              mstore\n                /* \"#utility.yul\":3198:3205   */\n              dup10\n                /* \"#utility.yul\":3191:3195   */\n              0x20\n                /* \"#utility.yul\":3186:3188   */\n              dup5\n                /* \"#utility.yul\":3182:3184   */\n              dup8\n                /* \"#utility.yul\":3178:3189   */\n              add\n                /* \"#utility.yul\":3174:3196   */\n              add\n                /* \"#utility.yul\":3171:3206   */\n              gt\n                /* \"#utility.yul\":3168:3223   */\n              iszero\n              tag_125\n              jumpi\n                /* \"#utility.yul\":3219:3220   */\n              0x00\n                /* \"#utility.yul\":3216:3217   */\n              dup1\n                /* \"#utility.yul\":3209:3221   */\n              revert\n                /* \"#utility.yul\":3168:3223   */\n            tag_125:\n                /* \"#utility.yul\":3279:3281   */\n              dup3\n                /* \"#utility.yul\":3272:3276   */\n              0x20\n                /* \"#utility.yul\":3268:3270   */\n              dup7\n                /* \"#utility.yul\":3264:3277   */\n              add\n                /* \"#utility.yul\":3257:3261   */\n              0x20\n                /* \"#utility.yul\":3249:3255   */\n              dup4\n                /* \"#utility.yul\":3245:3262   */\n              add\n                /* \"#utility.yul\":3232:3282   */\n              calldatacopy\n                /* \"#utility.yul\":3326:3327   */\n              0x00\n                /* \"#utility.yul\":3319:3323   */\n              0x20\n                /* \"#utility.yul\":3314:3316   */\n              dup5\n                /* \"#utility.yul\":3306:3312   */\n              dup4\n                /* \"#utility.yul\":3302:3317   */\n              add\n                /* \"#utility.yul\":3298:3324   */\n              add\n                /* \"#utility.yul\":3291:3328   */\n              mstore\n                /* \"#utility.yul\":3347:3353   */\n              dup1\n                /* \"#utility.yul\":3337:3353   */\n              swap8\n              pop\n              pop\n              pop\n              pop\n              pop\n              pop\n                /* \"#utility.yul\":3400:3404   */\n              0x20\n                /* \"#utility.yul\":3389:3398   */\n              dup5\n                /* \"#utility.yul\":3385:3405   */\n              add\n                /* \"#utility.yul\":3372:3406   */\n              calldataload\n                /* \"#utility.yul\":3362:3406   */\n              swap2\n              pop\n                /* \"#utility.yul\":3425:3463   */\n              tag_126\n                /* \"#utility.yul\":3459:3461   */\n              0x40\n                /* \"#utility.yul\":3448:3457   */\n              dup6\n                /* \"#utility.yul\":3444:3462   */\n              add\n                /* \"#utility.yul\":3425:3463   */\n              tag_92\n              jump\t// in\n            tag_126:\n                /* \"#utility.yul\":3415:3463   */\n              swap1\n              pop\n                /* \"#utility.yul\":2395:3469   */\n              swap3\n              pop\n              swap3\n              pop\n              swap3\n              jump\t// out\n                /* \"#utility.yul\":3474:3691   */\n            tag_60:\n                /* \"#utility.yul\":3514:3515   */\n              0x00\n                /* \"#utility.yul\":3540:3541   */\n              dup3\n                /* \"#utility.yul\":3530:3662   */\n              tag_128\n              jumpi\n                /* \"#utility.yul\":3584:3594   */\n              0x4e487b71\n                /* \"#utility.yul\":3579:3582   */\n              0xe0\n                /* \"#utility.yul\":3575:3595   */\n              shl\n                /* \"#utility.yul\":3572:3573   */\n              0x00\n                /* \"#utility.yul\":3565:3596   */\n              mstore\n                /* \"#utility.yul\":3619:3623   */\n              0x12\n                /* \"#utility.yul\":3616:3617   */\n              0x04\n                /* \"#utility.yul\":3609:3624   */\n              mstore\n                /* \"#utility.yul\":3647:3651   */\n              0x24\n                /* \"#utility.yul\":3644:3645   */\n              0x00\n                /* \"#utility.yul\":3637:3652   */\n              revert\n                /* \"#utility.yul\":3530:3662   */\n            tag_128:\n              pop\n                /* \"#utility.yul\":3676:3685   */\n              div\n              swap1\n                /* \"#utility.yul\":3474:3691   */\n              jump\t// out\n                /* \"#utility.yul\":3696:4076   */\n            tag_65:\n                /* \"#utility.yul\":3775:3776   */\n              0x01\n                /* \"#utility.yul\":3771:3783   */\n              dup2\n              dup2\n              shr\n              swap1\n                /* \"#utility.yul\":3818:3830   */\n              dup3\n              and\n              dup1\n                /* \"#utility.yul\":3839:3900   */\n              tag_130\n              jumpi\n                /* \"#utility.yul\":3893:3897   */\n              0x7f\n                /* \"#utility.yul\":3885:3891   */\n              dup3\n                /* \"#utility.yul\":3881:3898   */\n              and\n                /* \"#utility.yul\":3871:3898   */\n              swap2\n              pop\n                /* \"#utility.yul\":3839:3900   */\n            tag_130:\n                /* \"#utility.yul\":3946:3948   */\n              0x20\n                /* \"#utility.yul\":3938:3944   */\n              dup3\n                /* \"#utility.yul\":3935:3949   */\n              lt\n                /* \"#utility.yul\":3915:3933   */\n              dup2\n                /* \"#utility.yul\":3912:3950   */\n              eq\n                /* \"#utility.yul\":3909:4070   */\n              iszero\n              tag_131\n              jumpi\n                /* \"#utility.yul\":3992:4002   */\n              0x4e487b71\n                /* \"#utility.yul\":3987:3990   */\n              0xe0\n                /* \"#utility.yul\":3983:4003   */\n              shl\n                /* \"#utility.yul\":3980:3981   */\n              0x00\n                /* \"#utility.yul\":3973:4004   */\n              mstore\n                /* \"#utility.yul\":4027:4031   */\n              0x22\n                /* \"#utility.yul\":4024:4025   */\n              0x04\n                /* \"#utility.yul\":4017:4032   */\n              mstore\n                /* \"#utility.yul\":4055:4059   */\n              0x24\n                /* \"#utility.yul\":4052:4053   */\n              0x00\n                /* \"#utility.yul\":4045:4060   */\n              revert\n                /* \"#utility.yul\":3909:4070   */\n            tag_131:\n              pop\n                /* \"#utility.yul\":3696:4076   */\n              swap2\n              swap1\n              pop\n              jump\t// out\n                /* \"#utility.yul\":4081:4313   */\n            tag_72:\n                /* \"#utility.yul\":4120:4123   */\n              0x00\n              not(0x00)\n                /* \"#utility.yul\":4141:4158   */\n              dup3\n              eq\n                /* \"#utility.yul\":4138:4278   */\n              iszero\n              tag_133\n              jumpi\n                /* \"#utility.yul\":4200:4210   */\n              0x4e487b71\n                /* \"#utility.yul\":4195:4198   */\n              0xe0\n                /* \"#utility.yul\":4191:4211   */\n              shl\n                /* \"#utility.yul\":4188:4189   */\n              0x00\n                /* \"#utility.yul\":4181:4212   */\n              mstore\n                /* \"#utility.yul\":4235:4239   */\n              0x11\n                /* \"#utility.yul\":4232:4233   */\n              0x04\n                /* \"#utility.yul\":4225:4240   */\n              mstore\n                /* \"#utility.yul\":4263:4267   */\n              0x24\n                /* \"#utility.yul\":4260:4261   */\n              0x00\n                /* \"#utility.yul\":4253:4268   */\n              revert\n                /* \"#utility.yul\":4138:4278   */\n            tag_133:\n              pop\n                /* \"#utility.yul\":4305:4306   */\n              0x01\n                /* \"#utility.yul\":4294:4307   */\n              add\n              swap1\n                /* \"#utility.yul\":4081:4313   */\n              jump\t// out\n\n            auxdata: 0xa26469706673582212205a8e0b5003393988eef796e10e8931531bc4e9b46b2cec7481c29c3dcbd3a0b964736f6c634300080b0033\n        }\n    }\n\n    auxdata: 0xa2646970667358221220b8b1cb89cfff1d7e42d0ecb5f66133f2a594c76cc90ee2ef6e0f0926c3658e6764736f6c634300080b0033\n}\n",
    "bytecode": {
      "linkReferences": {},
      "object": "608060405234801561001057600080fd5b50610a99806100206000396000f3fe608060405234801561001057600080fd5b50600436106100415760003560e01c8063339d50a514610046578063a3303a7514610076578063b2b318281461008b575b600080fd5b6100596100543660046101cb565b6100a0565b6040516001600160a01b0390911681526020015b60405180910390f35b6100896100843660046101cb565b6100ca565b005b61009361015c565b60405161006d91906101e4565b600081815481106100b057600080fd5b6000918252602090912001546001600160a01b0316905081565b600081336040516100da906101be565b9182526001600160a01b03166020820152604001604051809103906000f08015801561010a573d6000803e3d6000fd5b50600080546001810182559080527f290decd9548b62a8d60345a988386fc84ba6bc95484008f6362f93160ef3e5630180546001600160a01b0319166001600160a01b03929092169190911790555050565b606060008054806020026020016040519081016040528092919081815260200182805480156101b457602002820191906000526020600020905b81546001600160a01b03168152600190910190602001808311610196575b5050505050905090565b6108328061023283390190565b6000602082840312156101dd57600080fd5b5035919050565b6020808252825182820181905260009190848201906040850190845b818110156102255783516001600160a01b031683529284019291840191600101610200565b5090969550505050505056fe608060405234801561001057600080fd5b5060405161083238038061083283398101604081905261002f91610057565b600280546001600160a01b0319166001600160a01b0392909216919091179055600355610094565b6000806040838503121561006a57600080fd5b825160208401519092506001600160a01b038116811461008957600080fd5b809150509250929050565b61078f806100a36000396000f3fe6080604052600436106100865760003560e01c806382fde0931161005957806382fde0931461015b5780638a9cfd551461017f578063937e09b11461019f578063d7bb99ba146101b5578063d7d1bbdb146101bd57600080fd5b8063034410061461008b5780630a144391146100ad578063481c6a75146100f257806381d12c581461012a575b600080fd5b34801561009757600080fd5b506100ab6100a636600461051d565b6101dd565b005b3480156100b957600080fd5b506100dd6100c8366004610552565b60046020526000908152604090205460ff1681565b60405190151581526020015b60405180910390f35b3480156100fe57600080fd5b50600254610112906001600160a01b031681565b6040516001600160a01b0390911681526020016100e9565b34801561013657600080fd5b5061014a61014536600461051d565b610291565b6040516100e9959493929190610574565b34801561016757600080fd5b5061017160055481565b6040519081526020016100e9565b34801561018b57600080fd5b506100ab61019a366004610608565b610358565b3480156101ab57600080fd5b5061017160035481565b6100ab6103ca565b3480156101c957600080fd5b506100ab6101d836600461051d565b610407565b6002546001600160a01b031633146101f457600080fd5b60008181526001602052604090206002810154600160a01b900460ff161561021b57600080fd5b600260055461022a91906106d3565b81600301541161023957600080fd5b600281015460018201546040516001600160a01b039092169181156108fc0291906000818181858888f19350505050158015610279573d6000803e3d6000fd5b50600201805460ff60a01b1916600160a01b17905550565b6001602052600090815260409020805481906102ac906106f5565b80601f01602080910402602001604051908101604052809291908181526020018280546102d8906106f5565b80156103255780601f106102fa57610100808354040283529160200191610325565b820191906000526020600020905b81548152906001019060200180831161030857829003601f168201915b5050505060018301546002840154600390940154929390926001600160a01b0382169250600160a01b90910460ff169085565b600080546001908290818061036c83610730565b909155508152602080820192909252604001600020855190925061039591839190870190610484565b5060018101929092556002820180546001600160a81b0319166001600160a01b03909216919091179055600060039091015550565b60035434116103d857600080fd5b336000908152600460205260408120805460ff19166001179055600580549161040083610730565b9190505550565b600081815260016020908152604080832033845260049092529091205460ff1661043057600080fd5b33600090815260048201602052604090205460ff161561044f57600080fd5b3360009081526004820160205260408120805460ff191660011790556003820180549161047b83610730565b91905055505050565b828054610490906106f5565b90600052602060002090601f0160209004810192826104b257600085556104f8565b82601f106104cb57805160ff19168380011785556104f8565b828001600101855582156104f8579182015b828111156104f85782518255916020019190600101906104dd565b50610504929150610508565b5090565b5b808211156105045760008155600101610509565b60006020828403121561052f57600080fd5b5035919050565b80356001600160a01b038116811461054d57600080fd5b919050565b60006020828403121561056457600080fd5b61056d82610536565b9392505050565b60a08152600086518060a084015260005b818110156105a2576020818a0181015160c0868401015201610585565b818111156105b457600060c083860101525b5060208301879052601f01601f1916820160c00190506105df60408301866001600160a01b03169052565b9215156060820152608001529392505050565b634e487b7160e01b600052604160045260246000fd5b60008060006060848603121561061d57600080fd5b833567ffffffffffffffff8082111561063557600080fd5b818601915086601f83011261064957600080fd5b81358181111561065b5761065b6105f2565b604051601f8201601f19908116603f01168101908382118183101715610683576106836105f2565b8160405282815289602084870101111561069c57600080fd5b826020860160208301376000602084830101528097505050505050602084013591506106ca60408501610536565b90509250925092565b6000826106f057634e487b7160e01b600052601260045260246000fd5b500490565b600181811c9082168061070957607f821691505b6020821081141561072a57634e487b7160e01b600052602260045260246000fd5b50919050565b600060001982141561075257634e487b7160e01b600052601160045260246000fd5b506001019056fea26469706673582212205a8e0b5003393988eef796e10e8931531bc4e9b46b2cec7481c29c3dcbd3a0b964736f6c634300080b0033a2646970667358221220b8b1cb89cfff1d7e42d0ecb5f66133f2a594c76cc90ee2ef6e0f0926c3658e6764736f6c634300080b0033",
      "opcodes": "PUSH1 0x80 PUSH1 0x40 MSTORE CALLVALUE DUP1 ISZERO PUSH2 0x10 JUMPI PUSH1 0x0 DUP1 REVERT JUMPDEST POP PUSH2 0xA99 DUP1 PUSH2 0x20 PUSH1 0x0 CODECOPY PUSH1 0x0 RETURN INVALID PUSH1 0x80 PUSH1 0x40 MSTORE CALLVALUE DUP1 ISZERO PUSH2 0x10 JUMPI PUSH1 0x0 DUP1 REVERT JUMPDEST POP PUSH1 0x4 CALLDATASIZE LT PUSH2 0x41 JUMPI PUSH1 0x0 CALLDATALOAD PUSH1 0xE0 SHR DUP1 PUSH4 0x339D50A5 EQ PUSH2 0x46 JUMPI DUP1 PUSH4 0xA3303A75 EQ PUSH2 0x76 JUMPI DUP1 PUSH4 0xB2B31828 EQ PUSH2 0x8B JUMPI JUMPDEST PUSH1 0x0 DUP1 REVERT JUMPDEST PUSH2 0x59 PUSH2 0x54 CALLDATASIZE PUSH1 0x4 PUSH2 0x1CB JUMP JUMPDEST PUSH2 0xA0 JUMP JUMPDEST PUSH1 0x40 MLOAD PUSH1 0x1 PUSH1 0x1 PUSH1 0xA0 SHL SUB SWAP1 SWAP2 AND DUP2 MSTORE PUSH1 0x20 ADD JUMPDEST PUSH1 0x40 MLOAD DUP1 SWAP2 SUB SWAP1 RETURN JUMPDEST PUSH2 0x89 PUSH2 0x84 CALLDATASIZE PUSH1 0x4 PUSH2 0x1CB JUMP JUMPDEST PUSH2 0xCA JUMP JUMPDEST STOP JUMPDEST PUSH2 0x93 PUSH2 0x15C JUMP JUMPDEST PUSH1 0x40 MLOAD PUSH2 0x6D SWAP2 SWAP1 PUSH2 0x1E4 JUMP JUMPDEST PUSH1 0x0 DUP2 DUP2 SLOAD DUP2 LT PUSH2 0xB0 JUMPI PUSH1 0x0 DUP1 REVERT JUMPDEST PUSH1 0x0 SWAP2 DUP3 MSTORE PUSH1 0x20 SWAP1 SWAP2 KECCAK256 ADD SLOAD PUSH1 0x1 PUSH1 0x1 PUSH1 0xA0 SHL SUB AND SWAP1 POP DUP2 JUMP JUMPDEST PUSH1 0x0 DUP2 CALLER PUSH1 0x40 MLOAD PUSH2 0xDA SWAP1 PUSH2 0x1BE JUMP JUMPDEST SWAP2 DUP3 MSTORE PUSH1 0x1 PUSH1 0x1 PUSH1 0xA0 SHL SUB AND PUSH1 0x20 DUP3 ADD MSTORE PUSH1 0x40 ADD PUSH1 0x40 MLOAD DUP1 SWAP2 SUB SWAP1 PUSH1 0x0 CREATE DUP1 ISZERO DUP1 ISZERO PUSH2 0x10A JUMPI RETURNDATASIZE PUSH1 0x0 DUP1 RETURNDATACOPY RETURNDATASIZE PUSH1 0x0 REVERT JUMPDEST POP PUSH1 0x0 DUP1 SLOAD PUSH1 0x1 DUP2 ADD DUP3 SSTORE SWAP1 DUP1 MSTORE PUSH32 0x290DECD9548B62A8D60345A988386FC84BA6BC95484008F6362F93160EF3E563 ADD DUP1 SLOAD PUSH1 0x1 PUSH1 0x1 PUSH1 0xA0 SHL SUB NOT AND PUSH1 0x1 PUSH1 0x1 PUSH1 0xA0 SHL SUB SWAP3 SWAP1 SWAP3 AND SWAP2 SWAP1 SWAP2 OR SWAP1 SSTORE POP POP JUMP JUMPDEST PUSH1 0x60 PUSH1 0x0 DUP1 SLOAD DUP1 PUSH1 0x20 MUL PUSH1 0x20 ADD PUSH1 0x40 MLOAD SWAP1 DUP2 ADD PUSH1 0x40 MSTORE DUP1 SWAP3 SWAP2 SWAP1 DUP2 DUP2 MSTORE PUSH1 0x20 ADD DUP3 DUP1 SLOAD DUP1 ISZERO PUSH2 0x1B4 JUMPI PUSH1 0x20 MUL DUP3 ADD SWAP2 SWAP1 PUSH1 0x0 MSTORE PUSH1 0x20 PUSH1 0x0 KECCAK256 SWAP1 JUMPDEST DUP2 SLOAD PUSH1 0x1 PUSH1 0x1 PUSH1 0xA0 SHL SUB AND DUP2 MSTORE PUSH1 0x1 SWAP1 SWAP2 ADD SWAP1 PUSH1 0x20 ADD DUP1 DUP4 GT PUSH2 0x196 JUMPI JUMPDEST POP POP POP POP POP SWAP1 POP SWAP1 JUMP JUMPDEST PUSH2 0x832 DUP1 PUSH2 0x232 DUP4 CODECOPY ADD SWAP1 JUMP JUMPDEST PUSH1 0x0 PUSH1 0x20 DUP3 DUP5 SUB SLT ISZERO PUSH2 0x1DD JUMPI PUSH1 0x0 DUP1 REVERT JUMPDEST POP CALLDATALOAD SWAP2 SWAP1 POP JUMP JUMPDEST PUSH1 0x20 DUP1 DUP3 MSTORE DUP3 MLOAD DUP3 DUP3 ADD DUP2 SWAP1 MSTORE PUSH1 0x0 SWAP2 SWAP1 DUP5 DUP3 ADD SWAP1 PUSH1 0x40 DUP6 ADD SWAP1 DUP5 JUMPDEST DUP2 DUP2 LT ISZERO PUSH2 0x225 JUMPI DUP4 MLOAD PUSH1 0x1 PUSH1 0x1 PUSH1 0xA0 SHL SUB AND DUP4 MSTORE SWAP3 DUP5 ADD SWAP3 SWAP2 DUP5 ADD SWAP2 PUSH1 0x1 ADD PUSH2 0x200 JUMP JUMPDEST POP SWAP1 SWAP7 SWAP6 POP POP POP POP POP POP JUMP INVALID PUSH1 0x80 PUSH1 0x40 MSTORE CALLVALUE DUP1 ISZERO PUSH2 0x10 JUMPI PUSH1 0x0 DUP1 REVERT JUMPDEST POP PUSH1 0x40 MLOAD PUSH2 0x832 CODESIZE SUB DUP1 PUSH2 0x832 DUP4 CODECOPY DUP2 ADD PUSH1 0x40 DUP2 SWAP1 MSTORE PUSH2 0x2F SWAP2 PUSH2 0x57 JUMP JUMPDEST PUSH1 0x2 DUP1 SLOAD PUSH1 0x1 PUSH1 0x1 PUSH1 0xA0 SHL SUB NOT AND PUSH1 0x1 PUSH1 0x1 PUSH1 0xA0 SHL SUB SWAP3 SWAP1 SWAP3 AND SWAP2 SWAP1 SWAP2 OR SWAP1 SSTORE PUSH1 0x3 SSTORE PUSH2 0x94 JUMP JUMPDEST PUSH1 0x0 DUP1 PUSH1 0x40 DUP4 DUP6 SUB SLT ISZERO PUSH2 0x6A JUMPI PUSH1 0x0 DUP1 REVERT JUMPDEST DUP3 MLOAD PUSH1 0x20 DUP5 ADD MLOAD SWAP1 SWAP3 POP PUSH1 0x1 PUSH1 0x1 PUSH1 0xA0 SHL SUB DUP2 AND DUP2 EQ PUSH2 0x89 JUMPI PUSH1 0x0 DUP1 REVERT JUMPDEST DUP1 SWAP2 POP POP SWAP3 POP SWAP3 SWAP1 POP JUMP JUMPDEST PUSH2 0x78F DUP1 PUSH2 0xA3 PUSH1 0x0 CODECOPY PUSH1 0x0 RETURN INVALID PUSH1 0x80 PUSH1 0x40 MSTORE PUSH1 0x4 CALLDATASIZE LT PUSH2 0x86 JUMPI PUSH1 0x0 CALLDATALOAD PUSH1 0xE0 SHR DUP1 PUSH4 0x82FDE093 GT PUSH2 0x59 JUMPI DUP1 PUSH4 0x82FDE093 EQ PUSH2 0x15B JUMPI DUP1 PUSH4 0x8A9CFD55 EQ PUSH2 0x17F JUMPI DUP1 PUSH4 0x937E09B1 EQ PUSH2 0x19F JUMPI DUP1 PUSH4 0xD7BB99BA EQ PUSH2 0x1B5 JUMPI DUP1 PUSH4 0xD7D1BBDB EQ PUSH2 0x1BD JUMPI PUSH1 0x0 DUP1 REVERT JUMPDEST DUP1 PUSH4 0x3441006 EQ PUSH2 0x8B JUMPI DUP1 PUSH4 0xA144391 EQ PUSH2 0xAD JUMPI DUP1 PUSH4 0x481C6A75 EQ PUSH2 0xF2 JUMPI DUP1 PUSH4 0x81D12C58 EQ PUSH2 0x12A JUMPI JUMPDEST PUSH1 0x0 DUP1 REVERT JUMPDEST CALLVALUE DUP1 ISZERO PUSH2 0x97 JUMPI PUSH1 0x0 DUP1 REVERT JUMPDEST POP PUSH2 0xAB PUSH2 0xA6 CALLDATASIZE PUSH1 0x4 PUSH2 0x51D JUMP JUMPDEST PUSH2 0x1DD JUMP JUMPDEST STOP JUMPDEST CALLVALUE DUP1 ISZERO PUSH2 0xB9 JUMPI PUSH1 0x0 DUP1 REVERT JUMPDEST POP PUSH2 0xDD PUSH2 0xC8 CALLDATASIZE PUSH1 0x4 PUSH2 0x552 JUMP JUMPDEST PUSH1 0x4 PUSH1 0x20 MSTORE PUSH1 0x0 SWAP1 DUP2 MSTORE PUSH1 0x40 SWAP1 KECCAK256 SLOAD PUSH1 0xFF AND DUP2 JUMP JUMPDEST PUSH1 0x40 MLOAD SWAP1 ISZERO ISZERO DUP2 MSTORE PUSH1 0x20 ADD JUMPDEST PUSH1 0x40 MLOAD DUP1 SWAP2 SUB SWAP1 RETURN JUMPDEST CALLVALUE DUP1 ISZERO PUSH2 0xFE JUMPI PUSH1 0x0 DUP1 REVERT JUMPDEST POP PUSH1 0x2 SLOAD PUSH2 0x112 SWAP1 PUSH1 0x1 PUSH1 0x1 PUSH1 0xA0 SHL SUB AND DUP2 JUMP JUMPDEST PUSH1 0x40 MLOAD PUSH1 0x1 PUSH1 0x1 PUSH1 0xA0 SHL SUB SWAP1 SWAP2 AND DUP2 MSTORE PUSH1 0x20 ADD PUSH2 0xE9 JUMP JUMPDEST CALLVALUE DUP1 ISZERO PUSH2 0x136 JUMPI PUSH1 0x0 DUP1 REVERT JUMPDEST POP PUSH2 0x14A PUSH2 0x145 CALLDATASIZE PUSH1 0x4 PUSH2 0x51D JUMP JUMPDEST PUSH2 0x291 JUMP JUMPDEST PUSH1 0x40 MLOAD PUSH2 0xE9 SWAP6 SWAP5 SWAP4 SWAP3 SWAP2 SWAP1 PUSH2 0x574 JUMP JUMPDEST CALLVALUE DUP1 ISZERO PUSH2 0x167 JUMPI PUSH1 0x0 DUP1 REVERT JUMPDEST POP PUSH2 0x171 PUSH1 0x5 SLOAD DUP2 JUMP JUMPDEST PUSH1 0x40 MLOAD SWAP1 DUP2 MSTORE PUSH1 0x20 ADD PUSH2 0xE9 JUMP JUMPDEST CALLVALUE DUP1 ISZERO PUSH2 0x18B JUMPI PUSH1 0x0 DUP1 REVERT JUMPDEST POP PUSH2 0xAB PUSH2 0x19A CALLDATASIZE PUSH1 0x4 PUSH2 0x608 JUMP JUMPDEST PUSH2 0x358 JUMP JUMPDEST CALLVALUE DUP1 ISZERO PUSH2 0x1AB JUMPI PUSH1 0x0 DUP1 REVERT JUMPDEST POP PUSH2 0x171 PUSH1 0x3 SLOAD DUP2 JUMP JUMPDEST PUSH2 0xAB PUSH2 0x3CA JUMP JUMPDEST CALLVALUE DUP1 ISZERO PUSH2 0x1C9 JUMPI PUSH1 0x0 DUP1 REVERT JUMPDEST POP PUSH2 0xAB PUSH2 0x1D8 CALLDATASIZE PUSH1 0x4 PUSH2 0x51D JUMP JUMPDEST PUSH2 0x407 JUMP JUMPDEST PUSH1 0x2 SLOAD PUSH1 0x1 PUSH1 0x1 PUSH1 0xA0 SHL SUB AND CALLER EQ PUSH2 0x1F4 JUMPI PUSH1 0x0 DUP1 REVERT JUMPDEST PUSH1 0x0 DUP2 DUP2 MSTORE PUSH1 0x1 PUSH1 0x20 MSTORE PUSH1 0x40 SWAP1 KECCAK256 PUSH1 0x2 DUP2 ADD SLOAD PUSH1 0x1 PUSH1 0xA0 SHL SWAP1 DIV PUSH1 0xFF AND ISZERO PUSH2 0x21B JUMPI PUSH1 0x0 DUP1 REVERT JUMPDEST PUSH1 0x2 PUSH1 0x5 SLOAD PUSH2 0x22A SWAP2 SWAP1 PUSH2 0x6D3 JUMP JUMPDEST DUP2 PUSH1 0x3 ADD SLOAD GT PUSH2 0x239 JUMPI PUSH1 0x0 DUP1 REVERT JUMPDEST PUSH1 0x2 DUP2 ADD SLOAD PUSH1 0x1 DUP3 ADD SLOAD PUSH1 0x40 MLOAD PUSH1 0x1 PUSH1 0x1 PUSH1 0xA0 SHL SUB SWAP1 SWAP3 AND SWAP2 DUP2 ISZERO PUSH2 0x8FC MUL SWAP2 SWAP1 PUSH1 0x0 DUP2 DUP2 DUP2 DUP6 DUP9 DUP9 CALL SWAP4 POP POP POP POP ISZERO DUP1 ISZERO PUSH2 0x279 JUMPI RETURNDATASIZE PUSH1 0x0 DUP1 RETURNDATACOPY RETURNDATASIZE PUSH1 0x0 REVERT JUMPDEST POP PUSH1 0x2 ADD DUP1 SLOAD PUSH1 0xFF PUSH1 0xA0 SHL NOT AND PUSH1 0x1 PUSH1 0xA0 SHL OR SWAP1 SSTORE POP JUMP JUMPDEST PUSH1 0x1 PUSH1 0x20 MSTORE PUSH1 0x0 SWAP1 DUP2 MSTORE PUSH1 0x40 SWAP1 KECCAK256 DUP1 SLOAD DUP2 SWAP1 PUSH2 0x2AC SWAP1 PUSH2 0x6F5 JUMP JUMPDEST DUP1 PUSH1 0x1F ADD PUSH1 0x20 DUP1 SWAP2 DIV MUL PUSH1 0x20 ADD PUSH1 0x40 MLOAD SWAP1 DUP2 ADD PUSH1 0x40 MSTORE DUP1 SWAP3 SWAP2 SWAP1 DUP2 DUP2 MSTORE PUSH1 0x20 ADD DUP3 DUP1 SLOAD PUSH2 0x2D8 SWAP1 PUSH2 0x6F5 JUMP JUMPDEST DUP1 ISZERO PUSH2 0x325 JUMPI DUP1 PUSH1 0x1F LT PUSH2 0x2FA JUMPI PUSH2 0x100 DUP1 DUP4 SLOAD DIV MUL DUP4 MSTORE SWAP2 PUSH1 0x20 ADD SWAP2 PUSH2 0x325 JUMP JUMPDEST DUP3 ADD SWAP2 SWAP1 PUSH1 0x0 MSTORE PUSH1 0x20 PUSH1 0x0 KECCAK256 SWAP1 JUMPDEST DUP2 SLOAD DUP2 MSTORE SWAP1 PUSH1 0x1 ADD SWAP1 PUSH1 0x20 ADD DUP1 DUP4 GT PUSH2 0x308 JUMPI DUP3 SWAP1 SUB PUSH1 0x1F AND DUP3 ADD SWAP2 JUMPDEST POP POP POP POP PUSH1 0x1 DUP4 ADD SLOAD PUSH1 0x2 DUP5 ADD SLOAD PUSH1 0x3 SWAP1 SWAP5 ADD SLOAD SWAP3 SWAP4 SWAP1 SWAP3 PUSH1 0x1 PUSH1 0x1 PUSH1 0xA0 SHL SUB DUP3 AND SWAP3 POP PUSH1 0x1 PUSH1 0xA0 SHL SWAP1 SWAP2 DIV PUSH1 0xFF AND SWAP1 DUP6 JUMP JUMPDEST PUSH1 0x0 DUP1 SLOAD PUSH1 0x1 SWAP1 DUP3 SWAP1 DUP2 DUP1 PUSH2 0x36C DUP4 PUSH2 0x730 JUMP JUMPDEST SWAP1 SWAP2 SSTORE POP DUP2 MSTORE PUSH1 0x20 DUP1 DUP3 ADD SWAP3 SWAP1 SWAP3 MSTORE PUSH1 0x40 ADD PUSH1 0x0 KECCAK256 DUP6 MLOAD SWAP1 SWAP3 POP PUSH2 0x395 SWAP2 DUP4 SWAP2 SWAP1 DUP8 ADD SWAP1 PUSH2 0x484 JUMP JUMPDEST POP PUSH1 0x1 DUP2 ADD SWAP3 SWAP1 SWAP3 SSTORE PUSH1 0x2 DUP3 ADD DUP1 SLOAD PUSH1 0x1 PUSH1 0x1 PUSH1 0xA8 SHL SUB NOT AND PUSH1 0x1 PUSH1 0x1 PUSH1 0xA0 SHL SUB SWAP1 SWAP3 AND SWAP2 SWAP1 SWAP2 OR SWAP1 SSTORE PUSH1 0x0 PUSH1 0x3 SWAP1 SWAP2 ADD SSTORE POP JUMP JUMPDEST PUSH1 0x3 SLOAD CALLVALUE GT PUSH2 0x3D8 JUMPI PUSH1 0x0 DUP1 REVERT JUMPDEST CALLER PUSH1 0x0 SWAP1 DUP2 MSTORE PUSH1 0x4 PUSH1 0x20 MSTORE PUSH1 0x40 DUP2 KECCAK256 DUP1 SLOAD PUSH1 0xFF NOT AND PUSH1 0x1 OR SWAP1 SSTORE PUSH1 0x5 DUP1 SLOAD SWAP2 PUSH2 0x400 DUP4 PUSH2 0x730 JUMP JUMPDEST SWAP2 SWAP1 POP SSTORE POP JUMP JUMPDEST PUSH1 0x0 DUP2 DUP2 MSTORE PUSH1 0x1 PUSH1 0x20 SWAP1 DUP2 MSTORE PUSH1 0x40 DUP1 DUP4 KECCAK256 CALLER DUP5 MSTORE PUSH1 0x4 SWAP1 SWAP3 MSTORE SWAP1 SWAP2 KECCAK256 SLOAD PUSH1 0xFF AND PUSH2 0x430 JUMPI PUSH1 0x0 DUP1 REVERT JUMPDEST CALLER PUSH1 0x0 SWAP1 DUP2 MSTORE PUSH1 0x4 DUP3 ADD PUSH1 0x20 MSTORE PUSH1 0x40 SWAP1 KECCAK256 SLOAD PUSH1 0xFF AND ISZERO PUSH2 0x44F JUMPI PUSH1 0x0 DUP1 REVERT JUMPDEST CALLER PUSH1 0x0 SWAP1 DUP2 MSTORE PUSH1 0x4 DUP3 ADD PUSH1 0x20 MSTORE PUSH1 0x40 DUP2 KECCAK256 DUP1 SLOAD PUSH1 0xFF NOT AND PUSH1 0x1 OR SWAP1 SSTORE PUSH1 0x3 DUP3 ADD DUP1 SLOAD SWAP2 PUSH2 0x47B DUP4 PUSH2 0x730 JUMP JUMPDEST SWAP2 SWAP1 POP SSTORE POP POP POP JUMP JUMPDEST DUP3 DUP1 SLOAD PUSH2 0x490 SWAP1 PUSH2 0x6F5 JUMP JUMPDEST SWAP1 PUSH1 0x0 MSTORE PUSH1 0x20 PUSH1 0x0 KECCAK256 SWAP1 PUSH1 0x1F ADD PUSH1 0x20 SWAP1 DIV DUP2 ADD SWAP3 DUP3 PUSH2 0x4B2 JUMPI PUSH1 0x0 DUP6 SSTORE PUSH2 0x4F8 JUMP JUMPDEST DUP3 PUSH1 0x1F LT PUSH2 0x4CB JUMPI DUP1 MLOAD PUSH1 0xFF NOT AND DUP4 DUP1 ADD OR DUP6 SSTORE PUSH2 0x4F8 JUMP JUMPDEST DUP3 DUP1 ADD PUSH1 0x1 ADD DUP6 SSTORE DUP3 ISZERO PUSH2 0x4F8 JUMPI SWAP2 DUP3 ADD JUMPDEST DUP3 DUP2 GT ISZERO PUSH2 0x4F8 JUMPI DUP3 MLOAD DUP3 SSTORE SWAP2 PUSH1 0x20 ADD SWAP2 SWAP1 PUSH1 0x1 ADD SWAP1 PUSH2 0x4DD JUMP JUMPDEST POP PUSH2 0x504 SWAP3 SWAP2 POP PUSH2 0x508 JUMP JUMPDEST POP SWAP1 JUMP JUMPDEST JUMPDEST DUP1 DUP3 GT ISZERO PUSH2 0x504 JUMPI PUSH1 0x0 DUP2 SSTORE PUSH1 0x1 ADD PUSH2 0x509 JUMP JUMPDEST PUSH1 0x0 PUSH1 0x20 DUP3 DUP5 SUB SLT ISZERO PUSH2 0x52F JUMPI PUSH1 0x0 DUP1 REVERT JUMPDEST POP CALLDATALOAD SWAP2 SWAP1 POP JUMP JUMPDEST DUP1 CALLDATALOAD PUSH1 0x1 PUSH1 0x1 PUSH1 0xA0 SHL SUB DUP2 AND DUP2 EQ PUSH2 0x54D JUMPI PUSH1 0x0 DUP1 REVERT JUMPDEST SWAP2 SWAP1 POP JUMP JUMPDEST PUSH1 0x0 PUSH1 0x20 DUP3 DUP5 SUB SLT ISZERO PUSH2 0x564 JUMPI PUSH1 0x0 DUP1 REVERT JUMPDEST PUSH2 0x56D DUP3 PUSH2 0x536 JUMP JUMPDEST SWAP4 SWAP3 POP POP POP JUMP JUMPDEST PUSH1 0xA0 DUP2 MSTORE PUSH1 0x0 DUP7 MLOAD DUP1 PUSH1 0xA0 DUP5 ADD MSTORE PUSH1 0x0 JUMPDEST DUP2 DUP2 LT ISZERO PUSH2 0x5A2 JUMPI PUSH1 0x20 DUP2 DUP11 ADD DUP2 ADD MLOAD PUSH1 0xC0 DUP7 DUP5 ADD ADD MSTORE ADD PUSH2 0x585 JUMP JUMPDEST DUP2 DUP2 GT ISZERO PUSH2 0x5B4 JUMPI PUSH1 0x0 PUSH1 0xC0 DUP4 DUP7 ADD ADD MSTORE JUMPDEST POP PUSH1 0x20 DUP4 ADD DUP8 SWAP1 MSTORE PUSH1 0x1F ADD PUSH1 0x1F NOT AND DUP3 ADD PUSH1 0xC0 ADD SWAP1 POP PUSH2 0x5DF PUSH1 0x40 DUP4 ADD DUP7 PUSH1 0x1 PUSH1 0x1 PUSH1 0xA0 SHL SUB AND SWAP1 MSTORE JUMP JUMPDEST SWAP3 ISZERO ISZERO PUSH1 0x60 DUP3 ADD MSTORE PUSH1 0x80 ADD MSTORE SWAP4 SWAP3 POP POP POP JUMP JUMPDEST PUSH4 0x4E487B71 PUSH1 0xE0 SHL PUSH1 0x0 MSTORE PUSH1 0x41 PUSH1 0x4 MSTORE PUSH1 0x24 PUSH1 0x0 REVERT JUMPDEST PUSH1 0x0 DUP1 PUSH1 0x0 PUSH1 0x60 DUP5 DUP7 SUB SLT ISZERO PUSH2 0x61D JUMPI PUSH1 0x0 DUP1 REVERT JUMPDEST DUP4 CALLDATALOAD PUSH8 0xFFFFFFFFFFFFFFFF DUP1 DUP3 GT ISZERO PUSH2 0x635 JUMPI PUSH1 0x0 DUP1 REVERT JUMPDEST DUP2 DUP7 ADD SWAP2 POP DUP7 PUSH1 0x1F DUP4 ADD SLT PUSH2 0x649 JUMPI PUSH1 0x0 DUP1 REVERT JUMPDEST DUP2 CALLDATALOAD DUP2 DUP2 GT ISZERO PUSH2 0x65B JUMPI PUSH2 0x65B PUSH2 0x5F2 JUMP JUMPDEST PUSH1 0x40 MLOAD PUSH1 0x1F DUP3 ADD PUSH1 0x1F NOT SWAP1 DUP2 AND PUSH1 0x3F ADD AND DUP2 ADD SWAP1 DUP4 DUP3 GT DUP2 DUP4 LT OR ISZERO PUSH2 0x683 JUMPI PUSH2 0x683 PUSH2 0x5F2 JUMP JUMPDEST DUP2 PUSH1 0x40 MSTORE DUP3 DUP2 MSTORE DUP10 PUSH1 0x20 DUP5 DUP8 ADD ADD GT ISZERO PUSH2 0x69C JUMPI PUSH1 0x0 DUP1 REVERT JUMPDEST DUP3 PUSH1 0x20 DUP7 ADD PUSH1 0x20 DUP4 ADD CALLDATACOPY PUSH1 0x0 PUSH1 0x20 DUP5 DUP4 ADD ADD MSTORE DUP1 SWAP8 POP POP POP POP POP POP PUSH1 0x20 DUP5 ADD CALLDATALOAD SWAP2 POP PUSH2 0x6CA PUSH1 0x40 DUP6 ADD PUSH2 0x536 JUMP JUMPDEST SWAP1 POP SWAP3 POP SWAP3 POP SWAP3 JUMP JUMPDEST PUSH1 0x0 DUP3 PUSH2 0x6F0 JUMPI PUSH4 0x4E487B71 PUSH1 0xE0 SHL PUSH1 0x0 MSTORE PUSH1 0x12 PUSH1 0x4 MSTORE PUSH1 0x24 PUSH1 0x0 REVERT JUMPDEST POP DIV SWAP1 JUMP JUMPDEST PUSH1 0x1 DUP2 DUP2 SHR SWAP1 DUP3 AND DUP1 PUSH2 0x709 JUMPI PUSH1 0x7F DUP3 AND SWAP2 POP JUMPDEST PUSH1 0x20 DUP3 LT DUP2 EQ ISZERO PUSH2 0x72A JUMPI PUSH4 0x4E487B71 PUSH1 0xE0 SHL PUSH1 0x0 MSTORE PUSH1 0x22 PUSH1 0x4 MSTORE PUSH1 0x24 PUSH1 0x0 REVERT JUMPDEST POP SWAP2 SWAP1 POP JUMP JUMPDEST PUSH1 0x0 PUSH1 0x0 NOT DUP3 EQ ISZERO PUSH2 0x752 JUMPI PUSH4 0x4E487B71 PUSH1 0xE0 SHL PUSH1 0x0 MSTORE PUSH1 0x11 PUSH1 0x4 MSTORE PUSH1 0x24 PUSH1 0x0 REVERT JUMPDEST POP PUSH1 0x1 ADD SWAP1 JUMP INVALID LOG2 PUSH5 0x6970667358 0x22 SLT KECCAK256 GAS DUP15 SIGNEXTEND POP SUB CODECOPY CODECOPY DUP9 0xEE 0xF7 SWAP7 0xE1 0xE DUP10 BALANCE MSTORE8 SHL 0xC4 0xE9 0xB4 PUSH12 0x2CEC7481C29C3DCBD3A0B964 PUSH20 0x6F6C634300080B0033A2646970667358221220B8 0xB1 0xCB DUP10 0xCF SELFDESTRUCT SAR PUSH31 0x42D0ECB5F66133F2A594C76CC90EE2EF6E0F0926C3658E6764736F6C634300 ADDMOD SIGNEXTEND STOP CALLER "
    },
    "gasEstimates": {
      "creation": {
        "codeDepositCost": "542600",
        "executionCost": "575",
        "totalCost": "543175"
      },
      "external": {
        "createCampaign(uint256)": "infinite",
        "deployedCampaigns(uint256)": "4581",
        "getDeployedCampaings()": "infinite"
      }
    },
    "methodIdentifiers": {
      "createCampaign(uint256)": "a3303a75",
      "deployedCampaigns(uint256)": "339d50a5",
      "getDeployedCampaings()": "b2b31828"
    }
  },
  "storageLayout": {
    "storage": [
      {
        "astId": 4,
        "contract": "Campaign.sol:CampaignFactory",
        "label": "deployedCampaigns",
        "offset": 0,
        "slot": "0",
        "type": "t_array(t_address)dyn_storage"
      }
    ],
    "types": {
      "t_address": {
        "encoding": "inplace",
        "label": "address",
        "numberOfBytes": "20"
      },
      "t_array(t_address)dyn_storage": {
        "base": "t_address",
        "encoding": "dynamic_array",
        "label": "address[]",
        "numberOfBytes": "32"
      }
    }
  },
  "userdoc": {
    "kind": "user",
    "methods": {},
    "version": 1
  }
}