{
  "abi": [
    {
      "inputs": [
        {
          "internalType": "uint256",
          "name": "minimum",
          "type": "uint256"
        },
        {
          "internalType": "address",
          "name": "creator",
          "type": "address"
        }
      ],
      "stateMutability": "nonpayable",
      "type": "constructor"
    },
    {
      "inputs": [
        {
          "internalType": "uint256",
          "name": "index",
          "type": "uint256"
        }
      ],
      "name": "approveRequest",
      "outputs": [],
      "stateMutability": "nonpayable",
      "type": "function"
    },
    {
      "inputs": [
        {
          "internalType": "address",
          "name": "",
          "type": "address"
        }
      ],
      "name": "approvers",
      "outputs": [
        {
          "internalType": "bool",
          "name": "",
          "type": "bool"
        }
      ],
      "stateMutability": "view",
      "type": "function"
    },
    {
      "inputs": [],
      "name": "approversCount",
      "outputs": [
        {
          "internalType": "uint256",
          "name": "",
          "type": "uint256"
        }
      ],
      "stateMutability": "view",
      "type": "function"
    },
    {
      "inputs": [],
      "name": "contribute",
      "outputs": [],
      "stateMutability": "payable",
      "type": "function"
    },
    {
      "inputs": [
        {
          "internalType": "string",
          "name": "description",
          "type": "string"
        },
        {
          "internalType": "uint256",
          "name": "value",
          "type": "uint256"
        },
        {
          "internalType": "address",
          "name": "recipient",
          "type": "address"
        }
      ],
      "name": "createRequest",
      "outputs": [],
      "stateMutability": "nonpayable",
      "type": "function"
    },
    {
      "inputs": [
        {
          "internalType": "uint256",
          "name": "index",
          "type": "uint256"
        }
      ],
      "name": "finalizeRequest",
      "outputs": [],
      "stateMutability": "nonpayable",
      "type": "function"
    },
    {
      "inputs": [],
      "name": "getDetails",
      "outputs": [
        {
          "internalType": "uint256",
          "name": "",
          "type": "uint256"
        },
        {
          "internalType": "uint256",
          "name": "",
          "type": "uint256"
        },
        {
          "internalType": "uint256",
          "name": "",
          "type": "uint256"
        },
        {
          "internalType": "uint256",
          "name": "",
          "type": "uint256"
        },
        {
          "internalType": "address",
          "name": "",
          "type": "address"
        }
      ],
      "stateMutability": "view",
      "type": "function"
    },
    {
      "inputs": [],
      "name": "manager",
      "outputs": [
        {
          "internalType": "address",
          "name": "",
          "type": "address"
        }
      ],
      "stateMutability": "view",
      "type": "function"
    },
    {
      "inputs": [],
      "name": "minimumContribution",
      "outputs": [
        {
          "internalType": "uint256",
          "name": "",
          "type": "uint256"
        }
      ],
      "stateMutability": "view",
      "type": "function"
    },
    {
      "inputs": [
        {
          "internalType": "uint256",
          "name": "",
          "type": "uint256"
        }
      ],
      "name": "requests",
      "outputs": [
        {
          "internalType": "string",
          "name": "description",
          "type": "string"
        },
        {
          "internalType": "uint256",
          "name": "value",
          "type": "uint256"
        },
        {
          "internalType": "address payable",
          "name": "recipient",
          "type": "address"
        },
        {
          "internalType": "bool",
          "name": "complete",
          "type": "bool"
        },
        {
          "internalType": "uint256",
          "name": "approvalCount",
          "type": "uint256"
        }
      ],
      "stateMutability": "view",
      "type": "function"
    }
  ],
  "devdoc": {
    "kind": "dev",
    "methods": {},
    "version": 1
  },
  "evm": {
    "assembly": "    /* \"Campaign.sol\":526:2958  contract Campaign{... */\n  mstore(0x40, 0x80)\n    /* \"Campaign.sol\":975:1091  constructor (uint minimum, address creator){... */\n  callvalue\n  dup1\n  iszero\n  tag_1\n  jumpi\n  0x00\n  dup1\n  revert\ntag_1:\n  pop\n  mload(0x40)\n  sub(codesize, bytecodeSize)\n  dup1\n  bytecodeSize\n  dup4\n  codecopy\n  dup2\n  add\n  0x40\n  dup2\n  swap1\n  mstore\n  tag_2\n  swap2\n  tag_3\n  jump\t// in\ntag_2:\n    /* \"Campaign.sol\":1028:1035  manager */\n  0x02\n    /* \"Campaign.sol\":1028:1045  manager = creator */\n  dup1\n  sload\n  not(sub(shl(0xa0, 0x01), 0x01))\n  and\n  sub(shl(0xa0, 0x01), 0x01)\n  swap3\n  swap1\n  swap3\n  and\n  swap2\n  swap1\n  swap2\n  or\n  swap1\n  sstore\n    /* \"Campaign.sol\":1055:1074  minimumContribution */\n  0x03\n    /* \"Campaign.sol\":1055:1084  minimumContribution = minimum */\n  sstore\n    /* \"Campaign.sol\":526:2958  contract Campaign{... */\n  jump(tag_7)\n    /* \"#utility.yul\":14:365   */\ntag_3:\n    /* \"#utility.yul\":93:99   */\n  0x00\n    /* \"#utility.yul\":101:107   */\n  dup1\n    /* \"#utility.yul\":154:156   */\n  0x40\n    /* \"#utility.yul\":142:151   */\n  dup4\n    /* \"#utility.yul\":133:140   */\n  dup6\n    /* \"#utility.yul\":129:152   */\n  sub\n    /* \"#utility.yul\":125:157   */\n  slt\n    /* \"#utility.yul\":122:174   */\n  iszero\n  tag_9\n  jumpi\n    /* \"#utility.yul\":170:171   */\n  0x00\n    /* \"#utility.yul\":167:168   */\n  dup1\n    /* \"#utility.yul\":160:172   */\n  revert\n    /* \"#utility.yul\":122:174   */\ntag_9:\n    /* \"#utility.yul\":193:209   */\n  dup3\n  mload\n    /* \"#utility.yul\":252:254   */\n  0x20\n    /* \"#utility.yul\":237:255   */\n  dup5\n  add\n    /* \"#utility.yul\":231:256   */\n  mload\n    /* \"#utility.yul\":193:209   */\n  swap1\n  swap3\n  pop\n  sub(shl(0xa0, 0x01), 0x01)\n    /* \"#utility.yul\":285:316   */\n  dup2\n  and\n    /* \"#utility.yul\":275:317   */\n  dup2\n  eq\n    /* \"#utility.yul\":265:335   */\n  tag_10\n  jumpi\n    /* \"#utility.yul\":331:332   */\n  0x00\n    /* \"#utility.yul\":328:329   */\n  dup1\n    /* \"#utility.yul\":321:333   */\n  revert\n    /* \"#utility.yul\":265:335   */\ntag_10:\n    /* \"#utility.yul\":354:359   */\n  dup1\n    /* \"#utility.yul\":344:359   */\n  swap2\n  pop\n  pop\n    /* \"#utility.yul\":14:365   */\n  swap3\n  pop\n  swap3\n  swap1\n  pop\n  jump\t// out\ntag_7:\n    /* \"Campaign.sol\":526:2958  contract Campaign{... */\n  dataSize(sub_0)\n  dup1\n  dataOffset(sub_0)\n  0x00\n  codecopy\n  0x00\n  return\nstop\n\nsub_0: assembly {\n        /* \"Campaign.sol\":526:2958  contract Campaign{... */\n      mstore(0x40, 0x80)\n      jumpi(tag_1, lt(calldatasize, 0x04))\n      shr(0xe0, calldataload(0x00))\n      dup1\n      0x8a9cfd55\n      gt\n      tag_12\n      jumpi\n      dup1\n      0x8a9cfd55\n      eq\n      tag_7\n      jumpi\n      dup1\n      0x937e09b1\n      eq\n      tag_8\n      jumpi\n      dup1\n      0xd7bb99ba\n      eq\n      tag_9\n      jumpi\n      dup1\n      0xd7d1bbdb\n      eq\n      tag_10\n      jumpi\n      dup1\n      0xfbbf93a0\n      eq\n      tag_11\n      jumpi\n      0x00\n      dup1\n      revert\n    tag_12:\n      dup1\n      0x03441006\n      eq\n      tag_2\n      jumpi\n      dup1\n      0x0a144391\n      eq\n      tag_3\n      jumpi\n      dup1\n      0x481c6a75\n      eq\n      tag_4\n      jumpi\n      dup1\n      0x81d12c58\n      eq\n      tag_5\n      jumpi\n      dup1\n      0x82fde093\n      eq\n      tag_6\n      jumpi\n    tag_1:\n      0x00\n      dup1\n      revert\n        /* \"Campaign.sol\":2624:2956  function finalizeRequest(uint index) public restricted{... */\n    tag_2:\n      callvalue\n      dup1\n      iszero\n      tag_13\n      jumpi\n      0x00\n      dup1\n      revert\n    tag_13:\n      pop\n      tag_14\n      tag_15\n      calldatasize\n      0x04\n      tag_16\n      jump\t// in\n    tag_15:\n      tag_17\n      jump\t// in\n    tag_14:\n      stop\n        /* \"Campaign.sol\":891:932  mapping(address => bool) public approvers */\n    tag_3:\n      callvalue\n      dup1\n      iszero\n      tag_18\n      jumpi\n      0x00\n      dup1\n      revert\n    tag_18:\n      pop\n      tag_19\n      tag_20\n      calldatasize\n      0x04\n      tag_21\n      jump\t// in\n    tag_20:\n      mstore(0x20, 0x04)\n      0x00\n      swap1\n      dup2\n      mstore\n      0x40\n      swap1\n      keccak256\n      sload\n      0xff\n      and\n      dup2\n      jump\n    tag_19:\n      mload(0x40)\n        /* \"#utility.yul\":829:843   */\n      swap1\n      iszero\n        /* \"#utility.yul\":822:844   */\n      iszero\n        /* \"#utility.yul\":804:845   */\n      dup2\n      mstore\n        /* \"#utility.yul\":792:794   */\n      0x20\n        /* \"#utility.yul\":777:795   */\n      add\n        /* \"Campaign.sol\":891:932  mapping(address => bool) public approvers */\n    tag_23:\n      mload(0x40)\n      dup1\n      swap2\n      sub\n      swap1\n      return\n        /* \"Campaign.sol\":826:848  address public manager */\n    tag_4:\n      callvalue\n      dup1\n      iszero\n      tag_25\n      jumpi\n      0x00\n      dup1\n      revert\n    tag_25:\n      pop\n      sload(0x02)\n      tag_26\n      swap1\n      sub(shl(0xa0, 0x01), 0x01)\n      and\n      dup2\n      jump\n    tag_26:\n      mload(0x40)\n      sub(shl(0xa0, 0x01), 0x01)\n        /* \"#utility.yul\":1129:1161   */\n      swap1\n      swap2\n      and\n        /* \"#utility.yul\":1111:1162   */\n      dup2\n      mstore\n        /* \"#utility.yul\":1099:1101   */\n      0x20\n        /* \"#utility.yul\":1084:1102   */\n      add\n        /* \"Campaign.sol\":826:848  address public manager */\n      tag_23\n        /* \"#utility.yul\":965:1168   */\n      jump\n        /* \"Campaign.sol\":780:820  mapping(uint => Request) public requests */\n    tag_5:\n      callvalue\n      dup1\n      iszero\n      tag_30\n      jumpi\n      0x00\n      dup1\n      revert\n    tag_30:\n      pop\n      tag_31\n      tag_32\n      calldatasize\n      0x04\n      tag_16\n      jump\t// in\n    tag_32:\n      tag_33\n      jump\t// in\n    tag_31:\n      mload(0x40)\n      tag_23\n      swap6\n      swap5\n      swap4\n      swap3\n      swap2\n      swap1\n      tag_35\n      jump\t// in\n        /* \"Campaign.sol\":938:964  uint public approversCount */\n    tag_6:\n      callvalue\n      dup1\n      iszero\n      tag_36\n      jumpi\n      0x00\n      dup1\n      revert\n    tag_36:\n      pop\n      tag_37\n      sload(0x05)\n      dup2\n      jump\n    tag_37:\n      mload(0x40)\n        /* \"#utility.yul\":2227:2252   */\n      swap1\n      dup2\n      mstore\n        /* \"#utility.yul\":2215:2217   */\n      0x20\n        /* \"#utility.yul\":2200:2218   */\n      add\n        /* \"Campaign.sol\":938:964  uint public approversCount */\n      tag_23\n        /* \"#utility.yul\":2081:2258   */\n      jump\n        /* \"Campaign.sol\":1659:2182  function createRequest (string memory description, uint value,... */\n    tag_7:\n      callvalue\n      dup1\n      iszero\n      tag_41\n      jumpi\n      0x00\n      dup1\n      revert\n    tag_41:\n      pop\n      tag_14\n      tag_43\n      calldatasize\n      0x04\n      tag_44\n      jump\t// in\n    tag_43:\n      tag_45\n      jump\t// in\n        /* \"Campaign.sol\":854:885  uint public minimumContribution */\n    tag_8:\n      callvalue\n      dup1\n      iszero\n      tag_46\n      jumpi\n      0x00\n      dup1\n      revert\n    tag_46:\n      pop\n      tag_37\n      sload(0x03)\n      dup2\n      jump\n        /* \"Campaign.sol\":1490:1648  function contribute() public payable {... */\n    tag_9:\n      tag_14\n      tag_51\n      jump\t// in\n        /* \"Campaign.sol\":2187:2618  function approveRequest(uint256 index) public {... */\n    tag_10:\n      callvalue\n      dup1\n      iszero\n      tag_52\n      jumpi\n      0x00\n      dup1\n      revert\n    tag_52:\n      pop\n      tag_14\n      tag_54\n      calldatasize\n      0x04\n      tag_16\n      jump\t// in\n    tag_54:\n      tag_55\n      jump\t// in\n        /* \"Campaign.sol\":1183:1484  function getDetails() public view returns (... */\n    tag_11:\n      callvalue\n      dup1\n      iszero\n      tag_56\n      jumpi\n      0x00\n      dup1\n      revert\n    tag_56:\n      pop\n        /* \"Campaign.sol\":1334:1353  minimumContribution */\n      sload(0x03)\n        /* \"Campaign.sol\":1235:1239  uint */\n      0x00\n        /* \"Campaign.sol\":1402:1413  numRequests */\n      sload\n        /* \"Campaign.sol\":1427:1441  approversCount */\n      sload(0x05)\n        /* \"Campaign.sol\":1455:1462  manager */\n      sload(0x02)\n        /* \"Campaign.sol\":1183:1484  function getDetails() public view returns (... */\n      0x40\n      dup1\n      mload\n        /* \"#utility.yul\":3733:3758   */\n      swap5\n      dup6\n      mstore\n        /* \"Campaign.sol\":1367:1388  address(this).balance */\n      selfbalance\n        /* \"#utility.yul\":3789:3791   */\n      0x20\n        /* \"#utility.yul\":3774:3792   */\n      dup7\n      add\n        /* \"#utility.yul\":3767:3801   */\n      mstore\n        /* \"#utility.yul\":3817:3835   */\n      dup5\n      add\n        /* \"#utility.yul\":3810:3844   */\n      swap3\n      swap1\n      swap3\n      mstore\n        /* \"#utility.yul\":3875:3877   */\n      0x60\n        /* \"#utility.yul\":3860:3878   */\n      dup4\n      add\n        /* \"#utility.yul\":3853:3887   */\n      mstore\n      sub(shl(0xa0, 0x01), 0x01)\n        /* \"Campaign.sol\":1455:1462  manager */\n      and\n        /* \"#utility.yul\":3918:3921   */\n      0x80\n        /* \"#utility.yul\":3903:3922   */\n      dup3\n      add\n        /* \"#utility.yul\":3896:3957   */\n      mstore\n        /* \"#utility.yul\":3720:3723   */\n      0xa0\n        /* \"#utility.yul\":3705:3724   */\n      add\n        /* \"Campaign.sol\":1183:1484  function getDetails() public view returns (... */\n      tag_23\n        /* \"#utility.yul\":3474:3963   */\n      jump\n        /* \"Campaign.sol\":2624:2956  function finalizeRequest(uint index) public restricted{... */\n    tag_17:\n        /* \"Campaign.sol\":1151:1158  manager */\n      and(sub(shl(0xa0, 0x01), 0x01), sload(0x02))\n        /* \"Campaign.sol\":1137:1147  msg.sender */\n      caller\n        /* \"Campaign.sol\":1137:1158  msg.sender == manager */\n      eq\n        /* \"Campaign.sol\":1129:1159  require(msg.sender == manager) */\n      tag_62\n      jumpi\n      0x00\n      dup1\n      revert\n    tag_62:\n        /* \"Campaign.sol\":2688:2711  Request storage request */\n      0x00\n        /* \"Campaign.sol\":2714:2729  requests[index] */\n      dup2\n      dup2\n      mstore\n        /* \"Campaign.sol\":2714:2722  requests */\n      0x01\n        /* \"Campaign.sol\":2714:2729  requests[index] */\n      0x20\n      mstore\n      0x40\n      swap1\n      keccak256\n        /* \"Campaign.sol\":2785:2801  request.complete */\n      0x02\n      dup2\n      add\n      sload\n      shl(0xa0, 0x01)\n      swap1\n      div\n      0xff\n      and\n        /* \"Campaign.sol\":2784:2801  !request.complete */\n      iszero\n        /* \"Campaign.sol\":2776:2802  require(!request.complete) */\n      tag_64\n      jumpi\n      0x00\n      dup1\n      revert\n    tag_64:\n        /* \"Campaign.sol\":2861:2862  2 */\n      0x02\n        /* \"Campaign.sol\":2845:2859  approversCount */\n      sload(0x05)\n        /* \"Campaign.sol\":2845:2862  approversCount /2 */\n      tag_65\n      swap2\n      swap1\n      tag_66\n      jump\t// in\n    tag_65:\n        /* \"Campaign.sol\":2820:2827  request */\n      dup2\n        /* \"Campaign.sol\":2820:2841  request.approvalCount */\n      0x03\n      add\n      sload\n        /* \"Campaign.sol\":2820:2863  request.approvalCount > (approversCount /2) */\n      gt\n        /* \"Campaign.sol\":2812:2864  require(request.approvalCount > (approversCount /2)) */\n      tag_67\n      jumpi\n      0x00\n      dup1\n      revert\n    tag_67:\n        /* \"Campaign.sol\":2875:2892  request.recipient */\n      0x02\n      dup2\n      add\n      sload\n      0x01\n        /* \"Campaign.sol\":2902:2915  request.value */\n      dup3\n      add\n      sload\n        /* \"Campaign.sol\":2875:2916  request.recipient.transfer(request.value) */\n      mload(0x40)\n      sub(shl(0xa0, 0x01), 0x01)\n        /* \"Campaign.sol\":2875:2892  request.recipient */\n      swap1\n      swap3\n      and\n      swap2\n        /* \"Campaign.sol\":2875:2916  request.recipient.transfer(request.value) */\n      dup2\n      iszero\n      0x08fc\n      mul\n      swap2\n        /* \"Campaign.sol\":2902:2915  request.value */\n      swap1\n        /* \"Campaign.sol\":2875:2892  request.recipient */\n      0x00\n        /* \"Campaign.sol\":2875:2916  request.recipient.transfer(request.value) */\n      dup2\n        /* \"Campaign.sol\":2875:2892  request.recipient */\n      dup2\n        /* \"Campaign.sol\":2875:2916  request.recipient.transfer(request.value) */\n      dup2\n        /* \"Campaign.sol\":2902:2915  request.value */\n      dup6\n        /* \"Campaign.sol\":2875:2892  request.recipient */\n      dup9\n        /* \"Campaign.sol\":2875:2916  request.recipient.transfer(request.value) */\n      dup9\n      call\n      swap4\n      pop\n      pop\n      pop\n      pop\n      iszero\n      dup1\n      iszero\n      tag_69\n      jumpi\n      returndatasize\n      0x00\n      dup1\n      returndatacopy\n      revert(0x00, returndatasize)\n    tag_69:\n      pop\n        /* \"Campaign.sol\":2926:2942  request.complete */\n      0x02\n      add\n        /* \"Campaign.sol\":2926:2949  request.complete = true */\n      dup1\n      sload\n      not(shl(0xa0, 0xff))\n      and\n      shl(0xa0, 0x01)\n      or\n      swap1\n      sstore\n      pop\n        /* \"Campaign.sol\":2624:2956  function finalizeRequest(uint index) public restricted{... */\n      jump\t// out\n        /* \"Campaign.sol\":780:820  mapping(uint => Request) public requests */\n    tag_33:\n      mstore(0x20, 0x01)\n      0x00\n      swap1\n      dup2\n      mstore\n      0x40\n      swap1\n      keccak256\n      dup1\n      sload\n      dup2\n      swap1\n      tag_70\n      swap1\n      tag_71\n      jump\t// in\n    tag_70:\n      dup1\n      0x1f\n      add\n      0x20\n      dup1\n      swap2\n      div\n      mul\n      0x20\n      add\n      mload(0x40)\n      swap1\n      dup2\n      add\n      0x40\n      mstore\n      dup1\n      swap3\n      swap2\n      swap1\n      dup2\n      dup2\n      mstore\n      0x20\n      add\n      dup3\n      dup1\n      sload\n      tag_72\n      swap1\n      tag_71\n      jump\t// in\n    tag_72:\n      dup1\n      iszero\n      tag_73\n      jumpi\n      dup1\n      0x1f\n      lt\n      tag_74\n      jumpi\n      0x0100\n      dup1\n      dup4\n      sload\n      div\n      mul\n      dup4\n      mstore\n      swap2\n      0x20\n      add\n      swap2\n      jump(tag_73)\n    tag_74:\n      dup3\n      add\n      swap2\n      swap1\n      0x00\n      mstore\n      keccak256(0x00, 0x20)\n      swap1\n    tag_75:\n      dup2\n      sload\n      dup2\n      mstore\n      swap1\n      0x01\n      add\n      swap1\n      0x20\n      add\n      dup1\n      dup4\n      gt\n      tag_75\n      jumpi\n      dup3\n      swap1\n      sub\n      0x1f\n      and\n      dup3\n      add\n      swap2\n    tag_73:\n      pop\n      pop\n      pop\n      pop\n      0x01\n      dup4\n      add\n      sload\n      0x02\n      dup5\n      add\n      sload\n      0x03\n      swap1\n      swap5\n      add\n      sload\n      swap3\n      swap4\n      swap1\n      swap3\n      sub(shl(0xa0, 0x01), 0x01)\n      dup3\n      and\n      swap3\n      pop\n      shl(0xa0, 0x01)\n      swap1\n      swap2\n      div\n      0xff\n      and\n      swap1\n      dup6\n      jump\t// out\n        /* \"Campaign.sol\":1659:2182  function createRequest (string memory description, uint value,... */\n    tag_45:\n        /* \"Campaign.sol\":1777:1800  Request storage request */\n      0x00\n        /* \"Campaign.sol\":1812:1825  numRequests++ */\n      dup1\n      sload\n        /* \"Campaign.sol\":1803:1811  requests */\n      0x01\n      swap1\n        /* \"Campaign.sol\":1777:1800  Request storage request */\n      dup3\n      swap1\n      dup2\n      dup1\n        /* \"Campaign.sol\":1812:1825  numRequests++ */\n      tag_77\n      dup4\n      tag_78\n      jump\t// in\n    tag_77:\n      swap1\n      swap2\n      sstore\n      pop\n        /* \"Campaign.sol\":1803:1826  requests[numRequests++] */\n      dup2\n      mstore\n      0x20\n      dup1\n      dup3\n      add\n      swap3\n      swap1\n      swap3\n      mstore\n      0x40\n      add\n      0x00\n      keccak256\n        /* \"Campaign.sol\":1845:1878  request.description = description */\n      dup6\n      mload\n        /* \"Campaign.sol\":1803:1826  requests[numRequests++] */\n      swap1\n      swap3\n      pop\n        /* \"Campaign.sol\":1845:1878  request.description = description */\n      tag_79\n      swap2\n        /* \"Campaign.sol\":1803:1826  requests[numRequests++] */\n      dup4\n      swap2\n        /* \"Campaign.sol\":1845:1878  request.description = description */\n      swap1\n      dup8\n      add\n      swap1\n      tag_80\n      jump\t// in\n    tag_79:\n      pop\n        /* \"Campaign.sol\":1896:1909  request.value */\n      0x01\n      dup2\n      add\n        /* \"Campaign.sol\":1896:1917  request.value = value */\n      swap3\n      swap1\n      swap3\n      sstore\n        /* \"Campaign.sol\":1935:1952  request.recipient */\n      0x02\n      dup3\n      add\n        /* \"Campaign.sol\":1935:1973  request.recipient = payable(recipient) */\n      dup1\n      sload\n      not(sub(shl(0xa8, 0x01), 0x01))\n        /* \"Campaign.sol\":2091:2115  request.complete = false */\n      and\n      sub(shl(0xa0, 0x01), 0x01)\n        /* \"Campaign.sol\":1935:1973  request.recipient = payable(recipient) */\n      swap1\n      swap3\n      and\n        /* \"Campaign.sol\":2091:2115  request.complete = false */\n      swap2\n      swap1\n      swap2\n      or\n      swap1\n      sstore\n        /* \"Campaign.sol\":1935:1952  request.recipient */\n      0x00\n        /* \"Campaign.sol\":2133:2154  request.approvalCount */\n      0x03\n      swap1\n      swap2\n      add\n        /* \"Campaign.sol\":2133:2158  request.approvalCount = 0 */\n      sstore\n      pop\n        /* \"Campaign.sol\":1659:2182  function createRequest (string memory description, uint value,... */\n      jump\t// out\n        /* \"Campaign.sol\":1490:1648  function contribute() public payable {... */\n    tag_51:\n        /* \"Campaign.sol\":1557:1576  minimumContribution */\n      sload(0x03)\n        /* \"Campaign.sol\":1545:1554  msg.value */\n      callvalue\n        /* \"Campaign.sol\":1545:1576  msg.value > minimumContribution */\n      gt\n        /* \"Campaign.sol\":1537:1577  require(msg.value > minimumContribution) */\n      tag_82\n      jumpi\n      0x00\n      dup1\n      revert\n    tag_82:\n        /* \"Campaign.sol\":1597:1607  msg.sender */\n      caller\n        /* \"Campaign.sol\":1587:1608  approvers[msg.sender] */\n      0x00\n      swap1\n      dup2\n      mstore\n        /* \"Campaign.sol\":1587:1596  approvers */\n      0x04\n        /* \"Campaign.sol\":1587:1608  approvers[msg.sender] */\n      0x20\n      mstore\n      0x40\n      dup2\n      keccak256\n        /* \"Campaign.sol\":1587:1615  approvers[msg.sender] = true */\n      dup1\n      sload\n      not(0xff)\n      and\n        /* \"Campaign.sol\":1611:1615  true */\n      0x01\n        /* \"Campaign.sol\":1587:1615  approvers[msg.sender] = true */\n      or\n      swap1\n      sstore\n        /* \"Campaign.sol\":1625:1639  approversCount */\n      0x05\n        /* \"Campaign.sol\":1625:1641  approversCount++ */\n      dup1\n      sload\n      swap2\n      tag_83\n      dup4\n      tag_78\n      jump\t// in\n    tag_83:\n      swap2\n      swap1\n      pop\n      sstore\n      pop\n        /* \"Campaign.sol\":1490:1648  function contribute() public payable {... */\n      jump\t// out\n        /* \"Campaign.sol\":2187:2618  function approveRequest(uint256 index) public {... */\n    tag_55:\n        /* \"Campaign.sol\":2243:2266  Request storage request */\n      0x00\n        /* \"Campaign.sol\":2269:2284  requests[index] */\n      dup2\n      dup2\n      mstore\n        /* \"Campaign.sol\":2269:2277  requests */\n      0x01\n        /* \"Campaign.sol\":2269:2284  requests[index] */\n      0x20\n      swap1\n      dup2\n      mstore\n      0x40\n      dup1\n      dup4\n      keccak256\n        /* \"Campaign.sol\":2349:2359  msg.sender */\n      caller\n        /* \"Campaign.sol\":2339:2360  approvers[msg.sender] */\n      dup5\n      mstore\n        /* \"Campaign.sol\":2339:2348  approvers */\n      0x04\n        /* \"Campaign.sol\":2339:2360  approvers[msg.sender] */\n      swap1\n      swap3\n      mstore\n      swap1\n      swap2\n      keccak256\n      sload\n      0xff\n      and\n        /* \"Campaign.sol\":2331:2361  require(approvers[msg.sender]) */\n      tag_85\n      jumpi\n      0x00\n      dup1\n      revert\n    tag_85:\n        /* \"Campaign.sol\":2429:2439  msg.sender */\n      caller\n        /* \"Campaign.sol\":2411:2440  request.approvals[msg.sender] */\n      0x00\n      swap1\n      dup2\n      mstore\n        /* \"Campaign.sol\":2411:2428  request.approvals */\n      0x04\n      dup3\n      add\n        /* \"Campaign.sol\":2411:2440  request.approvals[msg.sender] */\n      0x20\n      mstore\n      0x40\n      swap1\n      keccak256\n      sload\n      0xff\n      and\n        /* \"Campaign.sol\":2410:2440  !request.approvals[msg.sender] */\n      iszero\n        /* \"Campaign.sol\":2402:2441  require(!request.approvals[msg.sender]) */\n      tag_86\n      jumpi\n      0x00\n      dup1\n      revert\n    tag_86:\n        /* \"Campaign.sol\":2506:2516  msg.sender */\n      caller\n        /* \"Campaign.sol\":2488:2517  request.approvals[msg.sender] */\n      0x00\n      swap1\n      dup2\n      mstore\n        /* \"Campaign.sol\":2488:2505  request.approvals */\n      0x04\n      dup3\n      add\n        /* \"Campaign.sol\":2488:2517  request.approvals[msg.sender] */\n      0x20\n      mstore\n      0x40\n      dup2\n      keccak256\n        /* \"Campaign.sol\":2488:2524  request.approvals[msg.sender] = true */\n      dup1\n      sload\n      not(0xff)\n      and\n        /* \"Campaign.sol\":2520:2524  true */\n      0x01\n        /* \"Campaign.sol\":2488:2524  request.approvals[msg.sender] = true */\n      or\n      swap1\n      sstore\n        /* \"Campaign.sol\":2566:2587  request.approvalCount */\n      0x03\n      dup3\n      add\n        /* \"Campaign.sol\":2566:2589  request.approvalCount++ */\n      dup1\n      sload\n      swap2\n      tag_87\n      dup4\n      tag_78\n      jump\t// in\n    tag_87:\n      swap2\n      swap1\n      pop\n      sstore\n      pop\n        /* \"Campaign.sol\":2233:2618  {... */\n      pop\n        /* \"Campaign.sol\":2187:2618  function approveRequest(uint256 index) public {... */\n      pop\n      jump\t// out\n    tag_80:\n      dup3\n      dup1\n      sload\n      tag_89\n      swap1\n      tag_71\n      jump\t// in\n    tag_89:\n      swap1\n      0x00\n      mstore\n      keccak256(0x00, 0x20)\n      swap1\n      0x1f\n      add\n      0x20\n      swap1\n      div\n      dup2\n      add\n      swap3\n      dup3\n      tag_91\n      jumpi\n      0x00\n      dup6\n      sstore\n      jump(tag_94)\n    tag_91:\n      dup3\n      0x1f\n      lt\n      tag_92\n      jumpi\n      dup1\n      mload\n      not(0xff)\n      and\n      dup4\n      dup1\n      add\n      or\n      dup6\n      sstore\n      jump(tag_94)\n    tag_92:\n      dup3\n      dup1\n      add\n      0x01\n      add\n      dup6\n      sstore\n      dup3\n      iszero\n      tag_94\n      jumpi\n      swap2\n      dup3\n      add\n    tag_93:\n      dup3\n      dup2\n      gt\n      iszero\n      tag_94\n      jumpi\n      dup3\n      mload\n      dup3\n      sstore\n      swap2\n      0x20\n      add\n      swap2\n      swap1\n      0x01\n      add\n      swap1\n      jump(tag_93)\n    tag_94:\n      pop\n      tag_95\n      swap3\n      swap2\n      pop\n      tag_96\n      jump\t// in\n    tag_95:\n      pop\n      swap1\n      jump\t// out\n    tag_96:\n    tag_97:\n      dup1\n      dup3\n      gt\n      iszero\n      tag_95\n      jumpi\n      0x00\n      dup2\n      sstore\n      0x01\n      add\n      jump(tag_97)\n        /* \"#utility.yul\":14:194   */\n    tag_16:\n        /* \"#utility.yul\":73:79   */\n      0x00\n        /* \"#utility.yul\":126:128   */\n      0x20\n        /* \"#utility.yul\":114:123   */\n      dup3\n        /* \"#utility.yul\":105:112   */\n      dup5\n        /* \"#utility.yul\":101:124   */\n      sub\n        /* \"#utility.yul\":97:129   */\n      slt\n        /* \"#utility.yul\":94:146   */\n      iszero\n      tag_105\n      jumpi\n        /* \"#utility.yul\":142:143   */\n      0x00\n        /* \"#utility.yul\":139:140   */\n      dup1\n        /* \"#utility.yul\":132:144   */\n      revert\n        /* \"#utility.yul\":94:146   */\n    tag_105:\n      pop\n        /* \"#utility.yul\":165:188   */\n      calldataload\n      swap2\n        /* \"#utility.yul\":14:194   */\n      swap1\n      pop\n      jump\t// out\n        /* \"#utility.yul\":199:372   */\n    tag_99:\n        /* \"#utility.yul\":267:287   */\n      dup1\n      calldataload\n      sub(shl(0xa0, 0x01), 0x01)\n        /* \"#utility.yul\":316:347   */\n      dup2\n      and\n        /* \"#utility.yul\":306:348   */\n      dup2\n      eq\n        /* \"#utility.yul\":296:366   */\n      tag_107\n      jumpi\n        /* \"#utility.yul\":362:363   */\n      0x00\n        /* \"#utility.yul\":359:360   */\n      dup1\n        /* \"#utility.yul\":352:364   */\n      revert\n        /* \"#utility.yul\":296:366   */\n    tag_107:\n        /* \"#utility.yul\":199:372   */\n      swap2\n      swap1\n      pop\n      jump\t// out\n        /* \"#utility.yul\":377:563   */\n    tag_21:\n        /* \"#utility.yul\":436:442   */\n      0x00\n        /* \"#utility.yul\":489:491   */\n      0x20\n        /* \"#utility.yul\":477:486   */\n      dup3\n        /* \"#utility.yul\":468:475   */\n      dup5\n        /* \"#utility.yul\":464:487   */\n      sub\n        /* \"#utility.yul\":460:492   */\n      slt\n        /* \"#utility.yul\":457:509   */\n      iszero\n      tag_109\n      jumpi\n        /* \"#utility.yul\":505:506   */\n      0x00\n        /* \"#utility.yul\":502:503   */\n      dup1\n        /* \"#utility.yul\":495:507   */\n      revert\n        /* \"#utility.yul\":457:509   */\n    tag_109:\n        /* \"#utility.yul\":528:557   */\n      tag_110\n        /* \"#utility.yul\":547:556   */\n      dup3\n        /* \"#utility.yul\":528:557   */\n      tag_99\n      jump\t// in\n    tag_110:\n        /* \"#utility.yul\":518:557   */\n      swap4\n        /* \"#utility.yul\":377:563   */\n      swap3\n      pop\n      pop\n      pop\n      jump\t// out\n        /* \"#utility.yul\":1173:2076   */\n    tag_35:\n        /* \"#utility.yul\":1444:1447   */\n      0xa0\n        /* \"#utility.yul\":1433:1442   */\n      dup2\n        /* \"#utility.yul\":1426:1448   */\n      mstore\n        /* \"#utility.yul\":1407:1411   */\n      0x00\n        /* \"#utility.yul\":1477:1483   */\n      dup7\n        /* \"#utility.yul\":1471:1484   */\n      mload\n        /* \"#utility.yul\":1521:1527   */\n      dup1\n        /* \"#utility.yul\":1515:1518   */\n      0xa0\n        /* \"#utility.yul\":1504:1513   */\n      dup5\n        /* \"#utility.yul\":1500:1519   */\n      add\n        /* \"#utility.yul\":1493:1528   */\n      mstore\n        /* \"#utility.yul\":1546:1547   */\n      0x00\n        /* \"#utility.yul\":1556:1701   */\n    tag_116:\n        /* \"#utility.yul\":1570:1576   */\n      dup2\n        /* \"#utility.yul\":1567:1568   */\n      dup2\n        /* \"#utility.yul\":1564:1577   */\n      lt\n        /* \"#utility.yul\":1556:1701   */\n      iszero\n      tag_118\n      jumpi\n        /* \"#utility.yul\":1684:1688   */\n      0x20\n        /* \"#utility.yul\":1668:1682   */\n      dup2\n      dup11\n      add\n        /* \"#utility.yul\":1664:1689   */\n      dup2\n      add\n        /* \"#utility.yul\":1658:1690   */\n      mload\n        /* \"#utility.yul\":1652:1655   */\n      0xc0\n        /* \"#utility.yul\":1633:1650   */\n      dup7\n      dup5\n      add\n        /* \"#utility.yul\":1629:1656   */\n      add\n        /* \"#utility.yul\":1622:1691   */\n      mstore\n        /* \"#utility.yul\":1585:1597   */\n      add\n        /* \"#utility.yul\":1556:1701   */\n      jump(tag_116)\n    tag_118:\n        /* \"#utility.yul\":1719:1725   */\n      dup2\n        /* \"#utility.yul\":1716:1717   */\n      dup2\n        /* \"#utility.yul\":1713:1726   */\n      gt\n        /* \"#utility.yul\":1710:1802   */\n      iszero\n      tag_119\n      jumpi\n        /* \"#utility.yul\":1790:1791   */\n      0x00\n        /* \"#utility.yul\":1784:1787   */\n      0xc0\n        /* \"#utility.yul\":1775:1781   */\n      dup4\n        /* \"#utility.yul\":1764:1773   */\n      dup7\n        /* \"#utility.yul\":1760:1782   */\n      add\n        /* \"#utility.yul\":1756:1788   */\n      add\n        /* \"#utility.yul\":1749:1792   */\n      mstore\n        /* \"#utility.yul\":1710:1802   */\n    tag_119:\n      pop\n        /* \"#utility.yul\":1905:1909   */\n      0x20\n        /* \"#utility.yul\":1890:1910   */\n      dup4\n      add\n        /* \"#utility.yul\":1883:1919   */\n      dup8\n      swap1\n      mstore\n        /* \"#utility.yul\":1863:1865   */\n      0x1f\n        /* \"#utility.yul\":1842:1857   */\n      add\n      not(0x1f)\n        /* \"#utility.yul\":1838:1867   */\n      and\n        /* \"#utility.yul\":1823:1868   */\n      dup3\n      add\n        /* \"#utility.yul\":1870:1873   */\n      0xc0\n        /* \"#utility.yul\":1819:1874   */\n      add\n      swap1\n      pop\n        /* \"#utility.yul\":1928:1974   */\n      tag_120\n        /* \"#utility.yul\":1970:1972   */\n      0x40\n        /* \"#utility.yul\":1955:1973   */\n      dup4\n      add\n        /* \"#utility.yul\":1947:1953   */\n      dup7\n      sub(shl(0xa0, 0x01), 0x01)\n        /* \"#utility.yul\":922:953   */\n      and\n        /* \"#utility.yul\":910:954   */\n      swap1\n      mstore\n        /* \"#utility.yul\":856:960   */\n      jump\n        /* \"#utility.yul\":1928:1974   */\n    tag_120:\n        /* \"#utility.yul\":638:651   */\n      swap3\n      iszero\n        /* \"#utility.yul\":631:652   */\n      iszero\n        /* \"#utility.yul\":2022:2024   */\n      0x60\n        /* \"#utility.yul\":2007:2025   */\n      dup3\n      add\n        /* \"#utility.yul\":619:653   */\n      mstore\n        /* \"#utility.yul\":2057:2060   */\n      0x80\n        /* \"#utility.yul\":2042:2061   */\n      add\n        /* \"#utility.yul\":2035:2070   */\n      mstore\n        /* \"#utility.yul\":1173:2076   */\n      swap4\n      swap3\n      pop\n      pop\n      pop\n      jump\t// out\n        /* \"#utility.yul\":2263:2390   */\n    tag_102:\n        /* \"#utility.yul\":2324:2334   */\n      0x4e487b71\n        /* \"#utility.yul\":2319:2322   */\n      0xe0\n        /* \"#utility.yul\":2315:2335   */\n      shl\n        /* \"#utility.yul\":2312:2313   */\n      0x00\n        /* \"#utility.yul\":2305:2336   */\n      mstore\n        /* \"#utility.yul\":2355:2359   */\n      0x41\n        /* \"#utility.yul\":2352:2353   */\n      0x04\n        /* \"#utility.yul\":2345:2360   */\n      mstore\n        /* \"#utility.yul\":2379:2383   */\n      0x24\n        /* \"#utility.yul\":2376:2377   */\n      0x00\n        /* \"#utility.yul\":2369:2384   */\n      revert\n        /* \"#utility.yul\":2395:3469   */\n    tag_44:\n        /* \"#utility.yul\":2482:2488   */\n      0x00\n        /* \"#utility.yul\":2490:2496   */\n      dup1\n        /* \"#utility.yul\":2498:2504   */\n      0x00\n        /* \"#utility.yul\":2551:2553   */\n      0x60\n        /* \"#utility.yul\":2539:2548   */\n      dup5\n        /* \"#utility.yul\":2530:2537   */\n      dup7\n        /* \"#utility.yul\":2526:2549   */\n      sub\n        /* \"#utility.yul\":2522:2554   */\n      slt\n        /* \"#utility.yul\":2519:2571   */\n      iszero\n      tag_125\n      jumpi\n        /* \"#utility.yul\":2567:2568   */\n      0x00\n        /* \"#utility.yul\":2564:2565   */\n      dup1\n        /* \"#utility.yul\":2557:2569   */\n      revert\n        /* \"#utility.yul\":2519:2571   */\n    tag_125:\n        /* \"#utility.yul\":2607:2616   */\n      dup4\n        /* \"#utility.yul\":2594:2617   */\n      calldataload\n        /* \"#utility.yul\":2636:2654   */\n      0xffffffffffffffff\n        /* \"#utility.yul\":2677:2679   */\n      dup1\n        /* \"#utility.yul\":2669:2675   */\n      dup3\n        /* \"#utility.yul\":2666:2680   */\n      gt\n        /* \"#utility.yul\":2663:2697   */\n      iszero\n      tag_126\n      jumpi\n        /* \"#utility.yul\":2693:2694   */\n      0x00\n        /* \"#utility.yul\":2690:2691   */\n      dup1\n        /* \"#utility.yul\":2683:2695   */\n      revert\n        /* \"#utility.yul\":2663:2697   */\n    tag_126:\n        /* \"#utility.yul\":2731:2737   */\n      dup2\n        /* \"#utility.yul\":2720:2729   */\n      dup7\n        /* \"#utility.yul\":2716:2738   */\n      add\n        /* \"#utility.yul\":2706:2738   */\n      swap2\n      pop\n        /* \"#utility.yul\":2776:2783   */\n      dup7\n        /* \"#utility.yul\":2769:2773   */\n      0x1f\n        /* \"#utility.yul\":2765:2767   */\n      dup4\n        /* \"#utility.yul\":2761:2774   */\n      add\n        /* \"#utility.yul\":2757:2784   */\n      slt\n        /* \"#utility.yul\":2747:2802   */\n      tag_127\n      jumpi\n        /* \"#utility.yul\":2798:2799   */\n      0x00\n        /* \"#utility.yul\":2795:2796   */\n      dup1\n        /* \"#utility.yul\":2788:2800   */\n      revert\n        /* \"#utility.yul\":2747:2802   */\n    tag_127:\n        /* \"#utility.yul\":2834:2836   */\n      dup2\n        /* \"#utility.yul\":2821:2837   */\n      calldataload\n        /* \"#utility.yul\":2856:2858   */\n      dup2\n        /* \"#utility.yul\":2852:2854   */\n      dup2\n        /* \"#utility.yul\":2849:2859   */\n      gt\n        /* \"#utility.yul\":2846:2882   */\n      iszero\n      tag_129\n      jumpi\n        /* \"#utility.yul\":2862:2880   */\n      tag_129\n      tag_102\n      jump\t// in\n    tag_129:\n        /* \"#utility.yul\":2937:2939   */\n      0x40\n        /* \"#utility.yul\":2931:2940   */\n      mload\n        /* \"#utility.yul\":2905:2907   */\n      0x1f\n        /* \"#utility.yul\":2991:3004   */\n      dup3\n      add\n      not(0x1f)\n        /* \"#utility.yul\":2987:3009   */\n      swap1\n      dup2\n      and\n        /* \"#utility.yul\":3011:3013   */\n      0x3f\n        /* \"#utility.yul\":2983:3014   */\n      add\n        /* \"#utility.yul\":2979:3019   */\n      and\n        /* \"#utility.yul\":2967:3020   */\n      dup2\n      add\n      swap1\n        /* \"#utility.yul\":3035:3053   */\n      dup4\n      dup3\n      gt\n        /* \"#utility.yul\":3055:3077   */\n      dup2\n      dup4\n      lt\n        /* \"#utility.yul\":3032:3078   */\n      or\n        /* \"#utility.yul\":3029:3101   */\n      iszero\n      tag_131\n      jumpi\n        /* \"#utility.yul\":3081:3099   */\n      tag_131\n      tag_102\n      jump\t// in\n    tag_131:\n        /* \"#utility.yul\":3121:3131   */\n      dup2\n        /* \"#utility.yul\":3117:3119   */\n      0x40\n        /* \"#utility.yul\":3110:3132   */\n      mstore\n        /* \"#utility.yul\":3156:3158   */\n      dup3\n        /* \"#utility.yul\":3148:3154   */\n      dup2\n        /* \"#utility.yul\":3141:3159   */\n      mstore\n        /* \"#utility.yul\":3198:3205   */\n      dup10\n        /* \"#utility.yul\":3191:3195   */\n      0x20\n        /* \"#utility.yul\":3186:3188   */\n      dup5\n        /* \"#utility.yul\":3182:3184   */\n      dup8\n        /* \"#utility.yul\":3178:3189   */\n      add\n        /* \"#utility.yul\":3174:3196   */\n      add\n        /* \"#utility.yul\":3171:3206   */\n      gt\n        /* \"#utility.yul\":3168:3223   */\n      iszero\n      tag_132\n      jumpi\n        /* \"#utility.yul\":3219:3220   */\n      0x00\n        /* \"#utility.yul\":3216:3217   */\n      dup1\n        /* \"#utility.yul\":3209:3221   */\n      revert\n        /* \"#utility.yul\":3168:3223   */\n    tag_132:\n        /* \"#utility.yul\":3279:3281   */\n      dup3\n        /* \"#utility.yul\":3272:3276   */\n      0x20\n        /* \"#utility.yul\":3268:3270   */\n      dup7\n        /* \"#utility.yul\":3264:3277   */\n      add\n        /* \"#utility.yul\":3257:3261   */\n      0x20\n        /* \"#utility.yul\":3249:3255   */\n      dup4\n        /* \"#utility.yul\":3245:3262   */\n      add\n        /* \"#utility.yul\":3232:3282   */\n      calldatacopy\n        /* \"#utility.yul\":3326:3327   */\n      0x00\n        /* \"#utility.yul\":3319:3323   */\n      0x20\n        /* \"#utility.yul\":3314:3316   */\n      dup5\n        /* \"#utility.yul\":3306:3312   */\n      dup4\n        /* \"#utility.yul\":3302:3317   */\n      add\n        /* \"#utility.yul\":3298:3324   */\n      add\n        /* \"#utility.yul\":3291:3328   */\n      mstore\n        /* \"#utility.yul\":3347:3353   */\n      dup1\n        /* \"#utility.yul\":3337:3353   */\n      swap8\n      pop\n      pop\n      pop\n      pop\n      pop\n      pop\n        /* \"#utility.yul\":3400:3404   */\n      0x20\n        /* \"#utility.yul\":3389:3398   */\n      dup5\n        /* \"#utility.yul\":3385:3405   */\n      add\n        /* \"#utility.yul\":3372:3406   */\n      calldataload\n        /* \"#utility.yul\":3362:3406   */\n      swap2\n      pop\n        /* \"#utility.yul\":3425:3463   */\n      tag_133\n        /* \"#utility.yul\":3459:3461   */\n      0x40\n        /* \"#utility.yul\":3448:3457   */\n      dup6\n        /* \"#utility.yul\":3444:3462   */\n      add\n        /* \"#utility.yul\":3425:3463   */\n      tag_99\n      jump\t// in\n    tag_133:\n        /* \"#utility.yul\":3415:3463   */\n      swap1\n      pop\n        /* \"#utility.yul\":2395:3469   */\n      swap3\n      pop\n      swap3\n      pop\n      swap3\n      jump\t// out\n        /* \"#utility.yul\":3968:4185   */\n    tag_66:\n        /* \"#utility.yul\":4008:4009   */\n      0x00\n        /* \"#utility.yul\":4034:4035   */\n      dup3\n        /* \"#utility.yul\":4024:4156   */\n      tag_136\n      jumpi\n        /* \"#utility.yul\":4078:4088   */\n      0x4e487b71\n        /* \"#utility.yul\":4073:4076   */\n      0xe0\n        /* \"#utility.yul\":4069:4089   */\n      shl\n        /* \"#utility.yul\":4066:4067   */\n      0x00\n        /* \"#utility.yul\":4059:4090   */\n      mstore\n        /* \"#utility.yul\":4113:4117   */\n      0x12\n        /* \"#utility.yul\":4110:4111   */\n      0x04\n        /* \"#utility.yul\":4103:4118   */\n      mstore\n        /* \"#utility.yul\":4141:4145   */\n      0x24\n        /* \"#utility.yul\":4138:4139   */\n      0x00\n        /* \"#utility.yul\":4131:4146   */\n      revert\n        /* \"#utility.yul\":4024:4156   */\n    tag_136:\n      pop\n        /* \"#utility.yul\":4170:4179   */\n      div\n      swap1\n        /* \"#utility.yul\":3968:4185   */\n      jump\t// out\n        /* \"#utility.yul\":4190:4570   */\n    tag_71:\n        /* \"#utility.yul\":4269:4270   */\n      0x01\n        /* \"#utility.yul\":4265:4277   */\n      dup2\n      dup2\n      shr\n      swap1\n        /* \"#utility.yul\":4312:4324   */\n      dup3\n      and\n      dup1\n        /* \"#utility.yul\":4333:4394   */\n      tag_138\n      jumpi\n        /* \"#utility.yul\":4387:4391   */\n      0x7f\n        /* \"#utility.yul\":4379:4385   */\n      dup3\n        /* \"#utility.yul\":4375:4392   */\n      and\n        /* \"#utility.yul\":4365:4392   */\n      swap2\n      pop\n        /* \"#utility.yul\":4333:4394   */\n    tag_138:\n        /* \"#utility.yul\":4440:4442   */\n      0x20\n        /* \"#utility.yul\":4432:4438   */\n      dup3\n        /* \"#utility.yul\":4429:4443   */\n      lt\n        /* \"#utility.yul\":4409:4427   */\n      dup2\n        /* \"#utility.yul\":4406:4444   */\n      eq\n        /* \"#utility.yul\":4403:4564   */\n      iszero\n      tag_139\n      jumpi\n        /* \"#utility.yul\":4486:4496   */\n      0x4e487b71\n        /* \"#utility.yul\":4481:4484   */\n      0xe0\n        /* \"#utility.yul\":4477:4497   */\n      shl\n        /* \"#utility.yul\":4474:4475   */\n      0x00\n        /* \"#utility.yul\":4467:4498   */\n      mstore\n        /* \"#utility.yul\":4521:4525   */\n      0x22\n        /* \"#utility.yul\":4518:4519   */\n      0x04\n        /* \"#utility.yul\":4511:4526   */\n      mstore\n        /* \"#utility.yul\":4549:4553   */\n      0x24\n        /* \"#utility.yul\":4546:4547   */\n      0x00\n        /* \"#utility.yul\":4539:4554   */\n      revert\n        /* \"#utility.yul\":4403:4564   */\n    tag_139:\n      pop\n        /* \"#utility.yul\":4190:4570   */\n      swap2\n      swap1\n      pop\n      jump\t// out\n        /* \"#utility.yul\":4575:4807   */\n    tag_78:\n        /* \"#utility.yul\":4614:4617   */\n      0x00\n      not(0x00)\n        /* \"#utility.yul\":4635:4652   */\n      dup3\n      eq\n        /* \"#utility.yul\":4632:4772   */\n      iszero\n      tag_141\n      jumpi\n        /* \"#utility.yul\":4694:4704   */\n      0x4e487b71\n        /* \"#utility.yul\":4689:4692   */\n      0xe0\n        /* \"#utility.yul\":4685:4705   */\n      shl\n        /* \"#utility.yul\":4682:4683   */\n      0x00\n        /* \"#utility.yul\":4675:4706   */\n      mstore\n        /* \"#utility.yul\":4729:4733   */\n      0x11\n        /* \"#utility.yul\":4726:4727   */\n      0x04\n        /* \"#utility.yul\":4719:4734   */\n      mstore\n        /* \"#utility.yul\":4757:4761   */\n      0x24\n        /* \"#utility.yul\":4754:4755   */\n      0x00\n        /* \"#utility.yul\":4747:4762   */\n      revert\n        /* \"#utility.yul\":4632:4772   */\n    tag_141:\n      pop\n        /* \"#utility.yul\":4799:4800   */\n      0x01\n        /* \"#utility.yul\":4788:4801   */\n      add\n      swap1\n        /* \"#utility.yul\":4575:4807   */\n      jump\t// out\n\n    auxdata: 0xa2646970667358221220907eb356b387689e27ee4e693e909d49338b2d9f363b38fb2b8f3470a8af7b7264736f6c634300080b0033\n}\n",
    "bytecode": {
      "linkReferences": {},
      "object": "608060405234801561001057600080fd5b5060405161088438038061088483398101604081905261002f91610057565b600280546001600160a01b0319166001600160a01b0392909216919091179055600355610094565b6000806040838503121561006a57600080fd5b825160208401519092506001600160a01b038116811461008957600080fd5b809150509250929050565b6107e1806100a36000396000f3fe6080604052600436106100915760003560e01c80638a9cfd55116100595780638a9cfd551461018a578063937e09b1146101aa578063d7bb99ba146101c0578063d7d1bbdb146101c8578063fbbf93a0146101e857600080fd5b806303441006146100965780630a144391146100b8578063481c6a75146100fd57806381d12c581461013557806382fde09314610166575b600080fd5b3480156100a257600080fd5b506100b66100b136600461056f565b61022f565b005b3480156100c457600080fd5b506100e86100d33660046105a4565b60046020526000908152604090205460ff1681565b60405190151581526020015b60405180910390f35b34801561010957600080fd5b5060025461011d906001600160a01b031681565b6040516001600160a01b0390911681526020016100f4565b34801561014157600080fd5b5061015561015036600461056f565b6102e3565b6040516100f49594939291906105c6565b34801561017257600080fd5b5061017c60055481565b6040519081526020016100f4565b34801561019657600080fd5b506100b66101a536600461065a565b6103aa565b3480156101b657600080fd5b5061017c60035481565b6100b661041c565b3480156101d457600080fd5b506100b66101e336600461056f565b610459565b3480156101f457600080fd5b506003546000546005546002546040805194855247602086015284019290925260608301526001600160a01b0316608082015260a0016100f4565b6002546001600160a01b0316331461024657600080fd5b60008181526001602052604090206002810154600160a01b900460ff161561026d57600080fd5b600260055461027c9190610725565b81600301541161028b57600080fd5b600281015460018201546040516001600160a01b039092169181156108fc0291906000818181858888f193505050501580156102cb573d6000803e3d6000fd5b50600201805460ff60a01b1916600160a01b17905550565b6001602052600090815260409020805481906102fe90610747565b80601f016020809104026020016040519081016040528092919081815260200182805461032a90610747565b80156103775780601f1061034c57610100808354040283529160200191610377565b820191906000526020600020905b81548152906001019060200180831161035a57829003601f168201915b5050505060018301546002840154600390940154929390926001600160a01b0382169250600160a01b90910460ff169085565b60008054600190829081806103be83610782565b90915550815260208082019290925260400160002085519092506103e7918391908701906104d6565b5060018101929092556002820180546001600160a81b0319166001600160a01b03909216919091179055600060039091015550565b600354341161042a57600080fd5b336000908152600460205260408120805460ff19166001179055600580549161045283610782565b9190505550565b600081815260016020908152604080832033845260049092529091205460ff1661048257600080fd5b33600090815260048201602052604090205460ff16156104a157600080fd5b3360009081526004820160205260408120805460ff19166001179055600382018054916104cd83610782565b91905055505050565b8280546104e290610747565b90600052602060002090601f016020900481019282610504576000855561054a565b82601f1061051d57805160ff191683800117855561054a565b8280016001018555821561054a579182015b8281111561054a57825182559160200191906001019061052f565b5061055692915061055a565b5090565b5b80821115610556576000815560010161055b565b60006020828403121561058157600080fd5b5035919050565b80356001600160a01b038116811461059f57600080fd5b919050565b6000602082840312156105b657600080fd5b6105bf82610588565b9392505050565b60a08152600086518060a084015260005b818110156105f4576020818a0181015160c08684010152016105d7565b8181111561060657600060c083860101525b5060208301879052601f01601f1916820160c001905061063160408301866001600160a01b03169052565b9215156060820152608001529392505050565b634e487b7160e01b600052604160045260246000fd5b60008060006060848603121561066f57600080fd5b833567ffffffffffffffff8082111561068757600080fd5b818601915086601f83011261069b57600080fd5b8135818111156106ad576106ad610644565b604051601f8201601f19908116603f011681019083821181831017156106d5576106d5610644565b816040528281528960208487010111156106ee57600080fd5b8260208601602083013760006020848301015280975050505050506020840135915061071c60408501610588565b90509250925092565b60008261074257634e487b7160e01b600052601260045260246000fd5b500490565b600181811c9082168061075b57607f821691505b6020821081141561077c57634e487b7160e01b600052602260045260246000fd5b50919050565b60006000198214156107a457634e487b7160e01b600052601160045260246000fd5b506001019056fea2646970667358221220907eb356b387689e27ee4e693e909d49338b2d9f363b38fb2b8f3470a8af7b7264736f6c634300080b0033",
      "opcodes": "PUSH1 0x80 PUSH1 0x40 MSTORE CALLVALUE DUP1 ISZERO PUSH2 0x10 JUMPI PUSH1 0x0 DUP1 REVERT JUMPDEST POP PUSH1 0x40 MLOAD PUSH2 0x884 CODESIZE SUB DUP1 PUSH2 0x884 DUP4 CODECOPY DUP2 ADD PUSH1 0x40 DUP2 SWAP1 MSTORE PUSH2 0x2F SWAP2 PUSH2 0x57 JUMP JUMPDEST PUSH1 0x2 DUP1 SLOAD PUSH1 0x1 PUSH1 0x1 PUSH1 0xA0 SHL SUB NOT AND PUSH1 0x1 PUSH1 0x1 PUSH1 0xA0 SHL SUB SWAP3 SWAP1 SWAP3 AND SWAP2 SWAP1 SWAP2 OR SWAP1 SSTORE PUSH1 0x3 SSTORE PUSH2 0x94 JUMP JUMPDEST PUSH1 0x0 DUP1 PUSH1 0x40 DUP4 DUP6 SUB SLT ISZERO PUSH2 0x6A JUMPI PUSH1 0x0 DUP1 REVERT JUMPDEST DUP3 MLOAD PUSH1 0x20 DUP5 ADD MLOAD SWAP1 SWAP3 POP PUSH1 0x1 PUSH1 0x1 PUSH1 0xA0 SHL SUB DUP2 AND DUP2 EQ PUSH2 0x89 JUMPI PUSH1 0x0 DUP1 REVERT JUMPDEST DUP1 SWAP2 POP POP SWAP3 POP SWAP3 SWAP1 POP JUMP JUMPDEST PUSH2 0x7E1 DUP1 PUSH2 0xA3 PUSH1 0x0 CODECOPY PUSH1 0x0 RETURN INVALID PUSH1 0x80 PUSH1 0x40 MSTORE PUSH1 0x4 CALLDATASIZE LT PUSH2 0x91 JUMPI PUSH1 0x0 CALLDATALOAD PUSH1 0xE0 SHR DUP1 PUSH4 0x8A9CFD55 GT PUSH2 0x59 JUMPI DUP1 PUSH4 0x8A9CFD55 EQ PUSH2 0x18A JUMPI DUP1 PUSH4 0x937E09B1 EQ PUSH2 0x1AA JUMPI DUP1 PUSH4 0xD7BB99BA EQ PUSH2 0x1C0 JUMPI DUP1 PUSH4 0xD7D1BBDB EQ PUSH2 0x1C8 JUMPI DUP1 PUSH4 0xFBBF93A0 EQ PUSH2 0x1E8 JUMPI PUSH1 0x0 DUP1 REVERT JUMPDEST DUP1 PUSH4 0x3441006 EQ PUSH2 0x96 JUMPI DUP1 PUSH4 0xA144391 EQ PUSH2 0xB8 JUMPI DUP1 PUSH4 0x481C6A75 EQ PUSH2 0xFD JUMPI DUP1 PUSH4 0x81D12C58 EQ PUSH2 0x135 JUMPI DUP1 PUSH4 0x82FDE093 EQ PUSH2 0x166 JUMPI JUMPDEST PUSH1 0x0 DUP1 REVERT JUMPDEST CALLVALUE DUP1 ISZERO PUSH2 0xA2 JUMPI PUSH1 0x0 DUP1 REVERT JUMPDEST POP PUSH2 0xB6 PUSH2 0xB1 CALLDATASIZE PUSH1 0x4 PUSH2 0x56F JUMP JUMPDEST PUSH2 0x22F JUMP JUMPDEST STOP JUMPDEST CALLVALUE DUP1 ISZERO PUSH2 0xC4 JUMPI PUSH1 0x0 DUP1 REVERT JUMPDEST POP PUSH2 0xE8 PUSH2 0xD3 CALLDATASIZE PUSH1 0x4 PUSH2 0x5A4 JUMP JUMPDEST PUSH1 0x4 PUSH1 0x20 MSTORE PUSH1 0x0 SWAP1 DUP2 MSTORE PUSH1 0x40 SWAP1 KECCAK256 SLOAD PUSH1 0xFF AND DUP2 JUMP JUMPDEST PUSH1 0x40 MLOAD SWAP1 ISZERO ISZERO DUP2 MSTORE PUSH1 0x20 ADD JUMPDEST PUSH1 0x40 MLOAD DUP1 SWAP2 SUB SWAP1 RETURN JUMPDEST CALLVALUE DUP1 ISZERO PUSH2 0x109 JUMPI PUSH1 0x0 DUP1 REVERT JUMPDEST POP PUSH1 0x2 SLOAD PUSH2 0x11D SWAP1 PUSH1 0x1 PUSH1 0x1 PUSH1 0xA0 SHL SUB AND DUP2 JUMP JUMPDEST PUSH1 0x40 MLOAD PUSH1 0x1 PUSH1 0x1 PUSH1 0xA0 SHL SUB SWAP1 SWAP2 AND DUP2 MSTORE PUSH1 0x20 ADD PUSH2 0xF4 JUMP JUMPDEST CALLVALUE DUP1 ISZERO PUSH2 0x141 JUMPI PUSH1 0x0 DUP1 REVERT JUMPDEST POP PUSH2 0x155 PUSH2 0x150 CALLDATASIZE PUSH1 0x4 PUSH2 0x56F JUMP JUMPDEST PUSH2 0x2E3 JUMP JUMPDEST PUSH1 0x40 MLOAD PUSH2 0xF4 SWAP6 SWAP5 SWAP4 SWAP3 SWAP2 SWAP1 PUSH2 0x5C6 JUMP JUMPDEST CALLVALUE DUP1 ISZERO PUSH2 0x172 JUMPI PUSH1 0x0 DUP1 REVERT JUMPDEST POP PUSH2 0x17C PUSH1 0x5 SLOAD DUP2 JUMP JUMPDEST PUSH1 0x40 MLOAD SWAP1 DUP2 MSTORE PUSH1 0x20 ADD PUSH2 0xF4 JUMP JUMPDEST CALLVALUE DUP1 ISZERO PUSH2 0x196 JUMPI PUSH1 0x0 DUP1 REVERT JUMPDEST POP PUSH2 0xB6 PUSH2 0x1A5 CALLDATASIZE PUSH1 0x4 PUSH2 0x65A JUMP JUMPDEST PUSH2 0x3AA JUMP JUMPDEST CALLVALUE DUP1 ISZERO PUSH2 0x1B6 JUMPI PUSH1 0x0 DUP1 REVERT JUMPDEST POP PUSH2 0x17C PUSH1 0x3 SLOAD DUP2 JUMP JUMPDEST PUSH2 0xB6 PUSH2 0x41C JUMP JUMPDEST CALLVALUE DUP1 ISZERO PUSH2 0x1D4 JUMPI PUSH1 0x0 DUP1 REVERT JUMPDEST POP PUSH2 0xB6 PUSH2 0x1E3 CALLDATASIZE PUSH1 0x4 PUSH2 0x56F JUMP JUMPDEST PUSH2 0x459 JUMP JUMPDEST CALLVALUE DUP1 ISZERO PUSH2 0x1F4 JUMPI PUSH1 0x0 DUP1 REVERT JUMPDEST POP PUSH1 0x3 SLOAD PUSH1 0x0 SLOAD PUSH1 0x5 SLOAD PUSH1 0x2 SLOAD PUSH1 0x40 DUP1 MLOAD SWAP5 DUP6 MSTORE SELFBALANCE PUSH1 0x20 DUP7 ADD MSTORE DUP5 ADD SWAP3 SWAP1 SWAP3 MSTORE PUSH1 0x60 DUP4 ADD MSTORE PUSH1 0x1 PUSH1 0x1 PUSH1 0xA0 SHL SUB AND PUSH1 0x80 DUP3 ADD MSTORE PUSH1 0xA0 ADD PUSH2 0xF4 JUMP JUMPDEST PUSH1 0x2 SLOAD PUSH1 0x1 PUSH1 0x1 PUSH1 0xA0 SHL SUB AND CALLER EQ PUSH2 0x246 JUMPI PUSH1 0x0 DUP1 REVERT JUMPDEST PUSH1 0x0 DUP2 DUP2 MSTORE PUSH1 0x1 PUSH1 0x20 MSTORE PUSH1 0x40 SWAP1 KECCAK256 PUSH1 0x2 DUP2 ADD SLOAD PUSH1 0x1 PUSH1 0xA0 SHL SWAP1 DIV PUSH1 0xFF AND ISZERO PUSH2 0x26D JUMPI PUSH1 0x0 DUP1 REVERT JUMPDEST PUSH1 0x2 PUSH1 0x5 SLOAD PUSH2 0x27C SWAP2 SWAP1 PUSH2 0x725 JUMP JUMPDEST DUP2 PUSH1 0x3 ADD SLOAD GT PUSH2 0x28B JUMPI PUSH1 0x0 DUP1 REVERT JUMPDEST PUSH1 0x2 DUP2 ADD SLOAD PUSH1 0x1 DUP3 ADD SLOAD PUSH1 0x40 MLOAD PUSH1 0x1 PUSH1 0x1 PUSH1 0xA0 SHL SUB SWAP1 SWAP3 AND SWAP2 DUP2 ISZERO PUSH2 0x8FC MUL SWAP2 SWAP1 PUSH1 0x0 DUP2 DUP2 DUP2 DUP6 DUP9 DUP9 CALL SWAP4 POP POP POP POP ISZERO DUP1 ISZERO PUSH2 0x2CB JUMPI RETURNDATASIZE PUSH1 0x0 DUP1 RETURNDATACOPY RETURNDATASIZE PUSH1 0x0 REVERT JUMPDEST POP PUSH1 0x2 ADD DUP1 SLOAD PUSH1 0xFF PUSH1 0xA0 SHL NOT AND PUSH1 0x1 PUSH1 0xA0 SHL OR SWAP1 SSTORE POP JUMP JUMPDEST PUSH1 0x1 PUSH1 0x20 MSTORE PUSH1 0x0 SWAP1 DUP2 MSTORE PUSH1 0x40 SWAP1 KECCAK256 DUP1 SLOAD DUP2 SWAP1 PUSH2 0x2FE SWAP1 PUSH2 0x747 JUMP JUMPDEST DUP1 PUSH1 0x1F ADD PUSH1 0x20 DUP1 SWAP2 DIV MUL PUSH1 0x20 ADD PUSH1 0x40 MLOAD SWAP1 DUP2 ADD PUSH1 0x40 MSTORE DUP1 SWAP3 SWAP2 SWAP1 DUP2 DUP2 MSTORE PUSH1 0x20 ADD DUP3 DUP1 SLOAD PUSH2 0x32A SWAP1 PUSH2 0x747 JUMP JUMPDEST DUP1 ISZERO PUSH2 0x377 JUMPI DUP1 PUSH1 0x1F LT PUSH2 0x34C JUMPI PUSH2 0x100 DUP1 DUP4 SLOAD DIV MUL DUP4 MSTORE SWAP2 PUSH1 0x20 ADD SWAP2 PUSH2 0x377 JUMP JUMPDEST DUP3 ADD SWAP2 SWAP1 PUSH1 0x0 MSTORE PUSH1 0x20 PUSH1 0x0 KECCAK256 SWAP1 JUMPDEST DUP2 SLOAD DUP2 MSTORE SWAP1 PUSH1 0x1 ADD SWAP1 PUSH1 0x20 ADD DUP1 DUP4 GT PUSH2 0x35A JUMPI DUP3 SWAP1 SUB PUSH1 0x1F AND DUP3 ADD SWAP2 JUMPDEST POP POP POP POP PUSH1 0x1 DUP4 ADD SLOAD PUSH1 0x2 DUP5 ADD SLOAD PUSH1 0x3 SWAP1 SWAP5 ADD SLOAD SWAP3 SWAP4 SWAP1 SWAP3 PUSH1 0x1 PUSH1 0x1 PUSH1 0xA0 SHL SUB DUP3 AND SWAP3 POP PUSH1 0x1 PUSH1 0xA0 SHL SWAP1 SWAP2 DIV PUSH1 0xFF AND SWAP1 DUP6 JUMP JUMPDEST PUSH1 0x0 DUP1 SLOAD PUSH1 0x1 SWAP1 DUP3 SWAP1 DUP2 DUP1 PUSH2 0x3BE DUP4 PUSH2 0x782 JUMP JUMPDEST SWAP1 SWAP2 SSTORE POP DUP2 MSTORE PUSH1 0x20 DUP1 DUP3 ADD SWAP3 SWAP1 SWAP3 MSTORE PUSH1 0x40 ADD PUSH1 0x0 KECCAK256 DUP6 MLOAD SWAP1 SWAP3 POP PUSH2 0x3E7 SWAP2 DUP4 SWAP2 SWAP1 DUP8 ADD SWAP1 PUSH2 0x4D6 JUMP JUMPDEST POP PUSH1 0x1 DUP2 ADD SWAP3 SWAP1 SWAP3 SSTORE PUSH1 0x2 DUP3 ADD DUP1 SLOAD PUSH1 0x1 PUSH1 0x1 PUSH1 0xA8 SHL SUB NOT AND PUSH1 0x1 PUSH1 0x1 PUSH1 0xA0 SHL SUB SWAP1 SWAP3 AND SWAP2 SWAP1 SWAP2 OR SWAP1 SSTORE PUSH1 0x0 PUSH1 0x3 SWAP1 SWAP2 ADD SSTORE POP JUMP JUMPDEST PUSH1 0x3 SLOAD CALLVALUE GT PUSH2 0x42A JUMPI PUSH1 0x0 DUP1 REVERT JUMPDEST CALLER PUSH1 0x0 SWAP1 DUP2 MSTORE PUSH1 0x4 PUSH1 0x20 MSTORE PUSH1 0x40 DUP2 KECCAK256 DUP1 SLOAD PUSH1 0xFF NOT AND PUSH1 0x1 OR SWAP1 SSTORE PUSH1 0x5 DUP1 SLOAD SWAP2 PUSH2 0x452 DUP4 PUSH2 0x782 JUMP JUMPDEST SWAP2 SWAP1 POP SSTORE POP JUMP JUMPDEST PUSH1 0x0 DUP2 DUP2 MSTORE PUSH1 0x1 PUSH1 0x20 SWAP1 DUP2 MSTORE PUSH1 0x40 DUP1 DUP4 KECCAK256 CALLER DUP5 MSTORE PUSH1 0x4 SWAP1 SWAP3 MSTORE SWAP1 SWAP2 KECCAK256 SLOAD PUSH1 0xFF AND PUSH2 0x482 JUMPI PUSH1 0x0 DUP1 REVERT JUMPDEST CALLER PUSH1 0x0 SWAP1 DUP2 MSTORE PUSH1 0x4 DUP3 ADD PUSH1 0x20 MSTORE PUSH1 0x40 SWAP1 KECCAK256 SLOAD PUSH1 0xFF AND ISZERO PUSH2 0x4A1 JUMPI PUSH1 0x0 DUP1 REVERT JUMPDEST CALLER PUSH1 0x0 SWAP1 DUP2 MSTORE PUSH1 0x4 DUP3 ADD PUSH1 0x20 MSTORE PUSH1 0x40 DUP2 KECCAK256 DUP1 SLOAD PUSH1 0xFF NOT AND PUSH1 0x1 OR SWAP1 SSTORE PUSH1 0x3 DUP3 ADD DUP1 SLOAD SWAP2 PUSH2 0x4CD DUP4 PUSH2 0x782 JUMP JUMPDEST SWAP2 SWAP1 POP SSTORE POP POP POP JUMP JUMPDEST DUP3 DUP1 SLOAD PUSH2 0x4E2 SWAP1 PUSH2 0x747 JUMP JUMPDEST SWAP1 PUSH1 0x0 MSTORE PUSH1 0x20 PUSH1 0x0 KECCAK256 SWAP1 PUSH1 0x1F ADD PUSH1 0x20 SWAP1 DIV DUP2 ADD SWAP3 DUP3 PUSH2 0x504 JUMPI PUSH1 0x0 DUP6 SSTORE PUSH2 0x54A JUMP JUMPDEST DUP3 PUSH1 0x1F LT PUSH2 0x51D JUMPI DUP1 MLOAD PUSH1 0xFF NOT AND DUP4 DUP1 ADD OR DUP6 SSTORE PUSH2 0x54A JUMP JUMPDEST DUP3 DUP1 ADD PUSH1 0x1 ADD DUP6 SSTORE DUP3 ISZERO PUSH2 0x54A JUMPI SWAP2 DUP3 ADD JUMPDEST DUP3 DUP2 GT ISZERO PUSH2 0x54A JUMPI DUP3 MLOAD DUP3 SSTORE SWAP2 PUSH1 0x20 ADD SWAP2 SWAP1 PUSH1 0x1 ADD SWAP1 PUSH2 0x52F JUMP JUMPDEST POP PUSH2 0x556 SWAP3 SWAP2 POP PUSH2 0x55A JUMP JUMPDEST POP SWAP1 JUMP JUMPDEST JUMPDEST DUP1 DUP3 GT ISZERO PUSH2 0x556 JUMPI PUSH1 0x0 DUP2 SSTORE PUSH1 0x1 ADD PUSH2 0x55B JUMP JUMPDEST PUSH1 0x0 PUSH1 0x20 DUP3 DUP5 SUB SLT ISZERO PUSH2 0x581 JUMPI PUSH1 0x0 DUP1 REVERT JUMPDEST POP CALLDATALOAD SWAP2 SWAP1 POP JUMP JUMPDEST DUP1 CALLDATALOAD PUSH1 0x1 PUSH1 0x1 PUSH1 0xA0 SHL SUB DUP2 AND DUP2 EQ PUSH2 0x59F JUMPI PUSH1 0x0 DUP1 REVERT JUMPDEST SWAP2 SWAP1 POP JUMP JUMPDEST PUSH1 0x0 PUSH1 0x20 DUP3 DUP5 SUB SLT ISZERO PUSH2 0x5B6 JUMPI PUSH1 0x0 DUP1 REVERT JUMPDEST PUSH2 0x5BF DUP3 PUSH2 0x588 JUMP JUMPDEST SWAP4 SWAP3 POP POP POP JUMP JUMPDEST PUSH1 0xA0 DUP2 MSTORE PUSH1 0x0 DUP7 MLOAD DUP1 PUSH1 0xA0 DUP5 ADD MSTORE PUSH1 0x0 JUMPDEST DUP2 DUP2 LT ISZERO PUSH2 0x5F4 JUMPI PUSH1 0x20 DUP2 DUP11 ADD DUP2 ADD MLOAD PUSH1 0xC0 DUP7 DUP5 ADD ADD MSTORE ADD PUSH2 0x5D7 JUMP JUMPDEST DUP2 DUP2 GT ISZERO PUSH2 0x606 JUMPI PUSH1 0x0 PUSH1 0xC0 DUP4 DUP7 ADD ADD MSTORE JUMPDEST POP PUSH1 0x20 DUP4 ADD DUP8 SWAP1 MSTORE PUSH1 0x1F ADD PUSH1 0x1F NOT AND DUP3 ADD PUSH1 0xC0 ADD SWAP1 POP PUSH2 0x631 PUSH1 0x40 DUP4 ADD DUP7 PUSH1 0x1 PUSH1 0x1 PUSH1 0xA0 SHL SUB AND SWAP1 MSTORE JUMP JUMPDEST SWAP3 ISZERO ISZERO PUSH1 0x60 DUP3 ADD MSTORE PUSH1 0x80 ADD MSTORE SWAP4 SWAP3 POP POP POP JUMP JUMPDEST PUSH4 0x4E487B71 PUSH1 0xE0 SHL PUSH1 0x0 MSTORE PUSH1 0x41 PUSH1 0x4 MSTORE PUSH1 0x24 PUSH1 0x0 REVERT JUMPDEST PUSH1 0x0 DUP1 PUSH1 0x0 PUSH1 0x60 DUP5 DUP7 SUB SLT ISZERO PUSH2 0x66F JUMPI PUSH1 0x0 DUP1 REVERT JUMPDEST DUP4 CALLDATALOAD PUSH8 0xFFFFFFFFFFFFFFFF DUP1 DUP3 GT ISZERO PUSH2 0x687 JUMPI PUSH1 0x0 DUP1 REVERT JUMPDEST DUP2 DUP7 ADD SWAP2 POP DUP7 PUSH1 0x1F DUP4 ADD SLT PUSH2 0x69B JUMPI PUSH1 0x0 DUP1 REVERT JUMPDEST DUP2 CALLDATALOAD DUP2 DUP2 GT ISZERO PUSH2 0x6AD JUMPI PUSH2 0x6AD PUSH2 0x644 JUMP JUMPDEST PUSH1 0x40 MLOAD PUSH1 0x1F DUP3 ADD PUSH1 0x1F NOT SWAP1 DUP2 AND PUSH1 0x3F ADD AND DUP2 ADD SWAP1 DUP4 DUP3 GT DUP2 DUP4 LT OR ISZERO PUSH2 0x6D5 JUMPI PUSH2 0x6D5 PUSH2 0x644 JUMP JUMPDEST DUP2 PUSH1 0x40 MSTORE DUP3 DUP2 MSTORE DUP10 PUSH1 0x20 DUP5 DUP8 ADD ADD GT ISZERO PUSH2 0x6EE JUMPI PUSH1 0x0 DUP1 REVERT JUMPDEST DUP3 PUSH1 0x20 DUP7 ADD PUSH1 0x20 DUP4 ADD CALLDATACOPY PUSH1 0x0 PUSH1 0x20 DUP5 DUP4 ADD ADD MSTORE DUP1 SWAP8 POP POP POP POP POP POP PUSH1 0x20 DUP5 ADD CALLDATALOAD SWAP2 POP PUSH2 0x71C PUSH1 0x40 DUP6 ADD PUSH2 0x588 JUMP JUMPDEST SWAP1 POP SWAP3 POP SWAP3 POP SWAP3 JUMP JUMPDEST PUSH1 0x0 DUP3 PUSH2 0x742 JUMPI PUSH4 0x4E487B71 PUSH1 0xE0 SHL PUSH1 0x0 MSTORE PUSH1 0x12 PUSH1 0x4 MSTORE PUSH1 0x24 PUSH1 0x0 REVERT JUMPDEST POP DIV SWAP1 JUMP JUMPDEST PUSH1 0x1 DUP2 DUP2 SHR SWAP1 DUP3 AND DUP1 PUSH2 0x75B JUMPI PUSH1 0x7F DUP3 AND SWAP2 POP JUMPDEST PUSH1 0x20 DUP3 LT DUP2 EQ ISZERO PUSH2 0x77C JUMPI PUSH4 0x4E487B71 PUSH1 0xE0 SHL PUSH1 0x0 MSTORE PUSH1 0x22 PUSH1 0x4 MSTORE PUSH1 0x24 PUSH1 0x0 REVERT JUMPDEST POP SWAP2 SWAP1 POP JUMP JUMPDEST PUSH1 0x0 PUSH1 0x0 NOT DUP3 EQ ISZERO PUSH2 0x7A4 JUMPI PUSH4 0x4E487B71 PUSH1 0xE0 SHL PUSH1 0x0 MSTORE PUSH1 0x11 PUSH1 0x4 MSTORE PUSH1 0x24 PUSH1 0x0 REVERT JUMPDEST POP PUSH1 0x1 ADD SWAP1 JUMP INVALID LOG2 PUSH5 0x6970667358 0x22 SLT KECCAK256 SWAP1 PUSH31 0xB356B387689E27EE4E693E909D49338B2D9F363B38FB2B8F3470A8AF7B7264 PUSH20 0x6F6C634300080B00330000000000000000000000 "
    },
    "gasEstimates": {
      "creation": {
        "codeDepositCost": "403400",
        "executionCost": "infinite",
        "totalCost": "infinite"
      },
      "external": {
        "approveRequest(uint256)": "53350",
        "approvers(address)": "2543",
        "approversCount()": "2384",
        "contribute()": "50867",
        "createRequest(string,uint256,address)": "infinite",
        "finalizeRequest(uint256)": "infinite",
        "getDetails()": "8769",
        "manager()": "2382",
        "minimumContribution()": "2317",
        "requests(uint256)": "infinite"
      }
    },
    "methodIdentifiers": {
      "approveRequest(uint256)": "d7d1bbdb",
      "approvers(address)": "0a144391",
      "approversCount()": "82fde093",
      "contribute()": "d7bb99ba",
      "createRequest(string,uint256,address)": "8a9cfd55",
      "finalizeRequest(uint256)": "03441006",
      "getDetails()": "fbbf93a0",
      "manager()": "481c6a75",
      "minimumContribution()": "937e09b1",
      "requests(uint256)": "81d12c58"
    }
  },
  "storageLayout": {
    "storage": [
      {
        "astId": 56,
        "contract": "Campaign.sol:Campaign",
        "label": "numRequests",
        "offset": 0,
        "slot": "0",
        "type": "t_uint256"
      },
      {
        "astId": 61,
        "contract": "Campaign.sol:Campaign",
        "label": "requests",
        "offset": 0,
        "slot": "1",
        "type": "t_mapping(t_uint256,t_struct(Request)54_storage)"
      },
      {
        "astId": 63,
        "contract": "Campaign.sol:Campaign",
        "label": "manager",
        "offset": 0,
        "slot": "2",
        "type": "t_address"
      },
      {
        "astId": 65,
        "contract": "Campaign.sol:Campaign",
        "label": "minimumContribution",
        "offset": 0,
        "slot": "3",
        "type": "t_uint256"
      },
      {
        "astId": 69,
        "contract": "Campaign.sol:Campaign",
        "label": "approvers",
        "offset": 0,
        "slot": "4",
        "type": "t_mapping(t_address,t_bool)"
      },
      {
        "astId": 71,
        "contract": "Campaign.sol:Campaign",
        "label": "approversCount",
        "offset": 0,
        "slot": "5",
        "type": "t_uint256"
      }
    ],
    "types": {
      "t_address": {
        "encoding": "inplace",
        "label": "address",
        "numberOfBytes": "20"
      },
      "t_address_payable": {
        "encoding": "inplace",
        "label": "address payable",
        "numberOfBytes": "20"
      },
      "t_bool": {
        "encoding": "inplace",
        "label": "bool",
        "numberOfBytes": "1"
      },
      "t_mapping(t_address,t_bool)": {
        "encoding": "mapping",
        "key": "t_address",
        "label": "mapping(address => bool)",
        "numberOfBytes": "32",
        "value": "t_bool"
      },
      "t_mapping(t_uint256,t_struct(Request)54_storage)": {
        "encoding": "mapping",
        "key": "t_uint256",
        "label": "mapping(uint256 => struct Campaign.Request)",
        "numberOfBytes": "32",
        "value": "t_struct(Request)54_storage"
      },
      "t_string_storage": {
        "encoding": "bytes",
        "label": "string",
        "numberOfBytes": "32"
      },
      "t_struct(Request)54_storage": {
        "encoding": "inplace",
        "label": "struct Campaign.Request",
        "members": [
          {
            "astId": 41,
            "contract": "Campaign.sol:Campaign",
            "label": "description",
            "offset": 0,
            "slot": "0",
            "type": "t_string_storage"
          },
          {
            "astId": 43,
            "contract": "Campaign.sol:Campaign",
            "label": "value",
            "offset": 0,
            "slot": "1",
            "type": "t_uint256"
          },
          {
            "astId": 45,
            "contract": "Campaign.sol:Campaign",
            "label": "recipient",
            "offset": 0,
            "slot": "2",
            "type": "t_address_payable"
          },
          {
            "astId": 47,
            "contract": "Campaign.sol:Campaign",
            "label": "complete",
            "offset": 20,
            "slot": "2",
            "type": "t_bool"
          },
          {
            "astId": 49,
            "contract": "Campaign.sol:Campaign",
            "label": "approvalCount",
            "offset": 0,
            "slot": "3",
            "type": "t_uint256"
          },
          {
            "astId": 53,
            "contract": "Campaign.sol:Campaign",
            "label": "approvals",
            "offset": 0,
            "slot": "4",
            "type": "t_mapping(t_address,t_bool)"
          }
        ],
        "numberOfBytes": "160"
      },
      "t_uint256": {
        "encoding": "inplace",
        "label": "uint256",
        "numberOfBytes": "32"
      }
    }
  },
  "userdoc": {
    "kind": "user",
    "methods": {},
    "version": 1
  }
}