{
  "abi": [
    {
      "inputs": [
        {
          "internalType": "uint256",
          "name": "minimum",
          "type": "uint256"
        }
      ],
      "name": "createCampaign",
      "outputs": [],
      "stateMutability": "nonpayable",
      "type": "function"
    },
    {
      "inputs": [
        {
          "internalType": "uint256",
          "name": "",
          "type": "uint256"
        }
      ],
      "name": "deployedCampaigns",
      "outputs": [
        {
          "internalType": "address",
          "name": "",
          "type": "address"
        }
      ],
      "stateMutability": "view",
      "type": "function"
    },
    {
      "inputs": [],
      "name": "getDeployedCampaings",
      "outputs": [
        {
          "internalType": "address[]",
          "name": "",
          "type": "address[]"
        }
      ],
      "stateMutability": "view",
      "type": "function"
    }
  ],
  "devdoc": {
    "kind": "dev",
    "methods": {},
    "version": 1
  },
  "evm": {
    "assembly": "    /* \"Campaign.sol\":58:524  contract CampaignFactory{... */\n  mstore(0x40, 0x80)\n  callvalue\n  dup1\n  iszero\n  tag_1\n  jumpi\n  0x00\n  dup1\n  revert\ntag_1:\n  pop\n  dataSize(sub_0)\n  dup1\n  dataOffset(sub_0)\n  0x00\n  codecopy\n  0x00\n  return\nstop\n\nsub_0: assembly {\n        /* \"Campaign.sol\":58:524  contract CampaignFactory{... */\n      mstore(0x40, 0x80)\n      callvalue\n      dup1\n      iszero\n      tag_1\n      jumpi\n      0x00\n      dup1\n      revert\n    tag_1:\n      pop\n      jumpi(tag_2, lt(calldatasize, 0x04))\n      shr(0xe0, calldataload(0x00))\n      dup1\n      0x339d50a5\n      eq\n      tag_3\n      jumpi\n      dup1\n      0xa3303a75\n      eq\n      tag_4\n      jumpi\n      dup1\n      0xb2b31828\n      eq\n      tag_5\n      jumpi\n    tag_2:\n      0x00\n      dup1\n      revert\n        /* \"Campaign.sol\":88:122  address[] public deployedCampaigns */\n    tag_3:\n      tag_6\n      tag_7\n      calldatasize\n      0x04\n      tag_8\n      jump\t// in\n    tag_7:\n      tag_9\n      jump\t// in\n    tag_6:\n      mload(0x40)\n      sub(shl(0xa0, 0x01), 0x01)\n        /* \"#utility.yul\":363:395   */\n      swap1\n      swap2\n      and\n        /* \"#utility.yul\":345:396   */\n      dup2\n      mstore\n        /* \"#utility.yul\":333:335   */\n      0x20\n        /* \"#utility.yul\":318:336   */\n      add\n        /* \"Campaign.sol\":88:122  address[] public deployedCampaigns */\n    tag_10:\n      mload(0x40)\n      dup1\n      swap2\n      sub\n      swap1\n      return\n        /* \"Campaign.sol\":129:403  function createCampaign(uint minimum) public{... */\n    tag_4:\n      tag_12\n      tag_13\n      calldatasize\n      0x04\n      tag_8\n      jump\t// in\n    tag_13:\n      tag_14\n      jump\t// in\n    tag_12:\n      stop\n        /* \"Campaign.sol\":409:522  function getDeployedCampaings() public view returns (address[] memory ) {... */\n    tag_5:\n      tag_15\n      tag_16\n      jump\t// in\n    tag_15:\n      mload(0x40)\n      tag_10\n      swap2\n      swap1\n      tag_18\n      jump\t// in\n        /* \"Campaign.sol\":88:122  address[] public deployedCampaigns */\n    tag_9:\n      0x00\n      dup2\n      dup2\n      sload\n      dup2\n      lt\n      tag_19\n      jumpi\n      0x00\n      dup1\n      revert\n    tag_19:\n      0x00\n      swap2\n      dup3\n      mstore\n      0x20\n      swap1\n      swap2\n      keccak256\n      add\n      sload\n      sub(shl(0xa0, 0x01), 0x01)\n      and\n      swap1\n      pop\n      dup2\n      jump\t// out\n        /* \"Campaign.sol\":129:403  function createCampaign(uint minimum) public{... */\n    tag_14:\n        /* \"Campaign.sol\":183:202  address newCampaign */\n      0x00\n        /* \"Campaign.sol\":226:233  minimum */\n      dup2\n        /* \"Campaign.sol\":235:245  msg.sender */\n      caller\n        /* \"Campaign.sol\":213:246  new Campaign(minimum, msg.sender) */\n      mload(0x40)\n      tag_22\n      swap1\n      tag_23\n      jump\t// in\n    tag_22:\n        /* \"#utility.yul\":1244:1269   */\n      swap2\n      dup3\n      mstore\n      sub(shl(0xa0, 0x01), 0x01)\n        /* \"#utility.yul\":1305:1337   */\n      and\n        /* \"#utility.yul\":1300:1302   */\n      0x20\n        /* \"#utility.yul\":1285:1303   */\n      dup3\n      add\n        /* \"#utility.yul\":1278:1338   */\n      mstore\n        /* \"#utility.yul\":1232:1234   */\n      0x40\n        /* \"#utility.yul\":1217:1235   */\n      add\n        /* \"Campaign.sol\":213:246  new Campaign(minimum, msg.sender) */\n      mload(0x40)\n      dup1\n      swap2\n      sub\n      swap1\n      0x00\n      create\n      dup1\n      iszero\n      dup1\n      iszero\n      tag_26\n      jumpi\n      returndatasize\n      0x00\n      dup1\n      returndatacopy\n      revert(0x00, returndatasize)\n    tag_26:\n      pop\n        /* \"Campaign.sol\":361:378  deployedCampaigns */\n      0x00\n        /* \"Campaign.sol\":361:396  deployedCampaigns.push(newCampaign) */\n      dup1\n      sload\n      0x01\n      dup2\n      add\n      dup3\n      sstore\n      swap1\n      dup1\n      mstore\n      0x290decd9548b62a8d60345a988386fc84ba6bc95484008f6362f93160ef3e563\n      add\n      dup1\n      sload\n      not(sub(shl(0xa0, 0x01), 0x01))\n      and\n      sub(shl(0xa0, 0x01), 0x01)\n      swap3\n      swap1\n      swap3\n      and\n      swap2\n      swap1\n      swap2\n      or\n      swap1\n      sstore\n      pop\n      pop\n        /* \"Campaign.sol\":129:403  function createCampaign(uint minimum) public{... */\n      jump\t// out\n        /* \"Campaign.sol\":409:522  function getDeployedCampaings() public view returns (address[] memory ) {... */\n    tag_16:\n        /* \"Campaign.sol\":462:478  address[] memory */\n      0x60\n        /* \"Campaign.sol\":498:515  deployedCampaigns */\n      0x00\n        /* \"Campaign.sol\":491:515  return deployedCampaigns */\n      dup1\n      sload\n      dup1\n      0x20\n      mul\n      0x20\n      add\n      mload(0x40)\n      swap1\n      dup2\n      add\n      0x40\n      mstore\n      dup1\n      swap3\n      swap2\n      swap1\n      dup2\n      dup2\n      mstore\n      0x20\n      add\n      dup3\n      dup1\n      sload\n      dup1\n      iszero\n      tag_29\n      jumpi\n      0x20\n      mul\n      dup3\n      add\n      swap2\n      swap1\n      0x00\n      mstore\n      keccak256(0x00, 0x20)\n      swap1\n    tag_30:\n      dup2\n      sload\n      sub(shl(0xa0, 0x01), 0x01)\n      and\n      dup2\n      mstore\n      0x01\n      swap1\n      swap2\n      add\n      swap1\n      0x20\n      add\n      dup1\n      dup4\n      gt\n      tag_30\n      jumpi\n    tag_29:\n      pop\n      pop\n      pop\n      pop\n      pop\n      swap1\n      pop\n        /* \"Campaign.sol\":409:522  function getDeployedCampaings() public view returns (address[] memory ) {... */\n      swap1\n      jump\t// out\n    tag_23:\n      dataSize(sub_0)\n      dup1\n      dataOffset(sub_0)\n      dup4\n      codecopy\n      add\n      swap1\n      jump\t// out\n        /* \"#utility.yul\":14:194   */\n    tag_8:\n        /* \"#utility.yul\":73:79   */\n      0x00\n        /* \"#utility.yul\":126:128   */\n      0x20\n        /* \"#utility.yul\":114:123   */\n      dup3\n        /* \"#utility.yul\":105:112   */\n      dup5\n        /* \"#utility.yul\":101:124   */\n      sub\n        /* \"#utility.yul\":97:129   */\n      slt\n        /* \"#utility.yul\":94:146   */\n      iszero\n      tag_33\n      jumpi\n        /* \"#utility.yul\":142:143   */\n      0x00\n        /* \"#utility.yul\":139:140   */\n      dup1\n        /* \"#utility.yul\":132:144   */\n      revert\n        /* \"#utility.yul\":94:146   */\n    tag_33:\n      pop\n        /* \"#utility.yul\":165:188   */\n      calldataload\n      swap2\n        /* \"#utility.yul\":14:194   */\n      swap1\n      pop\n      jump\t// out\n        /* \"#utility.yul\":407:1065   */\n    tag_18:\n        /* \"#utility.yul\":578:580   */\n      0x20\n        /* \"#utility.yul\":630:651   */\n      dup1\n      dup3\n      mstore\n        /* \"#utility.yul\":700:713   */\n      dup3\n      mload\n        /* \"#utility.yul\":603:621   */\n      dup3\n      dup3\n      add\n        /* \"#utility.yul\":722:744   */\n      dup2\n      swap1\n      mstore\n        /* \"#utility.yul\":549:553   */\n      0x00\n      swap2\n        /* \"#utility.yul\":578:580   */\n      swap1\n        /* \"#utility.yul\":801:816   */\n      dup5\n      dup3\n      add\n      swap1\n        /* \"#utility.yul\":775:777   */\n      0x40\n        /* \"#utility.yul\":760:778   */\n      dup6\n      add\n      swap1\n        /* \"#utility.yul\":549:553   */\n      dup5\n        /* \"#utility.yul\":844:1039   */\n    tag_36:\n        /* \"#utility.yul\":858:864   */\n      dup2\n        /* \"#utility.yul\":855:856   */\n      dup2\n        /* \"#utility.yul\":852:865   */\n      lt\n        /* \"#utility.yul\":844:1039   */\n      iszero\n      tag_38\n      jumpi\n        /* \"#utility.yul\":923:936   */\n      dup4\n      mload\n      sub(shl(0xa0, 0x01), 0x01)\n        /* \"#utility.yul\":919:958   */\n      and\n        /* \"#utility.yul\":907:959   */\n      dup4\n      mstore\n        /* \"#utility.yul\":1014:1029   */\n      swap3\n      dup5\n      add\n      swap3\n        /* \"#utility.yul\":979:991   */\n      swap2\n      dup5\n      add\n      swap2\n        /* \"#utility.yul\":955:956   */\n      0x01\n        /* \"#utility.yul\":873:882   */\n      add\n        /* \"#utility.yul\":844:1039   */\n      jump(tag_36)\n    tag_38:\n      pop\n        /* \"#utility.yul\":1056:1059   */\n      swap1\n      swap7\n        /* \"#utility.yul\":407:1065   */\n      swap6\n      pop\n      pop\n      pop\n      pop\n      pop\n      pop\n      jump\t// out\n    stop\n\n    sub_0: assembly {\n            /* \"Campaign.sol\":526:2911  contract Campaign{... */\n          mstore(0x40, 0x80)\n            /* \"Campaign.sol\":975:1091  constructor (uint minimum, address creator){... */\n          callvalue\n          dup1\n          iszero\n          tag_1\n          jumpi\n          0x00\n          dup1\n          revert\n        tag_1:\n          pop\n          mload(0x40)\n          sub(codesize, bytecodeSize)\n          dup1\n          bytecodeSize\n          dup4\n          codecopy\n          dup2\n          add\n          0x40\n          dup2\n          swap1\n          mstore\n          tag_2\n          swap2\n          tag_3\n          jump\t// in\n        tag_2:\n            /* \"Campaign.sol\":1028:1035  manager */\n          0x02\n            /* \"Campaign.sol\":1028:1045  manager = creator */\n          dup1\n          sload\n          not(sub(shl(0xa0, 0x01), 0x01))\n          and\n          sub(shl(0xa0, 0x01), 0x01)\n          swap3\n          swap1\n          swap3\n          and\n          swap2\n          swap1\n          swap2\n          or\n          swap1\n          sstore\n            /* \"Campaign.sol\":1055:1074  minimumContribution */\n          0x03\n            /* \"Campaign.sol\":1055:1084  minimumContribution = minimum */\n          sstore\n            /* \"Campaign.sol\":526:2911  contract Campaign{... */\n          jump(tag_7)\n            /* \"#utility.yul\":14:365   */\n        tag_3:\n            /* \"#utility.yul\":93:99   */\n          0x00\n            /* \"#utility.yul\":101:107   */\n          dup1\n            /* \"#utility.yul\":154:156   */\n          0x40\n            /* \"#utility.yul\":142:151   */\n          dup4\n            /* \"#utility.yul\":133:140   */\n          dup6\n            /* \"#utility.yul\":129:152   */\n          sub\n            /* \"#utility.yul\":125:157   */\n          slt\n            /* \"#utility.yul\":122:174   */\n          iszero\n          tag_9\n          jumpi\n            /* \"#utility.yul\":170:171   */\n          0x00\n            /* \"#utility.yul\":167:168   */\n          dup1\n            /* \"#utility.yul\":160:172   */\n          revert\n            /* \"#utility.yul\":122:174   */\n        tag_9:\n            /* \"#utility.yul\":193:209   */\n          dup3\n          mload\n            /* \"#utility.yul\":252:254   */\n          0x20\n            /* \"#utility.yul\":237:255   */\n          dup5\n          add\n            /* \"#utility.yul\":231:256   */\n          mload\n            /* \"#utility.yul\":193:209   */\n          swap1\n          swap3\n          pop\n          sub(shl(0xa0, 0x01), 0x01)\n            /* \"#utility.yul\":285:316   */\n          dup2\n          and\n            /* \"#utility.yul\":275:317   */\n          dup2\n          eq\n            /* \"#utility.yul\":265:335   */\n          tag_10\n          jumpi\n            /* \"#utility.yul\":331:332   */\n          0x00\n            /* \"#utility.yul\":328:329   */\n          dup1\n            /* \"#utility.yul\":321:333   */\n          revert\n            /* \"#utility.yul\":265:335   */\n        tag_10:\n            /* \"#utility.yul\":354:359   */\n          dup1\n            /* \"#utility.yul\":344:359   */\n          swap2\n          pop\n          pop\n            /* \"#utility.yul\":14:365   */\n          swap3\n          pop\n          swap3\n          swap1\n          pop\n          jump\t// out\n        tag_7:\n            /* \"Campaign.sol\":526:2911  contract Campaign{... */\n          dataSize(sub_0)\n          dup1\n          dataOffset(sub_0)\n          0x00\n          codecopy\n          0x00\n          return\n        stop\n\n        sub_0: assembly {\n                /* \"Campaign.sol\":526:2911  contract Campaign{... */\n              mstore(0x40, 0x80)\n              jumpi(tag_1, lt(calldatasize, 0x04))\n              shr(0xe0, calldataload(0x00))\n              dup1\n              0x8a9cfd55\n              gt\n              tag_12\n              jumpi\n              dup1\n              0x8a9cfd55\n              eq\n              tag_7\n              jumpi\n              dup1\n              0x937e09b1\n              eq\n              tag_8\n              jumpi\n              dup1\n              0xd7bb99ba\n              eq\n              tag_9\n              jumpi\n              dup1\n              0xd7d1bbdb\n              eq\n              tag_10\n              jumpi\n              dup1\n              0xfbbf93a0\n              eq\n              tag_11\n              jumpi\n              0x00\n              dup1\n              revert\n            tag_12:\n              dup1\n              0x03441006\n              eq\n              tag_2\n              jumpi\n              dup1\n              0x0a144391\n              eq\n              tag_3\n              jumpi\n              dup1\n              0x481c6a75\n              eq\n              tag_4\n              jumpi\n              dup1\n              0x81d12c58\n              eq\n              tag_5\n              jumpi\n              dup1\n              0x82fde093\n              eq\n              tag_6\n              jumpi\n            tag_1:\n              0x00\n              dup1\n              revert\n                /* \"Campaign.sol\":2577:2909  function finalizeRequest(uint index) public restricted{... */\n            tag_2:\n              callvalue\n              dup1\n              iszero\n              tag_13\n              jumpi\n              0x00\n              dup1\n              revert\n            tag_13:\n              pop\n              tag_14\n              tag_15\n              calldatasize\n              0x04\n              tag_16\n              jump\t// in\n            tag_15:\n              tag_17\n              jump\t// in\n            tag_14:\n              stop\n                /* \"Campaign.sol\":891:932  mapping(address => bool) public approvers */\n            tag_3:\n              callvalue\n              dup1\n              iszero\n              tag_18\n              jumpi\n              0x00\n              dup1\n              revert\n            tag_18:\n              pop\n              tag_19\n              tag_20\n              calldatasize\n              0x04\n              tag_21\n              jump\t// in\n            tag_20:\n              mstore(0x20, 0x04)\n              0x00\n              swap1\n              dup2\n              mstore\n              0x40\n              swap1\n              keccak256\n              sload\n              0xff\n              and\n              dup2\n              jump\n            tag_19:\n              mload(0x40)\n                /* \"#utility.yul\":733:747   */\n              swap1\n              iszero\n                /* \"#utility.yul\":726:748   */\n              iszero\n                /* \"#utility.yul\":708:749   */\n              dup2\n              mstore\n                /* \"#utility.yul\":696:698   */\n              0x20\n                /* \"#utility.yul\":681:699   */\n              add\n                /* \"Campaign.sol\":891:932  mapping(address => bool) public approvers */\n            tag_23:\n              mload(0x40)\n              dup1\n              swap2\n              sub\n              swap1\n              return\n                /* \"Campaign.sol\":826:848  address public manager */\n            tag_4:\n              callvalue\n              dup1\n              iszero\n              tag_25\n              jumpi\n              0x00\n              dup1\n              revert\n            tag_25:\n              pop\n              sload(0x02)\n              tag_26\n              swap1\n              sub(shl(0xa0, 0x01), 0x01)\n              and\n              dup2\n              jump\n            tag_26:\n              mload(0x40)\n              sub(shl(0xa0, 0x01), 0x01)\n                /* \"#utility.yul\":924:956   */\n              swap1\n              swap2\n              and\n                /* \"#utility.yul\":906:957   */\n              dup2\n              mstore\n                /* \"#utility.yul\":894:896   */\n              0x20\n                /* \"#utility.yul\":879:897   */\n              add\n                /* \"Campaign.sol\":826:848  address public manager */\n              tag_23\n                /* \"#utility.yul\":760:963   */\n              jump\n                /* \"Campaign.sol\":780:820  mapping(uint => Request) public requests */\n            tag_5:\n              callvalue\n              dup1\n              iszero\n              tag_30\n              jumpi\n              0x00\n              dup1\n              revert\n            tag_30:\n              pop\n              tag_31\n              tag_32\n              calldatasize\n              0x04\n              tag_16\n              jump\t// in\n            tag_32:\n              tag_33\n              jump\t// in\n            tag_31:\n              mload(0x40)\n              tag_23\n              swap6\n              swap5\n              swap4\n              swap3\n              swap2\n              swap1\n              tag_35\n              jump\t// in\n                /* \"Campaign.sol\":938:964  uint public approversCount */\n            tag_6:\n              callvalue\n              dup1\n              iszero\n              tag_36\n              jumpi\n              0x00\n              dup1\n              revert\n            tag_36:\n              pop\n              tag_37\n              sload(0x05)\n              dup2\n              jump\n            tag_37:\n              mload(0x40)\n                /* \"#utility.yul\":2155:2180   */\n              swap1\n              dup2\n              mstore\n                /* \"#utility.yul\":2143:2145   */\n              0x20\n                /* \"#utility.yul\":2128:2146   */\n              add\n                /* \"Campaign.sol\":938:964  uint public approversCount */\n              tag_23\n                /* \"#utility.yul\":2009:2186   */\n              jump\n                /* \"Campaign.sol\":1612:2135  function createRequest (string memory description, uint value,... */\n            tag_7:\n              callvalue\n              dup1\n              iszero\n              tag_41\n              jumpi\n              0x00\n              dup1\n              revert\n            tag_41:\n              pop\n              tag_14\n              tag_43\n              calldatasize\n              0x04\n              tag_44\n              jump\t// in\n            tag_43:\n              tag_45\n              jump\t// in\n                /* \"Campaign.sol\":854:885  uint public minimumContribution */\n            tag_8:\n              callvalue\n              dup1\n              iszero\n              tag_46\n              jumpi\n              0x00\n              dup1\n              revert\n            tag_46:\n              pop\n              tag_37\n              sload(0x03)\n              dup2\n              jump\n                /* \"Campaign.sol\":1443:1601  function contribute() public payable {... */\n            tag_9:\n              tag_14\n              tag_51\n              jump\t// in\n                /* \"Campaign.sol\":2140:2571  function approveRequest(uint256 index) public {... */\n            tag_10:\n              callvalue\n              dup1\n              iszero\n              tag_52\n              jumpi\n              0x00\n              dup1\n              revert\n            tag_52:\n              pop\n              tag_14\n              tag_54\n              calldatasize\n              0x04\n              tag_16\n              jump\t// in\n            tag_54:\n              tag_55\n              jump\t// in\n                /* \"Campaign.sol\":1183:1437  function getDetails() public view returns (string memory, uint, address, uint, address){... */\n            tag_11:\n              callvalue\n              dup1\n              iszero\n              tag_56\n              jumpi\n              0x00\n              dup1\n              revert\n            tag_56:\n              pop\n              tag_57\n              tag_58\n              jump\t// in\n            tag_57:\n              mload(0x40)\n              tag_23\n              swap6\n              swap5\n              swap4\n              swap3\n              swap2\n              swap1\n              tag_60\n              jump\t// in\n                /* \"Campaign.sol\":2577:2909  function finalizeRequest(uint index) public restricted{... */\n            tag_17:\n                /* \"Campaign.sol\":1151:1158  manager */\n              and(sub(shl(0xa0, 0x01), 0x01), sload(0x02))\n                /* \"Campaign.sol\":1137:1147  msg.sender */\n              caller\n                /* \"Campaign.sol\":1137:1158  msg.sender == manager */\n              eq\n                /* \"Campaign.sol\":1129:1159  require(msg.sender == manager) */\n              tag_62\n              jumpi\n              0x00\n              dup1\n              revert\n            tag_62:\n                /* \"Campaign.sol\":2641:2664  Request storage request */\n              0x00\n                /* \"Campaign.sol\":2667:2682  requests[index] */\n              dup2\n              dup2\n              mstore\n                /* \"Campaign.sol\":2667:2675  requests */\n              0x01\n                /* \"Campaign.sol\":2667:2682  requests[index] */\n              0x20\n              mstore\n              0x40\n              swap1\n              keccak256\n                /* \"Campaign.sol\":2738:2754  request.complete */\n              0x02\n              dup2\n              add\n              sload\n              shl(0xa0, 0x01)\n              swap1\n              div\n              0xff\n              and\n                /* \"Campaign.sol\":2737:2754  !request.complete */\n              iszero\n                /* \"Campaign.sol\":2729:2755  require(!request.complete) */\n              tag_64\n              jumpi\n              0x00\n              dup1\n              revert\n            tag_64:\n                /* \"Campaign.sol\":2814:2815  2 */\n              0x02\n                /* \"Campaign.sol\":2798:2812  approversCount */\n              sload(0x05)\n                /* \"Campaign.sol\":2798:2815  approversCount /2 */\n              tag_65\n              swap2\n              swap1\n              tag_66\n              jump\t// in\n            tag_65:\n                /* \"Campaign.sol\":2773:2780  request */\n              dup2\n                /* \"Campaign.sol\":2773:2794  request.approvalCount */\n              0x03\n              add\n              sload\n                /* \"Campaign.sol\":2773:2816  request.approvalCount > (approversCount /2) */\n              gt\n                /* \"Campaign.sol\":2765:2817  require(request.approvalCount > (approversCount /2)) */\n              tag_67\n              jumpi\n              0x00\n              dup1\n              revert\n            tag_67:\n                /* \"Campaign.sol\":2828:2845  request.recipient */\n              0x02\n              dup2\n              add\n              sload\n              0x01\n                /* \"Campaign.sol\":2855:2868  request.value */\n              dup3\n              add\n              sload\n                /* \"Campaign.sol\":2828:2869  request.recipient.transfer(request.value) */\n              mload(0x40)\n              sub(shl(0xa0, 0x01), 0x01)\n                /* \"Campaign.sol\":2828:2845  request.recipient */\n              swap1\n              swap3\n              and\n              swap2\n                /* \"Campaign.sol\":2828:2869  request.recipient.transfer(request.value) */\n              dup2\n              iszero\n              0x08fc\n              mul\n              swap2\n                /* \"Campaign.sol\":2855:2868  request.value */\n              swap1\n                /* \"Campaign.sol\":2828:2845  request.recipient */\n              0x00\n                /* \"Campaign.sol\":2828:2869  request.recipient.transfer(request.value) */\n              dup2\n                /* \"Campaign.sol\":2828:2845  request.recipient */\n              dup2\n                /* \"Campaign.sol\":2828:2869  request.recipient.transfer(request.value) */\n              dup2\n                /* \"Campaign.sol\":2855:2868  request.value */\n              dup6\n                /* \"Campaign.sol\":2828:2845  request.recipient */\n              dup9\n                /* \"Campaign.sol\":2828:2869  request.recipient.transfer(request.value) */\n              dup9\n              call\n              swap4\n              pop\n              pop\n              pop\n              pop\n              iszero\n              dup1\n              iszero\n              tag_69\n              jumpi\n              returndatasize\n              0x00\n              dup1\n              returndatacopy\n              revert(0x00, returndatasize)\n            tag_69:\n              pop\n                /* \"Campaign.sol\":2879:2895  request.complete */\n              0x02\n              add\n                /* \"Campaign.sol\":2879:2902  request.complete = true */\n              dup1\n              sload\n              not(shl(0xa0, 0xff))\n              and\n              shl(0xa0, 0x01)\n              or\n              swap1\n              sstore\n              pop\n                /* \"Campaign.sol\":2577:2909  function finalizeRequest(uint index) public restricted{... */\n              jump\t// out\n                /* \"Campaign.sol\":780:820  mapping(uint => Request) public requests */\n            tag_33:\n              mstore(0x20, 0x01)\n              0x00\n              swap1\n              dup2\n              mstore\n              0x40\n              swap1\n              keccak256\n              dup1\n              sload\n              dup2\n              swap1\n              tag_70\n              swap1\n              tag_71\n              jump\t// in\n            tag_70:\n              dup1\n              0x1f\n              add\n              0x20\n              dup1\n              swap2\n              div\n              mul\n              0x20\n              add\n              mload(0x40)\n              swap1\n              dup2\n              add\n              0x40\n              mstore\n              dup1\n              swap3\n              swap2\n              swap1\n              dup2\n              dup2\n              mstore\n              0x20\n              add\n              dup3\n              dup1\n              sload\n              tag_72\n              swap1\n              tag_71\n              jump\t// in\n            tag_72:\n              dup1\n              iszero\n              tag_73\n              jumpi\n              dup1\n              0x1f\n              lt\n              tag_74\n              jumpi\n              0x0100\n              dup1\n              dup4\n              sload\n              div\n              mul\n              dup4\n              mstore\n              swap2\n              0x20\n              add\n              swap2\n              jump(tag_73)\n            tag_74:\n              dup3\n              add\n              swap2\n              swap1\n              0x00\n              mstore\n              keccak256(0x00, 0x20)\n              swap1\n            tag_75:\n              dup2\n              sload\n              dup2\n              mstore\n              swap1\n              0x01\n              add\n              swap1\n              0x20\n              add\n              dup1\n              dup4\n              gt\n              tag_75\n              jumpi\n              dup3\n              swap1\n              sub\n              0x1f\n              and\n              dup3\n              add\n              swap2\n            tag_73:\n              pop\n              pop\n              pop\n              pop\n              0x01\n              dup4\n              add\n              sload\n              0x02\n              dup5\n              add\n              sload\n              0x03\n              swap1\n              swap5\n              add\n              sload\n              swap3\n              swap4\n              swap1\n              swap3\n              sub(shl(0xa0, 0x01), 0x01)\n              dup3\n              and\n              swap3\n              pop\n              shl(0xa0, 0x01)\n              swap1\n              swap2\n              div\n              0xff\n              and\n              swap1\n              dup6\n              jump\t// out\n                /* \"Campaign.sol\":1612:2135  function createRequest (string memory description, uint value,... */\n            tag_45:\n                /* \"Campaign.sol\":1730:1753  Request storage request */\n              0x00\n                /* \"Campaign.sol\":1765:1778  numRequests++ */\n              dup1\n              sload\n                /* \"Campaign.sol\":1756:1764  requests */\n              0x01\n              swap1\n                /* \"Campaign.sol\":1730:1753  Request storage request */\n              dup3\n              swap1\n              dup2\n              dup1\n                /* \"Campaign.sol\":1765:1778  numRequests++ */\n              tag_77\n              dup4\n              tag_78\n              jump\t// in\n            tag_77:\n              swap1\n              swap2\n              sstore\n              pop\n                /* \"Campaign.sol\":1756:1779  requests[numRequests++] */\n              dup2\n              mstore\n              0x20\n              dup1\n              dup3\n              add\n              swap3\n              swap1\n              swap3\n              mstore\n              0x40\n              add\n              0x00\n              keccak256\n                /* \"Campaign.sol\":1798:1831  request.description = description */\n              dup6\n              mload\n                /* \"Campaign.sol\":1756:1779  requests[numRequests++] */\n              swap1\n              swap3\n              pop\n                /* \"Campaign.sol\":1798:1831  request.description = description */\n              tag_79\n              swap2\n                /* \"Campaign.sol\":1756:1779  requests[numRequests++] */\n              dup4\n              swap2\n                /* \"Campaign.sol\":1798:1831  request.description = description */\n              swap1\n              dup8\n              add\n              swap1\n              tag_80\n              jump\t// in\n            tag_79:\n              pop\n                /* \"Campaign.sol\":1849:1862  request.value */\n              0x01\n              dup2\n              add\n                /* \"Campaign.sol\":1849:1870  request.value = value */\n              swap3\n              swap1\n              swap3\n              sstore\n                /* \"Campaign.sol\":1888:1905  request.recipient */\n              0x02\n              dup3\n              add\n                /* \"Campaign.sol\":1888:1926  request.recipient = payable(recipient) */\n              dup1\n              sload\n              not(sub(shl(0xa8, 0x01), 0x01))\n                /* \"Campaign.sol\":2044:2068  request.complete = false */\n              and\n              sub(shl(0xa0, 0x01), 0x01)\n                /* \"Campaign.sol\":1888:1926  request.recipient = payable(recipient) */\n              swap1\n              swap3\n              and\n                /* \"Campaign.sol\":2044:2068  request.complete = false */\n              swap2\n              swap1\n              swap2\n              or\n              swap1\n              sstore\n                /* \"Campaign.sol\":1888:1905  request.recipient */\n              0x00\n                /* \"Campaign.sol\":2086:2107  request.approvalCount */\n              0x03\n              swap1\n              swap2\n              add\n                /* \"Campaign.sol\":2086:2111  request.approvalCount = 0 */\n              sstore\n              pop\n                /* \"Campaign.sol\":1612:2135  function createRequest (string memory description, uint value,... */\n              jump\t// out\n                /* \"Campaign.sol\":1443:1601  function contribute() public payable {... */\n            tag_51:\n                /* \"Campaign.sol\":1510:1529  minimumContribution */\n              sload(0x03)\n                /* \"Campaign.sol\":1498:1507  msg.value */\n              callvalue\n                /* \"Campaign.sol\":1498:1529  msg.value > minimumContribution */\n              gt\n                /* \"Campaign.sol\":1490:1530  require(msg.value > minimumContribution) */\n              tag_82\n              jumpi\n              0x00\n              dup1\n              revert\n            tag_82:\n                /* \"Campaign.sol\":1550:1560  msg.sender */\n              caller\n                /* \"Campaign.sol\":1540:1561  approvers[msg.sender] */\n              0x00\n              swap1\n              dup2\n              mstore\n                /* \"Campaign.sol\":1540:1549  approvers */\n              0x04\n                /* \"Campaign.sol\":1540:1561  approvers[msg.sender] */\n              0x20\n              mstore\n              0x40\n              dup2\n              keccak256\n                /* \"Campaign.sol\":1540:1568  approvers[msg.sender] = true */\n              dup1\n              sload\n              not(0xff)\n              and\n                /* \"Campaign.sol\":1564:1568  true */\n              0x01\n                /* \"Campaign.sol\":1540:1568  approvers[msg.sender] = true */\n              or\n              swap1\n              sstore\n                /* \"Campaign.sol\":1578:1592  approversCount */\n              0x05\n                /* \"Campaign.sol\":1578:1594  approversCount++ */\n              dup1\n              sload\n              swap2\n              tag_83\n              dup4\n              tag_78\n              jump\t// in\n            tag_83:\n              swap2\n              swap1\n              pop\n              sstore\n              pop\n                /* \"Campaign.sol\":1443:1601  function contribute() public payable {... */\n              jump\t// out\n                /* \"Campaign.sol\":2140:2571  function approveRequest(uint256 index) public {... */\n            tag_55:\n                /* \"Campaign.sol\":2196:2219  Request storage request */\n              0x00\n                /* \"Campaign.sol\":2222:2237  requests[index] */\n              dup2\n              dup2\n              mstore\n                /* \"Campaign.sol\":2222:2230  requests */\n              0x01\n                /* \"Campaign.sol\":2222:2237  requests[index] */\n              0x20\n              swap1\n              dup2\n              mstore\n              0x40\n              dup1\n              dup4\n              keccak256\n                /* \"Campaign.sol\":2302:2312  msg.sender */\n              caller\n                /* \"Campaign.sol\":2292:2313  approvers[msg.sender] */\n              dup5\n              mstore\n                /* \"Campaign.sol\":2292:2301  approvers */\n              0x04\n                /* \"Campaign.sol\":2292:2313  approvers[msg.sender] */\n              swap1\n              swap3\n              mstore\n              swap1\n              swap2\n              keccak256\n              sload\n              0xff\n              and\n                /* \"Campaign.sol\":2284:2314  require(approvers[msg.sender]) */\n              tag_85\n              jumpi\n              0x00\n              dup1\n              revert\n            tag_85:\n                /* \"Campaign.sol\":2382:2392  msg.sender */\n              caller\n                /* \"Campaign.sol\":2364:2393  request.approvals[msg.sender] */\n              0x00\n              swap1\n              dup2\n              mstore\n                /* \"Campaign.sol\":2364:2381  request.approvals */\n              0x04\n              dup3\n              add\n                /* \"Campaign.sol\":2364:2393  request.approvals[msg.sender] */\n              0x20\n              mstore\n              0x40\n              swap1\n              keccak256\n              sload\n              0xff\n              and\n                /* \"Campaign.sol\":2363:2393  !request.approvals[msg.sender] */\n              iszero\n                /* \"Campaign.sol\":2355:2394  require(!request.approvals[msg.sender]) */\n              tag_86\n              jumpi\n              0x00\n              dup1\n              revert\n            tag_86:\n                /* \"Campaign.sol\":2459:2469  msg.sender */\n              caller\n                /* \"Campaign.sol\":2441:2470  request.approvals[msg.sender] */\n              0x00\n              swap1\n              dup2\n              mstore\n                /* \"Campaign.sol\":2441:2458  request.approvals */\n              0x04\n              dup3\n              add\n                /* \"Campaign.sol\":2441:2470  request.approvals[msg.sender] */\n              0x20\n              mstore\n              0x40\n              dup2\n              keccak256\n                /* \"Campaign.sol\":2441:2477  request.approvals[msg.sender] = true */\n              dup1\n              sload\n              not(0xff)\n              and\n                /* \"Campaign.sol\":2473:2477  true */\n              0x01\n                /* \"Campaign.sol\":2441:2477  request.approvals[msg.sender] = true */\n              or\n              swap1\n              sstore\n                /* \"Campaign.sol\":2519:2540  request.approvalCount */\n              0x03\n              dup3\n              add\n                /* \"Campaign.sol\":2519:2542  request.approvalCount++ */\n              dup1\n              sload\n              swap2\n              tag_87\n              dup4\n              tag_78\n              jump\t// in\n            tag_87:\n              swap2\n              swap1\n              pop\n              sstore\n              pop\n                /* \"Campaign.sol\":2186:2571  {... */\n              pop\n                /* \"Campaign.sol\":2140:2571  function approveRequest(uint256 index) public {... */\n              pop\n              jump\t// out\n                /* \"Campaign.sol\":1183:1437  function getDetails() public view returns (string memory, uint, address, uint, address){... */\n            tag_58:\n                /* \"Campaign.sol\":1241:1245  uint */\n              0x00\n                /* \"Campaign.sol\":1297:1308  numRequests */\n              dup1\n              sload\n                /* \"Campaign.sol\":1288:1309  requests[numRequests] */\n              dup2\n              mstore\n                /* \"Campaign.sol\":1288:1296  requests */\n              0x01\n                /* \"Campaign.sol\":1288:1309  requests[numRequests] */\n              0x20\n              dup2\n              swap1\n              mstore\n              0x40\n              dup3\n              keccak256\n                /* \"Campaign.sol\":1323:1350  requests[numRequests].value */\n              swap1\n              dup2\n              add\n              sload\n                /* \"Campaign.sol\":1352:1383  requests[numRequests].recipient */\n              0x02\n              dup1\n              dup4\n              add\n              sload\n                /* \"Campaign.sol\":1385:1420  requests[numRequests].approvalCount */\n              0x03\n              dup5\n              add\n              sload\n                /* \"Campaign.sol\":1422:1429  manager */\n              swap2\n              sload\n                /* \"Campaign.sol\":1280:1430  return (requests[numRequests].description, requests[numRequests].value, requests[numRequests].recipient, requests[numRequests].approvalCount, manager) */\n              dup5\n              sload\n                /* \"Campaign.sol\":1226:1239  string memory */\n              0x60\n              swap7\n                /* \"Campaign.sol\":1241:1245  uint */\n              swap6\n              dup7\n              swap6\n              dup7\n              swap6\n              dup7\n              swap6\n                /* \"Campaign.sol\":1288:1309  requests[numRequests] */\n              swap3\n              swap5\n                /* \"Campaign.sol\":1323:1350  requests[numRequests].value */\n              swap2\n              swap4\n              sub(shl(0xa0, 0x01), 0x01)\n                /* \"Campaign.sol\":1352:1383  requests[numRequests].recipient */\n              swap4\n              dup5\n              and\n              swap4\n                /* \"Campaign.sol\":1385:1420  requests[numRequests].approvalCount */\n              swap2\n              swap3\n                /* \"Campaign.sol\":1422:1429  manager */\n              swap1\n              swap2\n              and\n              swap1\n                /* \"Campaign.sol\":1288:1309  requests[numRequests] */\n              dup6\n              swap1\n                /* \"Campaign.sol\":1280:1430  return (requests[numRequests].description, requests[numRequests].value, requests[numRequests].recipient, requests[numRequests].approvalCount, manager) */\n              tag_89\n              swap1\n              tag_71\n              jump\t// in\n            tag_89:\n              dup1\n              0x1f\n              add\n              0x20\n              dup1\n              swap2\n              div\n              mul\n              0x20\n              add\n              mload(0x40)\n              swap1\n              dup2\n              add\n              0x40\n              mstore\n              dup1\n              swap3\n              swap2\n              swap1\n              dup2\n              dup2\n              mstore\n              0x20\n              add\n              dup3\n              dup1\n              sload\n              tag_90\n              swap1\n              tag_71\n              jump\t// in\n            tag_90:\n              dup1\n              iszero\n              tag_91\n              jumpi\n              dup1\n              0x1f\n              lt\n              tag_92\n              jumpi\n              0x0100\n              dup1\n              dup4\n              sload\n              div\n              mul\n              dup4\n              mstore\n              swap2\n              0x20\n              add\n              swap2\n              jump(tag_91)\n            tag_92:\n              dup3\n              add\n              swap2\n              swap1\n              0x00\n              mstore\n              keccak256(0x00, 0x20)\n              swap1\n            tag_93:\n              dup2\n              sload\n              dup2\n              mstore\n              swap1\n              0x01\n              add\n              swap1\n              0x20\n              add\n              dup1\n              dup4\n              gt\n              tag_93\n              jumpi\n              dup3\n              swap1\n              sub\n              0x1f\n              and\n              dup3\n              add\n              swap2\n            tag_91:\n              pop\n              pop\n              pop\n              pop\n              pop\n              swap5\n              pop\n              swap5\n              pop\n              swap5\n              pop\n              swap5\n              pop\n              swap5\n              pop\n              swap5\n              pop\n                /* \"Campaign.sol\":1183:1437  function getDetails() public view returns (string memory, uint, address, uint, address){... */\n              swap1\n              swap2\n              swap3\n              swap4\n              swap5\n              jump\t// out\n            tag_80:\n              dup3\n              dup1\n              sload\n              tag_94\n              swap1\n              tag_71\n              jump\t// in\n            tag_94:\n              swap1\n              0x00\n              mstore\n              keccak256(0x00, 0x20)\n              swap1\n              0x1f\n              add\n              0x20\n              swap1\n              div\n              dup2\n              add\n              swap3\n              dup3\n              tag_96\n              jumpi\n              0x00\n              dup6\n              sstore\n              jump(tag_99)\n            tag_96:\n              dup3\n              0x1f\n              lt\n              tag_97\n              jumpi\n              dup1\n              mload\n              not(0xff)\n              and\n              dup4\n              dup1\n              add\n              or\n              dup6\n              sstore\n              jump(tag_99)\n            tag_97:\n              dup3\n              dup1\n              add\n              0x01\n              add\n              dup6\n              sstore\n              dup3\n              iszero\n              tag_99\n              jumpi\n              swap2\n              dup3\n              add\n            tag_98:\n              dup3\n              dup2\n              gt\n              iszero\n              tag_99\n              jumpi\n              dup3\n              mload\n              dup3\n              sstore\n              swap2\n              0x20\n              add\n              swap2\n              swap1\n              0x01\n              add\n              swap1\n              jump(tag_98)\n            tag_99:\n              pop\n              tag_100\n              swap3\n              swap2\n              pop\n              tag_101\n              jump\t// in\n            tag_100:\n              pop\n              swap1\n              jump\t// out\n            tag_101:\n            tag_102:\n              dup1\n              dup3\n              gt\n              iszero\n              tag_100\n              jumpi\n              0x00\n              dup2\n              sstore\n              0x01\n              add\n              jump(tag_102)\n                /* \"#utility.yul\":14:194   */\n            tag_16:\n                /* \"#utility.yul\":73:79   */\n              0x00\n                /* \"#utility.yul\":126:128   */\n              0x20\n                /* \"#utility.yul\":114:123   */\n              dup3\n                /* \"#utility.yul\":105:112   */\n              dup5\n                /* \"#utility.yul\":101:124   */\n              sub\n                /* \"#utility.yul\":97:129   */\n              slt\n                /* \"#utility.yul\":94:146   */\n              iszero\n              tag_109\n              jumpi\n                /* \"#utility.yul\":142:143   */\n              0x00\n                /* \"#utility.yul\":139:140   */\n              dup1\n                /* \"#utility.yul\":132:144   */\n              revert\n                /* \"#utility.yul\":94:146   */\n            tag_109:\n              pop\n                /* \"#utility.yul\":165:188   */\n              calldataload\n              swap2\n                /* \"#utility.yul\":14:194   */\n              swap1\n              pop\n              jump\t// out\n                /* \"#utility.yul\":199:372   */\n            tag_104:\n                /* \"#utility.yul\":267:287   */\n              dup1\n              calldataload\n              sub(shl(0xa0, 0x01), 0x01)\n                /* \"#utility.yul\":316:347   */\n              dup2\n              and\n                /* \"#utility.yul\":306:348   */\n              dup2\n              eq\n                /* \"#utility.yul\":296:366   */\n              tag_111\n              jumpi\n                /* \"#utility.yul\":362:363   */\n              0x00\n                /* \"#utility.yul\":359:360   */\n              dup1\n                /* \"#utility.yul\":352:364   */\n              revert\n                /* \"#utility.yul\":296:366   */\n            tag_111:\n                /* \"#utility.yul\":199:372   */\n              swap2\n              swap1\n              pop\n              jump\t// out\n                /* \"#utility.yul\":377:563   */\n            tag_21:\n                /* \"#utility.yul\":436:442   */\n              0x00\n                /* \"#utility.yul\":489:491   */\n              0x20\n                /* \"#utility.yul\":477:486   */\n              dup3\n                /* \"#utility.yul\":468:475   */\n              dup5\n                /* \"#utility.yul\":464:487   */\n              sub\n                /* \"#utility.yul\":460:492   */\n              slt\n                /* \"#utility.yul\":457:509   */\n              iszero\n              tag_113\n              jumpi\n                /* \"#utility.yul\":505:506   */\n              0x00\n                /* \"#utility.yul\":502:503   */\n              dup1\n                /* \"#utility.yul\":495:507   */\n              revert\n                /* \"#utility.yul\":457:509   */\n            tag_113:\n                /* \"#utility.yul\":528:557   */\n              tag_114\n                /* \"#utility.yul\":547:556   */\n              dup3\n                /* \"#utility.yul\":528:557   */\n              tag_104\n              jump\t// in\n            tag_114:\n                /* \"#utility.yul\":518:557   */\n              swap4\n                /* \"#utility.yul\":377:563   */\n              swap3\n              pop\n              pop\n              pop\n              jump\t// out\n                /* \"#utility.yul\":968:1440   */\n            tag_105:\n                /* \"#utility.yul\":1010:1013   */\n              0x00\n                /* \"#utility.yul\":1048:1053   */\n              dup2\n                /* \"#utility.yul\":1042:1054   */\n              mload\n                /* \"#utility.yul\":1075:1081   */\n              dup1\n                /* \"#utility.yul\":1070:1073   */\n              dup5\n                /* \"#utility.yul\":1063:1082   */\n              mstore\n                /* \"#utility.yul\":1100:1101   */\n              0x00\n                /* \"#utility.yul\":1110:1272   */\n            tag_118:\n                /* \"#utility.yul\":1124:1130   */\n              dup2\n                /* \"#utility.yul\":1121:1122   */\n              dup2\n                /* \"#utility.yul\":1118:1131   */\n              lt\n                /* \"#utility.yul\":1110:1272   */\n              iszero\n              tag_120\n              jumpi\n                /* \"#utility.yul\":1186:1190   */\n              0x20\n                /* \"#utility.yul\":1242:1255   */\n              dup2\n              dup6\n              add\n                /* \"#utility.yul\":1238:1260   */\n              dup2\n              add\n                /* \"#utility.yul\":1232:1261   */\n              mload\n                /* \"#utility.yul\":1214:1225   */\n              dup7\n              dup4\n              add\n                /* \"#utility.yul\":1210:1230   */\n              dup3\n              add\n                /* \"#utility.yul\":1203:1262   */\n              mstore\n                /* \"#utility.yul\":1139:1151   */\n              add\n                /* \"#utility.yul\":1110:1272   */\n              jump(tag_118)\n            tag_120:\n                /* \"#utility.yul\":1290:1296   */\n              dup2\n                /* \"#utility.yul\":1287:1288   */\n              dup2\n                /* \"#utility.yul\":1284:1297   */\n              gt\n                /* \"#utility.yul\":1281:1368   */\n              iszero\n              tag_121\n              jumpi\n                /* \"#utility.yul\":1356:1357   */\n              0x00\n                /* \"#utility.yul\":1349:1353   */\n              0x20\n                /* \"#utility.yul\":1340:1346   */\n              dup4\n                /* \"#utility.yul\":1335:1338   */\n              dup8\n                /* \"#utility.yul\":1331:1347   */\n              add\n                /* \"#utility.yul\":1327:1354   */\n              add\n                /* \"#utility.yul\":1320:1358   */\n              mstore\n                /* \"#utility.yul\":1281:1368   */\n            tag_121:\n              pop\n                /* \"#utility.yul\":1422:1424   */\n              0x1f\n                /* \"#utility.yul\":1401:1416   */\n              add\n              not(0x1f)\n                /* \"#utility.yul\":1397:1426   */\n              and\n                /* \"#utility.yul\":1388:1427   */\n              swap3\n              swap1\n              swap3\n              add\n                /* \"#utility.yul\":1429:1433   */\n              0x20\n                /* \"#utility.yul\":1384:1434   */\n              add\n              swap3\n                /* \"#utility.yul\":968:1440   */\n              swap2\n              pop\n              pop\n              jump\t// out\n                /* \"#utility.yul\":1445:2004   */\n            tag_35:\n                /* \"#utility.yul\":1716:1719   */\n              0xa0\n                /* \"#utility.yul\":1705:1714   */\n              dup2\n                /* \"#utility.yul\":1698:1720   */\n              mstore\n                /* \"#utility.yul\":1679:1683   */\n              0x00\n                /* \"#utility.yul\":1737:1783   */\n              tag_123\n                /* \"#utility.yul\":1778:1781   */\n              0xa0\n                /* \"#utility.yul\":1767:1776   */\n              dup4\n                /* \"#utility.yul\":1763:1782   */\n              add\n                /* \"#utility.yul\":1755:1761   */\n              dup9\n                /* \"#utility.yul\":1737:1783   */\n              tag_105\n              jump\t// in\n            tag_123:\n                /* \"#utility.yul\":1814:1816   */\n              0x20\n                /* \"#utility.yul\":1799:1817   */\n              dup4\n              add\n                /* \"#utility.yul\":1792:1826   */\n              swap7\n              swap1\n              swap7\n              mstore\n              pop\n              sub(shl(0xa0, 0x01), 0x01)\n                /* \"#utility.yul\":1862:1894   */\n              swap4\n              swap1\n              swap4\n              and\n                /* \"#utility.yul\":1857:1859   */\n              0x40\n                /* \"#utility.yul\":1842:1860   */\n              dup5\n              add\n                /* \"#utility.yul\":1835:1895   */\n              mstore\n                /* \"#utility.yul\":1938:1952   */\n              swap1\n              iszero\n                /* \"#utility.yul\":1931:1953   */\n              iszero\n                /* \"#utility.yul\":1926:1928   */\n              0x60\n                /* \"#utility.yul\":1911:1929   */\n              dup4\n              add\n                /* \"#utility.yul\":1904:1954   */\n              mstore\n                /* \"#utility.yul\":1985:1988   */\n              0x80\n                /* \"#utility.yul\":1970:1989   */\n              swap1\n              swap2\n              add\n                /* \"#utility.yul\":1963:1998   */\n              mstore\n                /* \"#utility.yul\":1729:1783   */\n              swap2\n                /* \"#utility.yul\":1445:2004   */\n              swap1\n              pop\n              jump\t// out\n                /* \"#utility.yul\":2191:2318   */\n            tag_106:\n                /* \"#utility.yul\":2252:2262   */\n              0x4e487b71\n                /* \"#utility.yul\":2247:2250   */\n              0xe0\n                /* \"#utility.yul\":2243:2263   */\n              shl\n                /* \"#utility.yul\":2240:2241   */\n              0x00\n                /* \"#utility.yul\":2233:2264   */\n              mstore\n                /* \"#utility.yul\":2283:2287   */\n              0x41\n                /* \"#utility.yul\":2280:2281   */\n              0x04\n                /* \"#utility.yul\":2273:2288   */\n              mstore\n                /* \"#utility.yul\":2307:2311   */\n              0x24\n                /* \"#utility.yul\":2304:2305   */\n              0x00\n                /* \"#utility.yul\":2297:2312   */\n              revert\n                /* \"#utility.yul\":2323:3397   */\n            tag_44:\n                /* \"#utility.yul\":2410:2416   */\n              0x00\n                /* \"#utility.yul\":2418:2424   */\n              dup1\n                /* \"#utility.yul\":2426:2432   */\n              0x00\n                /* \"#utility.yul\":2479:2481   */\n              0x60\n                /* \"#utility.yul\":2467:2476   */\n              dup5\n                /* \"#utility.yul\":2458:2465   */\n              dup7\n                /* \"#utility.yul\":2454:2477   */\n              sub\n                /* \"#utility.yul\":2450:2482   */\n              slt\n                /* \"#utility.yul\":2447:2499   */\n              iszero\n              tag_127\n              jumpi\n                /* \"#utility.yul\":2495:2496   */\n              0x00\n                /* \"#utility.yul\":2492:2493   */\n              dup1\n                /* \"#utility.yul\":2485:2497   */\n              revert\n                /* \"#utility.yul\":2447:2499   */\n            tag_127:\n                /* \"#utility.yul\":2535:2544   */\n              dup4\n                /* \"#utility.yul\":2522:2545   */\n              calldataload\n                /* \"#utility.yul\":2564:2582   */\n              0xffffffffffffffff\n                /* \"#utility.yul\":2605:2607   */\n              dup1\n                /* \"#utility.yul\":2597:2603   */\n              dup3\n                /* \"#utility.yul\":2594:2608   */\n              gt\n                /* \"#utility.yul\":2591:2625   */\n              iszero\n              tag_128\n              jumpi\n                /* \"#utility.yul\":2621:2622   */\n              0x00\n                /* \"#utility.yul\":2618:2619   */\n              dup1\n                /* \"#utility.yul\":2611:2623   */\n              revert\n                /* \"#utility.yul\":2591:2625   */\n            tag_128:\n                /* \"#utility.yul\":2659:2665   */\n              dup2\n                /* \"#utility.yul\":2648:2657   */\n              dup7\n                /* \"#utility.yul\":2644:2666   */\n              add\n                /* \"#utility.yul\":2634:2666   */\n              swap2\n              pop\n                /* \"#utility.yul\":2704:2711   */\n              dup7\n                /* \"#utility.yul\":2697:2701   */\n              0x1f\n                /* \"#utility.yul\":2693:2695   */\n              dup4\n                /* \"#utility.yul\":2689:2702   */\n              add\n                /* \"#utility.yul\":2685:2712   */\n              slt\n                /* \"#utility.yul\":2675:2730   */\n              tag_129\n              jumpi\n                /* \"#utility.yul\":2726:2727   */\n              0x00\n                /* \"#utility.yul\":2723:2724   */\n              dup1\n                /* \"#utility.yul\":2716:2728   */\n              revert\n                /* \"#utility.yul\":2675:2730   */\n            tag_129:\n                /* \"#utility.yul\":2762:2764   */\n              dup2\n                /* \"#utility.yul\":2749:2765   */\n              calldataload\n                /* \"#utility.yul\":2784:2786   */\n              dup2\n                /* \"#utility.yul\":2780:2782   */\n              dup2\n                /* \"#utility.yul\":2777:2787   */\n              gt\n                /* \"#utility.yul\":2774:2810   */\n              iszero\n              tag_131\n              jumpi\n                /* \"#utility.yul\":2790:2808   */\n              tag_131\n              tag_106\n              jump\t// in\n            tag_131:\n                /* \"#utility.yul\":2865:2867   */\n              0x40\n                /* \"#utility.yul\":2859:2868   */\n              mload\n                /* \"#utility.yul\":2833:2835   */\n              0x1f\n                /* \"#utility.yul\":2919:2932   */\n              dup3\n              add\n              not(0x1f)\n                /* \"#utility.yul\":2915:2937   */\n              swap1\n              dup2\n              and\n                /* \"#utility.yul\":2939:2941   */\n              0x3f\n                /* \"#utility.yul\":2911:2942   */\n              add\n                /* \"#utility.yul\":2907:2947   */\n              and\n                /* \"#utility.yul\":2895:2948   */\n              dup2\n              add\n              swap1\n                /* \"#utility.yul\":2963:2981   */\n              dup4\n              dup3\n              gt\n                /* \"#utility.yul\":2983:3005   */\n              dup2\n              dup4\n              lt\n                /* \"#utility.yul\":2960:3006   */\n              or\n                /* \"#utility.yul\":2957:3029   */\n              iszero\n              tag_133\n              jumpi\n                /* \"#utility.yul\":3009:3027   */\n              tag_133\n              tag_106\n              jump\t// in\n            tag_133:\n                /* \"#utility.yul\":3049:3059   */\n              dup2\n                /* \"#utility.yul\":3045:3047   */\n              0x40\n                /* \"#utility.yul\":3038:3060   */\n              mstore\n                /* \"#utility.yul\":3084:3086   */\n              dup3\n                /* \"#utility.yul\":3076:3082   */\n              dup2\n                /* \"#utility.yul\":3069:3087   */\n              mstore\n                /* \"#utility.yul\":3126:3133   */\n              dup10\n                /* \"#utility.yul\":3119:3123   */\n              0x20\n                /* \"#utility.yul\":3114:3116   */\n              dup5\n                /* \"#utility.yul\":3110:3112   */\n              dup8\n                /* \"#utility.yul\":3106:3117   */\n              add\n                /* \"#utility.yul\":3102:3124   */\n              add\n                /* \"#utility.yul\":3099:3134   */\n              gt\n                /* \"#utility.yul\":3096:3151   */\n              iszero\n              tag_134\n              jumpi\n                /* \"#utility.yul\":3147:3148   */\n              0x00\n                /* \"#utility.yul\":3144:3145   */\n              dup1\n                /* \"#utility.yul\":3137:3149   */\n              revert\n                /* \"#utility.yul\":3096:3151   */\n            tag_134:\n                /* \"#utility.yul\":3207:3209   */\n              dup3\n                /* \"#utility.yul\":3200:3204   */\n              0x20\n                /* \"#utility.yul\":3196:3198   */\n              dup7\n                /* \"#utility.yul\":3192:3205   */\n              add\n                /* \"#utility.yul\":3185:3189   */\n              0x20\n                /* \"#utility.yul\":3177:3183   */\n              dup4\n                /* \"#utility.yul\":3173:3190   */\n              add\n                /* \"#utility.yul\":3160:3210   */\n              calldatacopy\n                /* \"#utility.yul\":3254:3255   */\n              0x00\n                /* \"#utility.yul\":3247:3251   */\n              0x20\n                /* \"#utility.yul\":3242:3244   */\n              dup5\n                /* \"#utility.yul\":3234:3240   */\n              dup4\n                /* \"#utility.yul\":3230:3245   */\n              add\n                /* \"#utility.yul\":3226:3252   */\n              add\n                /* \"#utility.yul\":3219:3256   */\n              mstore\n                /* \"#utility.yul\":3275:3281   */\n              dup1\n                /* \"#utility.yul\":3265:3281   */\n              swap8\n              pop\n              pop\n              pop\n              pop\n              pop\n              pop\n                /* \"#utility.yul\":3328:3332   */\n              0x20\n                /* \"#utility.yul\":3317:3326   */\n              dup5\n                /* \"#utility.yul\":3313:3333   */\n              add\n                /* \"#utility.yul\":3300:3334   */\n              calldataload\n                /* \"#utility.yul\":3290:3334   */\n              swap2\n              pop\n                /* \"#utility.yul\":3353:3391   */\n              tag_135\n                /* \"#utility.yul\":3387:3389   */\n              0x40\n                /* \"#utility.yul\":3376:3385   */\n              dup6\n                /* \"#utility.yul\":3372:3390   */\n              add\n                /* \"#utility.yul\":3353:3391   */\n              tag_104\n              jump\t// in\n            tag_135:\n                /* \"#utility.yul\":3343:3391   */\n              swap1\n              pop\n                /* \"#utility.yul\":2323:3397   */\n              swap3\n              pop\n              swap3\n              pop\n              swap3\n              jump\t// out\n                /* \"#utility.yul\":3402:3965   */\n            tag_60:\n                /* \"#utility.yul\":3663:3666   */\n              0xa0\n                /* \"#utility.yul\":3652:3661   */\n              dup2\n                /* \"#utility.yul\":3645:3667   */\n              mstore\n                /* \"#utility.yul\":3626:3630   */\n              0x00\n                /* \"#utility.yul\":3684:3730   */\n              tag_137\n                /* \"#utility.yul\":3725:3728   */\n              0xa0\n                /* \"#utility.yul\":3714:3723   */\n              dup4\n                /* \"#utility.yul\":3710:3729   */\n              add\n                /* \"#utility.yul\":3702:3708   */\n              dup9\n                /* \"#utility.yul\":3684:3730   */\n              tag_105\n              jump\t// in\n            tag_137:\n                /* \"#utility.yul\":3761:3763   */\n              0x20\n                /* \"#utility.yul\":3746:3764   */\n              dup4\n              add\n                /* \"#utility.yul\":3739:3773   */\n              swap7\n              swap1\n              swap7\n              mstore\n              pop\n              sub(shl(0xa0, 0x01), 0x01)\n                /* \"#utility.yul\":3847:3862   */\n              swap4\n              dup5\n              and\n                /* \"#utility.yul\":3842:3844   */\n              0x40\n                /* \"#utility.yul\":3827:3845   */\n              dup3\n              add\n                /* \"#utility.yul\":3820:3863   */\n              mstore\n                /* \"#utility.yul\":3894:3896   */\n              0x60\n                /* \"#utility.yul\":3879:3897   */\n              dup2\n              add\n                /* \"#utility.yul\":3872:3906   */\n              swap3\n              swap1\n              swap3\n              mstore\n                /* \"#utility.yul\":3943:3958   */\n              swap1\n              swap2\n              and\n                /* \"#utility.yul\":3937:3940   */\n              0x80\n                /* \"#utility.yul\":3922:3941   */\n              swap1\n              swap2\n              add\n                /* \"#utility.yul\":3915:3959   */\n              mstore\n                /* \"#utility.yul\":3676:3730   */\n              swap2\n                /* \"#utility.yul\":3402:3965   */\n              swap1\n              pop\n              jump\t// out\n                /* \"#utility.yul\":3970:4187   */\n            tag_66:\n                /* \"#utility.yul\":4010:4011   */\n              0x00\n                /* \"#utility.yul\":4036:4037   */\n              dup3\n                /* \"#utility.yul\":4026:4158   */\n              tag_139\n              jumpi\n                /* \"#utility.yul\":4080:4090   */\n              0x4e487b71\n                /* \"#utility.yul\":4075:4078   */\n              0xe0\n                /* \"#utility.yul\":4071:4091   */\n              shl\n                /* \"#utility.yul\":4068:4069   */\n              0x00\n                /* \"#utility.yul\":4061:4092   */\n              mstore\n                /* \"#utility.yul\":4115:4119   */\n              0x12\n                /* \"#utility.yul\":4112:4113   */\n              0x04\n                /* \"#utility.yul\":4105:4120   */\n              mstore\n                /* \"#utility.yul\":4143:4147   */\n              0x24\n                /* \"#utility.yul\":4140:4141   */\n              0x00\n                /* \"#utility.yul\":4133:4148   */\n              revert\n                /* \"#utility.yul\":4026:4158   */\n            tag_139:\n              pop\n                /* \"#utility.yul\":4172:4181   */\n              div\n              swap1\n                /* \"#utility.yul\":3970:4187   */\n              jump\t// out\n                /* \"#utility.yul\":4192:4572   */\n            tag_71:\n                /* \"#utility.yul\":4271:4272   */\n              0x01\n                /* \"#utility.yul\":4267:4279   */\n              dup2\n              dup2\n              shr\n              swap1\n                /* \"#utility.yul\":4314:4326   */\n              dup3\n              and\n              dup1\n                /* \"#utility.yul\":4335:4396   */\n              tag_141\n              jumpi\n                /* \"#utility.yul\":4389:4393   */\n              0x7f\n                /* \"#utility.yul\":4381:4387   */\n              dup3\n                /* \"#utility.yul\":4377:4394   */\n              and\n                /* \"#utility.yul\":4367:4394   */\n              swap2\n              pop\n                /* \"#utility.yul\":4335:4396   */\n            tag_141:\n                /* \"#utility.yul\":4442:4444   */\n              0x20\n                /* \"#utility.yul\":4434:4440   */\n              dup3\n                /* \"#utility.yul\":4431:4445   */\n              lt\n                /* \"#utility.yul\":4411:4429   */\n              dup2\n                /* \"#utility.yul\":4408:4446   */\n              eq\n                /* \"#utility.yul\":4405:4566   */\n              iszero\n              tag_142\n              jumpi\n                /* \"#utility.yul\":4488:4498   */\n              0x4e487b71\n                /* \"#utility.yul\":4483:4486   */\n              0xe0\n                /* \"#utility.yul\":4479:4499   */\n              shl\n                /* \"#utility.yul\":4476:4477   */\n              0x00\n                /* \"#utility.yul\":4469:4500   */\n              mstore\n                /* \"#utility.yul\":4523:4527   */\n              0x22\n                /* \"#utility.yul\":4520:4521   */\n              0x04\n                /* \"#utility.yul\":4513:4528   */\n              mstore\n                /* \"#utility.yul\":4551:4555   */\n              0x24\n                /* \"#utility.yul\":4548:4549   */\n              0x00\n                /* \"#utility.yul\":4541:4556   */\n              revert\n                /* \"#utility.yul\":4405:4566   */\n            tag_142:\n              pop\n                /* \"#utility.yul\":4192:4572   */\n              swap2\n              swap1\n              pop\n              jump\t// out\n                /* \"#utility.yul\":4577:4809   */\n            tag_78:\n                /* \"#utility.yul\":4616:4619   */\n              0x00\n              not(0x00)\n                /* \"#utility.yul\":4637:4654   */\n              dup3\n              eq\n                /* \"#utility.yul\":4634:4774   */\n              iszero\n              tag_144\n              jumpi\n                /* \"#utility.yul\":4696:4706   */\n              0x4e487b71\n                /* \"#utility.yul\":4691:4694   */\n              0xe0\n                /* \"#utility.yul\":4687:4707   */\n              shl\n                /* \"#utility.yul\":4684:4685   */\n              0x00\n                /* \"#utility.yul\":4677:4708   */\n              mstore\n                /* \"#utility.yul\":4731:4735   */\n              0x11\n                /* \"#utility.yul\":4728:4729   */\n              0x04\n                /* \"#utility.yul\":4721:4736   */\n              mstore\n                /* \"#utility.yul\":4759:4763   */\n              0x24\n                /* \"#utility.yul\":4756:4757   */\n              0x00\n                /* \"#utility.yul\":4749:4764   */\n              revert\n                /* \"#utility.yul\":4634:4774   */\n            tag_144:\n              pop\n                /* \"#utility.yul\":4801:4802   */\n              0x01\n                /* \"#utility.yul\":4790:4803   */\n              add\n              swap1\n                /* \"#utility.yul\":4577:4809   */\n              jump\t// out\n\n            auxdata: 0xa2646970667358221220957c85ab3e9799c58c861db5a3abe5472637c067c2f2a6d704f63fed34387e4564736f6c634300080b0033\n        }\n    }\n\n    auxdata: 0xa264697066735822122087ae6242f7d5c3275ff93a5cd386692551a699afe0799b9c58d667e89d39a59464736f6c634300080b0033\n}\n",
    "bytecode": {
      "linkReferences": {},
      "object": "608060405234801561001057600080fd5b50610bfb806100206000396000f3fe608060405234801561001057600080fd5b50600436106100415760003560e01c8063339d50a514610046578063a3303a7514610076578063b2b318281461008b575b600080fd5b6100596100543660046101cb565b6100a0565b6040516001600160a01b0390911681526020015b60405180910390f35b6100896100843660046101cb565b6100ca565b005b61009361015c565b60405161006d91906101e4565b600081815481106100b057600080fd5b6000918252602090912001546001600160a01b0316905081565b600081336040516100da906101be565b9182526001600160a01b03166020820152604001604051809103906000f08015801561010a573d6000803e3d6000fd5b50600080546001810182559080527f290decd9548b62a8d60345a988386fc84ba6bc95484008f6362f93160ef3e5630180546001600160a01b0319166001600160a01b03929092169190911790555050565b606060008054806020026020016040519081016040528092919081815260200182805480156101b457602002820191906000526020600020905b81546001600160a01b03168152600190910190602001808311610196575b5050505050905090565b6109948061023283390190565b6000602082840312156101dd57600080fd5b5035919050565b6020808252825182820181905260009190848201906040850190845b818110156102255783516001600160a01b031683529284019291840191600101610200565b5090969550505050505056fe608060405234801561001057600080fd5b5060405161099438038061099483398101604081905261002f91610057565b600280546001600160a01b0319166001600160a01b0392909216919091179055600355610094565b6000806040838503121561006a57600080fd5b825160208401519092506001600160a01b038116811461008957600080fd5b809150509250929050565b6108f1806100a36000396000f3fe6080604052600436106100915760003560e01c80638a9cfd55116100595780638a9cfd551461018a578063937e09b1146101aa578063d7bb99ba146101c0578063d7d1bbdb146101c8578063fbbf93a0146101e857600080fd5b806303441006146100965780630a144391146100b8578063481c6a75146100fd57806381d12c581461013557806382fde09314610166575b600080fd5b3480156100a257600080fd5b506100b66100b136600461062e565b61020e565b005b3480156100c457600080fd5b506100e86100d3366004610663565b60046020526000908152604090205460ff1681565b60405190151581526020015b60405180910390f35b34801561010957600080fd5b5060025461011d906001600160a01b031681565b6040516001600160a01b0390911681526020016100f4565b34801561014157600080fd5b5061015561015036600461062e565b6102c2565b6040516100f49594939291906106d2565b34801561017257600080fd5b5061017c60055481565b6040519081526020016100f4565b34801561019657600080fd5b506100b66101a5366004610728565b610389565b3480156101b657600080fd5b5061017c60035481565b6100b66103fb565b3480156101d457600080fd5b506100b66101e336600461062e565b610438565b3480156101f457600080fd5b506101fd6104b5565b6040516100f49594939291906107f3565b6002546001600160a01b0316331461022557600080fd5b60008181526001602052604090206002810154600160a01b900460ff161561024c57600080fd5b600260055461025b9190610835565b81600301541161026a57600080fd5b600281015460018201546040516001600160a01b039092169181156108fc0291906000818181858888f193505050501580156102aa573d6000803e3d6000fd5b50600201805460ff60a01b1916600160a01b17905550565b6001602052600090815260409020805481906102dd90610857565b80601f016020809104026020016040519081016040528092919081815260200182805461030990610857565b80156103565780601f1061032b57610100808354040283529160200191610356565b820191906000526020600020905b81548152906001019060200180831161033957829003601f168201915b5050505060018301546002840154600390940154929390926001600160a01b0382169250600160a01b90910460ff169085565b600080546001908290818061039d83610892565b90915550815260208082019290925260400160002085519092506103c691839190870190610595565b5060018101929092556002820180546001600160a81b0319166001600160a01b03909216919091179055600060039091015550565b600354341161040957600080fd5b336000908152600460205260408120805460ff19166001179055600580549161043183610892565b9190505550565b600081815260016020908152604080832033845260049092529091205460ff1661046157600080fd5b33600090815260048201602052604090205460ff161561048057600080fd5b3360009081526004820160205260408120805460ff19166001179055600382018054916104ac83610892565b91905055505050565b60008054815260016020819052604082209081015460028083015460038401549154845460609695869586958695929491936001600160a01b0393841693919290911690859061050490610857565b80601f016020809104026020016040519081016040528092919081815260200182805461053090610857565b801561057d5780601f106105525761010080835404028352916020019161057d565b820191906000526020600020905b81548152906001019060200180831161056057829003601f168201915b50505050509450945094509450945094509091929394565b8280546105a190610857565b90600052602060002090601f0160209004810192826105c35760008555610609565b82601f106105dc57805160ff1916838001178555610609565b82800160010185558215610609579182015b828111156106095782518255916020019190600101906105ee565b50610615929150610619565b5090565b5b80821115610615576000815560010161061a565b60006020828403121561064057600080fd5b5035919050565b80356001600160a01b038116811461065e57600080fd5b919050565b60006020828403121561067557600080fd5b61067e82610647565b9392505050565b6000815180845260005b818110156106ab5760208185018101518683018201520161068f565b818111156106bd576000602083870101525b50601f01601f19169290920160200192915050565b60a0815260006106e560a0830188610685565b6020830196909652506001600160a01b039390931660408401529015156060830152608090910152919050565b634e487b7160e01b600052604160045260246000fd5b60008060006060848603121561073d57600080fd5b833567ffffffffffffffff8082111561075557600080fd5b818601915086601f83011261076957600080fd5b81358181111561077b5761077b610712565b604051601f8201601f19908116603f011681019083821181831017156107a3576107a3610712565b816040528281528960208487010111156107bc57600080fd5b826020860160208301376000602084830101528097505050505050602084013591506107ea60408501610647565b90509250925092565b60a08152600061080660a0830188610685565b6020830196909652506001600160a01b0393841660408201526060810192909252909116608090910152919050565b60008261085257634e487b7160e01b600052601260045260246000fd5b500490565b600181811c9082168061086b57607f821691505b6020821081141561088c57634e487b7160e01b600052602260045260246000fd5b50919050565b60006000198214156108b457634e487b7160e01b600052601160045260246000fd5b506001019056fea2646970667358221220957c85ab3e9799c58c861db5a3abe5472637c067c2f2a6d704f63fed34387e4564736f6c634300080b0033a264697066735822122087ae6242f7d5c3275ff93a5cd386692551a699afe0799b9c58d667e89d39a59464736f6c634300080b0033",
      "opcodes": "PUSH1 0x80 PUSH1 0x40 MSTORE CALLVALUE DUP1 ISZERO PUSH2 0x10 JUMPI PUSH1 0x0 DUP1 REVERT JUMPDEST POP PUSH2 0xBFB DUP1 PUSH2 0x20 PUSH1 0x0 CODECOPY PUSH1 0x0 RETURN INVALID PUSH1 0x80 PUSH1 0x40 MSTORE CALLVALUE DUP1 ISZERO PUSH2 0x10 JUMPI PUSH1 0x0 DUP1 REVERT JUMPDEST POP PUSH1 0x4 CALLDATASIZE LT PUSH2 0x41 JUMPI PUSH1 0x0 CALLDATALOAD PUSH1 0xE0 SHR DUP1 PUSH4 0x339D50A5 EQ PUSH2 0x46 JUMPI DUP1 PUSH4 0xA3303A75 EQ PUSH2 0x76 JUMPI DUP1 PUSH4 0xB2B31828 EQ PUSH2 0x8B JUMPI JUMPDEST PUSH1 0x0 DUP1 REVERT JUMPDEST PUSH2 0x59 PUSH2 0x54 CALLDATASIZE PUSH1 0x4 PUSH2 0x1CB JUMP JUMPDEST PUSH2 0xA0 JUMP JUMPDEST PUSH1 0x40 MLOAD PUSH1 0x1 PUSH1 0x1 PUSH1 0xA0 SHL SUB SWAP1 SWAP2 AND DUP2 MSTORE PUSH1 0x20 ADD JUMPDEST PUSH1 0x40 MLOAD DUP1 SWAP2 SUB SWAP1 RETURN JUMPDEST PUSH2 0x89 PUSH2 0x84 CALLDATASIZE PUSH1 0x4 PUSH2 0x1CB JUMP JUMPDEST PUSH2 0xCA JUMP JUMPDEST STOP JUMPDEST PUSH2 0x93 PUSH2 0x15C JUMP JUMPDEST PUSH1 0x40 MLOAD PUSH2 0x6D SWAP2 SWAP1 PUSH2 0x1E4 JUMP JUMPDEST PUSH1 0x0 DUP2 DUP2 SLOAD DUP2 LT PUSH2 0xB0 JUMPI PUSH1 0x0 DUP1 REVERT JUMPDEST PUSH1 0x0 SWAP2 DUP3 MSTORE PUSH1 0x20 SWAP1 SWAP2 KECCAK256 ADD SLOAD PUSH1 0x1 PUSH1 0x1 PUSH1 0xA0 SHL SUB AND SWAP1 POP DUP2 JUMP JUMPDEST PUSH1 0x0 DUP2 CALLER PUSH1 0x40 MLOAD PUSH2 0xDA SWAP1 PUSH2 0x1BE JUMP JUMPDEST SWAP2 DUP3 MSTORE PUSH1 0x1 PUSH1 0x1 PUSH1 0xA0 SHL SUB AND PUSH1 0x20 DUP3 ADD MSTORE PUSH1 0x40 ADD PUSH1 0x40 MLOAD DUP1 SWAP2 SUB SWAP1 PUSH1 0x0 CREATE DUP1 ISZERO DUP1 ISZERO PUSH2 0x10A JUMPI RETURNDATASIZE PUSH1 0x0 DUP1 RETURNDATACOPY RETURNDATASIZE PUSH1 0x0 REVERT JUMPDEST POP PUSH1 0x0 DUP1 SLOAD PUSH1 0x1 DUP2 ADD DUP3 SSTORE SWAP1 DUP1 MSTORE PUSH32 0x290DECD9548B62A8D60345A988386FC84BA6BC95484008F6362F93160EF3E563 ADD DUP1 SLOAD PUSH1 0x1 PUSH1 0x1 PUSH1 0xA0 SHL SUB NOT AND PUSH1 0x1 PUSH1 0x1 PUSH1 0xA0 SHL SUB SWAP3 SWAP1 SWAP3 AND SWAP2 SWAP1 SWAP2 OR SWAP1 SSTORE POP POP JUMP JUMPDEST PUSH1 0x60 PUSH1 0x0 DUP1 SLOAD DUP1 PUSH1 0x20 MUL PUSH1 0x20 ADD PUSH1 0x40 MLOAD SWAP1 DUP2 ADD PUSH1 0x40 MSTORE DUP1 SWAP3 SWAP2 SWAP1 DUP2 DUP2 MSTORE PUSH1 0x20 ADD DUP3 DUP1 SLOAD DUP1 ISZERO PUSH2 0x1B4 JUMPI PUSH1 0x20 MUL DUP3 ADD SWAP2 SWAP1 PUSH1 0x0 MSTORE PUSH1 0x20 PUSH1 0x0 KECCAK256 SWAP1 JUMPDEST DUP2 SLOAD PUSH1 0x1 PUSH1 0x1 PUSH1 0xA0 SHL SUB AND DUP2 MSTORE PUSH1 0x1 SWAP1 SWAP2 ADD SWAP1 PUSH1 0x20 ADD DUP1 DUP4 GT PUSH2 0x196 JUMPI JUMPDEST POP POP POP POP POP SWAP1 POP SWAP1 JUMP JUMPDEST PUSH2 0x994 DUP1 PUSH2 0x232 DUP4 CODECOPY ADD SWAP1 JUMP JUMPDEST PUSH1 0x0 PUSH1 0x20 DUP3 DUP5 SUB SLT ISZERO PUSH2 0x1DD JUMPI PUSH1 0x0 DUP1 REVERT JUMPDEST POP CALLDATALOAD SWAP2 SWAP1 POP JUMP JUMPDEST PUSH1 0x20 DUP1 DUP3 MSTORE DUP3 MLOAD DUP3 DUP3 ADD DUP2 SWAP1 MSTORE PUSH1 0x0 SWAP2 SWAP1 DUP5 DUP3 ADD SWAP1 PUSH1 0x40 DUP6 ADD SWAP1 DUP5 JUMPDEST DUP2 DUP2 LT ISZERO PUSH2 0x225 JUMPI DUP4 MLOAD PUSH1 0x1 PUSH1 0x1 PUSH1 0xA0 SHL SUB AND DUP4 MSTORE SWAP3 DUP5 ADD SWAP3 SWAP2 DUP5 ADD SWAP2 PUSH1 0x1 ADD PUSH2 0x200 JUMP JUMPDEST POP SWAP1 SWAP7 SWAP6 POP POP POP POP POP POP JUMP INVALID PUSH1 0x80 PUSH1 0x40 MSTORE CALLVALUE DUP1 ISZERO PUSH2 0x10 JUMPI PUSH1 0x0 DUP1 REVERT JUMPDEST POP PUSH1 0x40 MLOAD PUSH2 0x994 CODESIZE SUB DUP1 PUSH2 0x994 DUP4 CODECOPY DUP2 ADD PUSH1 0x40 DUP2 SWAP1 MSTORE PUSH2 0x2F SWAP2 PUSH2 0x57 JUMP JUMPDEST PUSH1 0x2 DUP1 SLOAD PUSH1 0x1 PUSH1 0x1 PUSH1 0xA0 SHL SUB NOT AND PUSH1 0x1 PUSH1 0x1 PUSH1 0xA0 SHL SUB SWAP3 SWAP1 SWAP3 AND SWAP2 SWAP1 SWAP2 OR SWAP1 SSTORE PUSH1 0x3 SSTORE PUSH2 0x94 JUMP JUMPDEST PUSH1 0x0 DUP1 PUSH1 0x40 DUP4 DUP6 SUB SLT ISZERO PUSH2 0x6A JUMPI PUSH1 0x0 DUP1 REVERT JUMPDEST DUP3 MLOAD PUSH1 0x20 DUP5 ADD MLOAD SWAP1 SWAP3 POP PUSH1 0x1 PUSH1 0x1 PUSH1 0xA0 SHL SUB DUP2 AND DUP2 EQ PUSH2 0x89 JUMPI PUSH1 0x0 DUP1 REVERT JUMPDEST DUP1 SWAP2 POP POP SWAP3 POP SWAP3 SWAP1 POP JUMP JUMPDEST PUSH2 0x8F1 DUP1 PUSH2 0xA3 PUSH1 0x0 CODECOPY PUSH1 0x0 RETURN INVALID PUSH1 0x80 PUSH1 0x40 MSTORE PUSH1 0x4 CALLDATASIZE LT PUSH2 0x91 JUMPI PUSH1 0x0 CALLDATALOAD PUSH1 0xE0 SHR DUP1 PUSH4 0x8A9CFD55 GT PUSH2 0x59 JUMPI DUP1 PUSH4 0x8A9CFD55 EQ PUSH2 0x18A JUMPI DUP1 PUSH4 0x937E09B1 EQ PUSH2 0x1AA JUMPI DUP1 PUSH4 0xD7BB99BA EQ PUSH2 0x1C0 JUMPI DUP1 PUSH4 0xD7D1BBDB EQ PUSH2 0x1C8 JUMPI DUP1 PUSH4 0xFBBF93A0 EQ PUSH2 0x1E8 JUMPI PUSH1 0x0 DUP1 REVERT JUMPDEST DUP1 PUSH4 0x3441006 EQ PUSH2 0x96 JUMPI DUP1 PUSH4 0xA144391 EQ PUSH2 0xB8 JUMPI DUP1 PUSH4 0x481C6A75 EQ PUSH2 0xFD JUMPI DUP1 PUSH4 0x81D12C58 EQ PUSH2 0x135 JUMPI DUP1 PUSH4 0x82FDE093 EQ PUSH2 0x166 JUMPI JUMPDEST PUSH1 0x0 DUP1 REVERT JUMPDEST CALLVALUE DUP1 ISZERO PUSH2 0xA2 JUMPI PUSH1 0x0 DUP1 REVERT JUMPDEST POP PUSH2 0xB6 PUSH2 0xB1 CALLDATASIZE PUSH1 0x4 PUSH2 0x62E JUMP JUMPDEST PUSH2 0x20E JUMP JUMPDEST STOP JUMPDEST CALLVALUE DUP1 ISZERO PUSH2 0xC4 JUMPI PUSH1 0x0 DUP1 REVERT JUMPDEST POP PUSH2 0xE8 PUSH2 0xD3 CALLDATASIZE PUSH1 0x4 PUSH2 0x663 JUMP JUMPDEST PUSH1 0x4 PUSH1 0x20 MSTORE PUSH1 0x0 SWAP1 DUP2 MSTORE PUSH1 0x40 SWAP1 KECCAK256 SLOAD PUSH1 0xFF AND DUP2 JUMP JUMPDEST PUSH1 0x40 MLOAD SWAP1 ISZERO ISZERO DUP2 MSTORE PUSH1 0x20 ADD JUMPDEST PUSH1 0x40 MLOAD DUP1 SWAP2 SUB SWAP1 RETURN JUMPDEST CALLVALUE DUP1 ISZERO PUSH2 0x109 JUMPI PUSH1 0x0 DUP1 REVERT JUMPDEST POP PUSH1 0x2 SLOAD PUSH2 0x11D SWAP1 PUSH1 0x1 PUSH1 0x1 PUSH1 0xA0 SHL SUB AND DUP2 JUMP JUMPDEST PUSH1 0x40 MLOAD PUSH1 0x1 PUSH1 0x1 PUSH1 0xA0 SHL SUB SWAP1 SWAP2 AND DUP2 MSTORE PUSH1 0x20 ADD PUSH2 0xF4 JUMP JUMPDEST CALLVALUE DUP1 ISZERO PUSH2 0x141 JUMPI PUSH1 0x0 DUP1 REVERT JUMPDEST POP PUSH2 0x155 PUSH2 0x150 CALLDATASIZE PUSH1 0x4 PUSH2 0x62E JUMP JUMPDEST PUSH2 0x2C2 JUMP JUMPDEST PUSH1 0x40 MLOAD PUSH2 0xF4 SWAP6 SWAP5 SWAP4 SWAP3 SWAP2 SWAP1 PUSH2 0x6D2 JUMP JUMPDEST CALLVALUE DUP1 ISZERO PUSH2 0x172 JUMPI PUSH1 0x0 DUP1 REVERT JUMPDEST POP PUSH2 0x17C PUSH1 0x5 SLOAD DUP2 JUMP JUMPDEST PUSH1 0x40 MLOAD SWAP1 DUP2 MSTORE PUSH1 0x20 ADD PUSH2 0xF4 JUMP JUMPDEST CALLVALUE DUP1 ISZERO PUSH2 0x196 JUMPI PUSH1 0x0 DUP1 REVERT JUMPDEST POP PUSH2 0xB6 PUSH2 0x1A5 CALLDATASIZE PUSH1 0x4 PUSH2 0x728 JUMP JUMPDEST PUSH2 0x389 JUMP JUMPDEST CALLVALUE DUP1 ISZERO PUSH2 0x1B6 JUMPI PUSH1 0x0 DUP1 REVERT JUMPDEST POP PUSH2 0x17C PUSH1 0x3 SLOAD DUP2 JUMP JUMPDEST PUSH2 0xB6 PUSH2 0x3FB JUMP JUMPDEST CALLVALUE DUP1 ISZERO PUSH2 0x1D4 JUMPI PUSH1 0x0 DUP1 REVERT JUMPDEST POP PUSH2 0xB6 PUSH2 0x1E3 CALLDATASIZE PUSH1 0x4 PUSH2 0x62E JUMP JUMPDEST PUSH2 0x438 JUMP JUMPDEST CALLVALUE DUP1 ISZERO PUSH2 0x1F4 JUMPI PUSH1 0x0 DUP1 REVERT JUMPDEST POP PUSH2 0x1FD PUSH2 0x4B5 JUMP JUMPDEST PUSH1 0x40 MLOAD PUSH2 0xF4 SWAP6 SWAP5 SWAP4 SWAP3 SWAP2 SWAP1 PUSH2 0x7F3 JUMP JUMPDEST PUSH1 0x2 SLOAD PUSH1 0x1 PUSH1 0x1 PUSH1 0xA0 SHL SUB AND CALLER EQ PUSH2 0x225 JUMPI PUSH1 0x0 DUP1 REVERT JUMPDEST PUSH1 0x0 DUP2 DUP2 MSTORE PUSH1 0x1 PUSH1 0x20 MSTORE PUSH1 0x40 SWAP1 KECCAK256 PUSH1 0x2 DUP2 ADD SLOAD PUSH1 0x1 PUSH1 0xA0 SHL SWAP1 DIV PUSH1 0xFF AND ISZERO PUSH2 0x24C JUMPI PUSH1 0x0 DUP1 REVERT JUMPDEST PUSH1 0x2 PUSH1 0x5 SLOAD PUSH2 0x25B SWAP2 SWAP1 PUSH2 0x835 JUMP JUMPDEST DUP2 PUSH1 0x3 ADD SLOAD GT PUSH2 0x26A JUMPI PUSH1 0x0 DUP1 REVERT JUMPDEST PUSH1 0x2 DUP2 ADD SLOAD PUSH1 0x1 DUP3 ADD SLOAD PUSH1 0x40 MLOAD PUSH1 0x1 PUSH1 0x1 PUSH1 0xA0 SHL SUB SWAP1 SWAP3 AND SWAP2 DUP2 ISZERO PUSH2 0x8FC MUL SWAP2 SWAP1 PUSH1 0x0 DUP2 DUP2 DUP2 DUP6 DUP9 DUP9 CALL SWAP4 POP POP POP POP ISZERO DUP1 ISZERO PUSH2 0x2AA JUMPI RETURNDATASIZE PUSH1 0x0 DUP1 RETURNDATACOPY RETURNDATASIZE PUSH1 0x0 REVERT JUMPDEST POP PUSH1 0x2 ADD DUP1 SLOAD PUSH1 0xFF PUSH1 0xA0 SHL NOT AND PUSH1 0x1 PUSH1 0xA0 SHL OR SWAP1 SSTORE POP JUMP JUMPDEST PUSH1 0x1 PUSH1 0x20 MSTORE PUSH1 0x0 SWAP1 DUP2 MSTORE PUSH1 0x40 SWAP1 KECCAK256 DUP1 SLOAD DUP2 SWAP1 PUSH2 0x2DD SWAP1 PUSH2 0x857 JUMP JUMPDEST DUP1 PUSH1 0x1F ADD PUSH1 0x20 DUP1 SWAP2 DIV MUL PUSH1 0x20 ADD PUSH1 0x40 MLOAD SWAP1 DUP2 ADD PUSH1 0x40 MSTORE DUP1 SWAP3 SWAP2 SWAP1 DUP2 DUP2 MSTORE PUSH1 0x20 ADD DUP3 DUP1 SLOAD PUSH2 0x309 SWAP1 PUSH2 0x857 JUMP JUMPDEST DUP1 ISZERO PUSH2 0x356 JUMPI DUP1 PUSH1 0x1F LT PUSH2 0x32B JUMPI PUSH2 0x100 DUP1 DUP4 SLOAD DIV MUL DUP4 MSTORE SWAP2 PUSH1 0x20 ADD SWAP2 PUSH2 0x356 JUMP JUMPDEST DUP3 ADD SWAP2 SWAP1 PUSH1 0x0 MSTORE PUSH1 0x20 PUSH1 0x0 KECCAK256 SWAP1 JUMPDEST DUP2 SLOAD DUP2 MSTORE SWAP1 PUSH1 0x1 ADD SWAP1 PUSH1 0x20 ADD DUP1 DUP4 GT PUSH2 0x339 JUMPI DUP3 SWAP1 SUB PUSH1 0x1F AND DUP3 ADD SWAP2 JUMPDEST POP POP POP POP PUSH1 0x1 DUP4 ADD SLOAD PUSH1 0x2 DUP5 ADD SLOAD PUSH1 0x3 SWAP1 SWAP5 ADD SLOAD SWAP3 SWAP4 SWAP1 SWAP3 PUSH1 0x1 PUSH1 0x1 PUSH1 0xA0 SHL SUB DUP3 AND SWAP3 POP PUSH1 0x1 PUSH1 0xA0 SHL SWAP1 SWAP2 DIV PUSH1 0xFF AND SWAP1 DUP6 JUMP JUMPDEST PUSH1 0x0 DUP1 SLOAD PUSH1 0x1 SWAP1 DUP3 SWAP1 DUP2 DUP1 PUSH2 0x39D DUP4 PUSH2 0x892 JUMP JUMPDEST SWAP1 SWAP2 SSTORE POP DUP2 MSTORE PUSH1 0x20 DUP1 DUP3 ADD SWAP3 SWAP1 SWAP3 MSTORE PUSH1 0x40 ADD PUSH1 0x0 KECCAK256 DUP6 MLOAD SWAP1 SWAP3 POP PUSH2 0x3C6 SWAP2 DUP4 SWAP2 SWAP1 DUP8 ADD SWAP1 PUSH2 0x595 JUMP JUMPDEST POP PUSH1 0x1 DUP2 ADD SWAP3 SWAP1 SWAP3 SSTORE PUSH1 0x2 DUP3 ADD DUP1 SLOAD PUSH1 0x1 PUSH1 0x1 PUSH1 0xA8 SHL SUB NOT AND PUSH1 0x1 PUSH1 0x1 PUSH1 0xA0 SHL SUB SWAP1 SWAP3 AND SWAP2 SWAP1 SWAP2 OR SWAP1 SSTORE PUSH1 0x0 PUSH1 0x3 SWAP1 SWAP2 ADD SSTORE POP JUMP JUMPDEST PUSH1 0x3 SLOAD CALLVALUE GT PUSH2 0x409 JUMPI PUSH1 0x0 DUP1 REVERT JUMPDEST CALLER PUSH1 0x0 SWAP1 DUP2 MSTORE PUSH1 0x4 PUSH1 0x20 MSTORE PUSH1 0x40 DUP2 KECCAK256 DUP1 SLOAD PUSH1 0xFF NOT AND PUSH1 0x1 OR SWAP1 SSTORE PUSH1 0x5 DUP1 SLOAD SWAP2 PUSH2 0x431 DUP4 PUSH2 0x892 JUMP JUMPDEST SWAP2 SWAP1 POP SSTORE POP JUMP JUMPDEST PUSH1 0x0 DUP2 DUP2 MSTORE PUSH1 0x1 PUSH1 0x20 SWAP1 DUP2 MSTORE PUSH1 0x40 DUP1 DUP4 KECCAK256 CALLER DUP5 MSTORE PUSH1 0x4 SWAP1 SWAP3 MSTORE SWAP1 SWAP2 KECCAK256 SLOAD PUSH1 0xFF AND PUSH2 0x461 JUMPI PUSH1 0x0 DUP1 REVERT JUMPDEST CALLER PUSH1 0x0 SWAP1 DUP2 MSTORE PUSH1 0x4 DUP3 ADD PUSH1 0x20 MSTORE PUSH1 0x40 SWAP1 KECCAK256 SLOAD PUSH1 0xFF AND ISZERO PUSH2 0x480 JUMPI PUSH1 0x0 DUP1 REVERT JUMPDEST CALLER PUSH1 0x0 SWAP1 DUP2 MSTORE PUSH1 0x4 DUP3 ADD PUSH1 0x20 MSTORE PUSH1 0x40 DUP2 KECCAK256 DUP1 SLOAD PUSH1 0xFF NOT AND PUSH1 0x1 OR SWAP1 SSTORE PUSH1 0x3 DUP3 ADD DUP1 SLOAD SWAP2 PUSH2 0x4AC DUP4 PUSH2 0x892 JUMP JUMPDEST SWAP2 SWAP1 POP SSTORE POP POP POP JUMP JUMPDEST PUSH1 0x0 DUP1 SLOAD DUP2 MSTORE PUSH1 0x1 PUSH1 0x20 DUP2 SWAP1 MSTORE PUSH1 0x40 DUP3 KECCAK256 SWAP1 DUP2 ADD SLOAD PUSH1 0x2 DUP1 DUP4 ADD SLOAD PUSH1 0x3 DUP5 ADD SLOAD SWAP2 SLOAD DUP5 SLOAD PUSH1 0x60 SWAP7 SWAP6 DUP7 SWAP6 DUP7 SWAP6 DUP7 SWAP6 SWAP3 SWAP5 SWAP2 SWAP4 PUSH1 0x1 PUSH1 0x1 PUSH1 0xA0 SHL SUB SWAP4 DUP5 AND SWAP4 SWAP2 SWAP3 SWAP1 SWAP2 AND SWAP1 DUP6 SWAP1 PUSH2 0x504 SWAP1 PUSH2 0x857 JUMP JUMPDEST DUP1 PUSH1 0x1F ADD PUSH1 0x20 DUP1 SWAP2 DIV MUL PUSH1 0x20 ADD PUSH1 0x40 MLOAD SWAP1 DUP2 ADD PUSH1 0x40 MSTORE DUP1 SWAP3 SWAP2 SWAP1 DUP2 DUP2 MSTORE PUSH1 0x20 ADD DUP3 DUP1 SLOAD PUSH2 0x530 SWAP1 PUSH2 0x857 JUMP JUMPDEST DUP1 ISZERO PUSH2 0x57D JUMPI DUP1 PUSH1 0x1F LT PUSH2 0x552 JUMPI PUSH2 0x100 DUP1 DUP4 SLOAD DIV MUL DUP4 MSTORE SWAP2 PUSH1 0x20 ADD SWAP2 PUSH2 0x57D JUMP JUMPDEST DUP3 ADD SWAP2 SWAP1 PUSH1 0x0 MSTORE PUSH1 0x20 PUSH1 0x0 KECCAK256 SWAP1 JUMPDEST DUP2 SLOAD DUP2 MSTORE SWAP1 PUSH1 0x1 ADD SWAP1 PUSH1 0x20 ADD DUP1 DUP4 GT PUSH2 0x560 JUMPI DUP3 SWAP1 SUB PUSH1 0x1F AND DUP3 ADD SWAP2 JUMPDEST POP POP POP POP POP SWAP5 POP SWAP5 POP SWAP5 POP SWAP5 POP SWAP5 POP SWAP5 POP SWAP1 SWAP2 SWAP3 SWAP4 SWAP5 JUMP JUMPDEST DUP3 DUP1 SLOAD PUSH2 0x5A1 SWAP1 PUSH2 0x857 JUMP JUMPDEST SWAP1 PUSH1 0x0 MSTORE PUSH1 0x20 PUSH1 0x0 KECCAK256 SWAP1 PUSH1 0x1F ADD PUSH1 0x20 SWAP1 DIV DUP2 ADD SWAP3 DUP3 PUSH2 0x5C3 JUMPI PUSH1 0x0 DUP6 SSTORE PUSH2 0x609 JUMP JUMPDEST DUP3 PUSH1 0x1F LT PUSH2 0x5DC JUMPI DUP1 MLOAD PUSH1 0xFF NOT AND DUP4 DUP1 ADD OR DUP6 SSTORE PUSH2 0x609 JUMP JUMPDEST DUP3 DUP1 ADD PUSH1 0x1 ADD DUP6 SSTORE DUP3 ISZERO PUSH2 0x609 JUMPI SWAP2 DUP3 ADD JUMPDEST DUP3 DUP2 GT ISZERO PUSH2 0x609 JUMPI DUP3 MLOAD DUP3 SSTORE SWAP2 PUSH1 0x20 ADD SWAP2 SWAP1 PUSH1 0x1 ADD SWAP1 PUSH2 0x5EE JUMP JUMPDEST POP PUSH2 0x615 SWAP3 SWAP2 POP PUSH2 0x619 JUMP JUMPDEST POP SWAP1 JUMP JUMPDEST JUMPDEST DUP1 DUP3 GT ISZERO PUSH2 0x615 JUMPI PUSH1 0x0 DUP2 SSTORE PUSH1 0x1 ADD PUSH2 0x61A JUMP JUMPDEST PUSH1 0x0 PUSH1 0x20 DUP3 DUP5 SUB SLT ISZERO PUSH2 0x640 JUMPI PUSH1 0x0 DUP1 REVERT JUMPDEST POP CALLDATALOAD SWAP2 SWAP1 POP JUMP JUMPDEST DUP1 CALLDATALOAD PUSH1 0x1 PUSH1 0x1 PUSH1 0xA0 SHL SUB DUP2 AND DUP2 EQ PUSH2 0x65E JUMPI PUSH1 0x0 DUP1 REVERT JUMPDEST SWAP2 SWAP1 POP JUMP JUMPDEST PUSH1 0x0 PUSH1 0x20 DUP3 DUP5 SUB SLT ISZERO PUSH2 0x675 JUMPI PUSH1 0x0 DUP1 REVERT JUMPDEST PUSH2 0x67E DUP3 PUSH2 0x647 JUMP JUMPDEST SWAP4 SWAP3 POP POP POP JUMP JUMPDEST PUSH1 0x0 DUP2 MLOAD DUP1 DUP5 MSTORE PUSH1 0x0 JUMPDEST DUP2 DUP2 LT ISZERO PUSH2 0x6AB JUMPI PUSH1 0x20 DUP2 DUP6 ADD DUP2 ADD MLOAD DUP7 DUP4 ADD DUP3 ADD MSTORE ADD PUSH2 0x68F JUMP JUMPDEST DUP2 DUP2 GT ISZERO PUSH2 0x6BD JUMPI PUSH1 0x0 PUSH1 0x20 DUP4 DUP8 ADD ADD MSTORE JUMPDEST POP PUSH1 0x1F ADD PUSH1 0x1F NOT AND SWAP3 SWAP1 SWAP3 ADD PUSH1 0x20 ADD SWAP3 SWAP2 POP POP JUMP JUMPDEST PUSH1 0xA0 DUP2 MSTORE PUSH1 0x0 PUSH2 0x6E5 PUSH1 0xA0 DUP4 ADD DUP9 PUSH2 0x685 JUMP JUMPDEST PUSH1 0x20 DUP4 ADD SWAP7 SWAP1 SWAP7 MSTORE POP PUSH1 0x1 PUSH1 0x1 PUSH1 0xA0 SHL SUB SWAP4 SWAP1 SWAP4 AND PUSH1 0x40 DUP5 ADD MSTORE SWAP1 ISZERO ISZERO PUSH1 0x60 DUP4 ADD MSTORE PUSH1 0x80 SWAP1 SWAP2 ADD MSTORE SWAP2 SWAP1 POP JUMP JUMPDEST PUSH4 0x4E487B71 PUSH1 0xE0 SHL PUSH1 0x0 MSTORE PUSH1 0x41 PUSH1 0x4 MSTORE PUSH1 0x24 PUSH1 0x0 REVERT JUMPDEST PUSH1 0x0 DUP1 PUSH1 0x0 PUSH1 0x60 DUP5 DUP7 SUB SLT ISZERO PUSH2 0x73D JUMPI PUSH1 0x0 DUP1 REVERT JUMPDEST DUP4 CALLDATALOAD PUSH8 0xFFFFFFFFFFFFFFFF DUP1 DUP3 GT ISZERO PUSH2 0x755 JUMPI PUSH1 0x0 DUP1 REVERT JUMPDEST DUP2 DUP7 ADD SWAP2 POP DUP7 PUSH1 0x1F DUP4 ADD SLT PUSH2 0x769 JUMPI PUSH1 0x0 DUP1 REVERT JUMPDEST DUP2 CALLDATALOAD DUP2 DUP2 GT ISZERO PUSH2 0x77B JUMPI PUSH2 0x77B PUSH2 0x712 JUMP JUMPDEST PUSH1 0x40 MLOAD PUSH1 0x1F DUP3 ADD PUSH1 0x1F NOT SWAP1 DUP2 AND PUSH1 0x3F ADD AND DUP2 ADD SWAP1 DUP4 DUP3 GT DUP2 DUP4 LT OR ISZERO PUSH2 0x7A3 JUMPI PUSH2 0x7A3 PUSH2 0x712 JUMP JUMPDEST DUP2 PUSH1 0x40 MSTORE DUP3 DUP2 MSTORE DUP10 PUSH1 0x20 DUP5 DUP8 ADD ADD GT ISZERO PUSH2 0x7BC JUMPI PUSH1 0x0 DUP1 REVERT JUMPDEST DUP3 PUSH1 0x20 DUP7 ADD PUSH1 0x20 DUP4 ADD CALLDATACOPY PUSH1 0x0 PUSH1 0x20 DUP5 DUP4 ADD ADD MSTORE DUP1 SWAP8 POP POP POP POP POP POP PUSH1 0x20 DUP5 ADD CALLDATALOAD SWAP2 POP PUSH2 0x7EA PUSH1 0x40 DUP6 ADD PUSH2 0x647 JUMP JUMPDEST SWAP1 POP SWAP3 POP SWAP3 POP SWAP3 JUMP JUMPDEST PUSH1 0xA0 DUP2 MSTORE PUSH1 0x0 PUSH2 0x806 PUSH1 0xA0 DUP4 ADD DUP9 PUSH2 0x685 JUMP JUMPDEST PUSH1 0x20 DUP4 ADD SWAP7 SWAP1 SWAP7 MSTORE POP PUSH1 0x1 PUSH1 0x1 PUSH1 0xA0 SHL SUB SWAP4 DUP5 AND PUSH1 0x40 DUP3 ADD MSTORE PUSH1 0x60 DUP2 ADD SWAP3 SWAP1 SWAP3 MSTORE SWAP1 SWAP2 AND PUSH1 0x80 SWAP1 SWAP2 ADD MSTORE SWAP2 SWAP1 POP JUMP JUMPDEST PUSH1 0x0 DUP3 PUSH2 0x852 JUMPI PUSH4 0x4E487B71 PUSH1 0xE0 SHL PUSH1 0x0 MSTORE PUSH1 0x12 PUSH1 0x4 MSTORE PUSH1 0x24 PUSH1 0x0 REVERT JUMPDEST POP DIV SWAP1 JUMP JUMPDEST PUSH1 0x1 DUP2 DUP2 SHR SWAP1 DUP3 AND DUP1 PUSH2 0x86B JUMPI PUSH1 0x7F DUP3 AND SWAP2 POP JUMPDEST PUSH1 0x20 DUP3 LT DUP2 EQ ISZERO PUSH2 0x88C JUMPI PUSH4 0x4E487B71 PUSH1 0xE0 SHL PUSH1 0x0 MSTORE PUSH1 0x22 PUSH1 0x4 MSTORE PUSH1 0x24 PUSH1 0x0 REVERT JUMPDEST POP SWAP2 SWAP1 POP JUMP JUMPDEST PUSH1 0x0 PUSH1 0x0 NOT DUP3 EQ ISZERO PUSH2 0x8B4 JUMPI PUSH4 0x4E487B71 PUSH1 0xE0 SHL PUSH1 0x0 MSTORE PUSH1 0x11 PUSH1 0x4 MSTORE PUSH1 0x24 PUSH1 0x0 REVERT JUMPDEST POP PUSH1 0x1 ADD SWAP1 JUMP INVALID LOG2 PUSH5 0x6970667358 0x22 SLT KECCAK256 SWAP6 PUSH29 0x85AB3E9799C58C861DB5A3ABE5472637C067C2F2A6D704F63FED34387E GASLIMIT PUSH5 0x736F6C6343 STOP ADDMOD SIGNEXTEND STOP CALLER LOG2 PUSH5 0x6970667358 0x22 SLT KECCAK256 DUP8 0xAE PUSH3 0x42F7D5 0xC3 0x27 0x5F 0xF9 GASPRICE 0x5C 0xD3 DUP7 PUSH10 0x2551A699AFE0799B9C58 0xD6 PUSH8 0xE89D39A59464736F PUSH13 0x634300080B0033000000000000 "
    },
    "gasEstimates": {
      "creation": {
        "codeDepositCost": "613400",
        "executionCost": "645",
        "totalCost": "614045"
      },
      "external": {
        "createCampaign(uint256)": "infinite",
        "deployedCampaigns(uint256)": "4581",
        "getDeployedCampaings()": "infinite"
      }
    },
    "methodIdentifiers": {
      "createCampaign(uint256)": "a3303a75",
      "deployedCampaigns(uint256)": "339d50a5",
      "getDeployedCampaings()": "b2b31828"
    }
  },
  "storageLayout": {
    "storage": [
      {
        "astId": 4,
        "contract": "Campaign.sol:CampaignFactory",
        "label": "deployedCampaigns",
        "offset": 0,
        "slot": "0",
        "type": "t_array(t_address)dyn_storage"
      }
    ],
    "types": {
      "t_address": {
        "encoding": "inplace",
        "label": "address",
        "numberOfBytes": "20"
      },
      "t_array(t_address)dyn_storage": {
        "base": "t_address",
        "encoding": "dynamic_array",
        "label": "address[]",
        "numberOfBytes": "32"
      }
    }
  },
  "userdoc": {
    "kind": "user",
    "methods": {},
    "version": 1
  }
}